{
  "contractName": "Cryptoducks",
  "abi": [
    {
      "inputs": [],
      "stateMutability": "nonpayable",
      "type": "constructor"
    },
    {
      "anonymous": false,
      "inputs": [
        {
          "indexed": true,
          "internalType": "address",
          "name": "_owner",
          "type": "address"
        },
        {
          "indexed": true,
          "internalType": "address",
          "name": "_approved",
          "type": "address"
        },
        {
          "indexed": true,
          "internalType": "uint256",
          "name": "_tokenId",
          "type": "uint256"
        }
      ],
      "name": "Approval",
      "type": "event"
    },
    {
      "anonymous": false,
      "inputs": [
        {
          "indexed": true,
          "internalType": "address",
          "name": "_owner",
          "type": "address"
        },
        {
          "indexed": true,
          "internalType": "address",
          "name": "_operator",
          "type": "address"
        },
        {
          "indexed": false,
          "internalType": "bool",
          "name": "_approved",
          "type": "bool"
        }
      ],
      "name": "ApprovalForAll",
      "type": "event"
    },
    {
      "anonymous": false,
      "inputs": [
        {
          "indexed": true,
          "internalType": "address",
          "name": "_from",
          "type": "address"
        },
        {
          "indexed": true,
          "internalType": "address",
          "name": "_to",
          "type": "address"
        },
        {
          "indexed": true,
          "internalType": "uint256",
          "name": "_tokenId",
          "type": "uint256"
        }
      ],
      "name": "Transfer",
      "type": "event"
    },
    {
      "inputs": [
        {
          "internalType": "address",
          "name": "_approved",
          "type": "address"
        },
        {
          "internalType": "uint256",
          "name": "_tokenId",
          "type": "uint256"
        }
      ],
      "name": "approve",
      "outputs": [],
      "stateMutability": "nonpayable",
      "type": "function"
    },
    {
      "inputs": [
        {
          "internalType": "address",
          "name": "_owner",
          "type": "address"
        }
      ],
      "name": "balanceOf",
      "outputs": [
        {
          "internalType": "uint256",
          "name": "",
          "type": "uint256"
        }
      ],
      "stateMutability": "view",
      "type": "function",
      "constant": true
    },
    {
      "inputs": [
        {
          "internalType": "uint256",
          "name": "_tokenId",
          "type": "uint256"
        }
      ],
      "name": "getApproved",
      "outputs": [
        {
          "internalType": "address",
          "name": "",
          "type": "address"
        }
      ],
      "stateMutability": "view",
      "type": "function",
      "constant": true
    },
    {
      "inputs": [
        {
          "internalType": "address",
          "name": "_owner",
          "type": "address"
        },
        {
          "internalType": "address",
          "name": "_operator",
          "type": "address"
        }
      ],
      "name": "isApprovedForAll",
      "outputs": [
        {
          "internalType": "bool",
          "name": "",
          "type": "bool"
        }
      ],
      "stateMutability": "view",
      "type": "function",
      "constant": true
    },
    {
      "inputs": [],
      "name": "name",
      "outputs": [
        {
          "internalType": "string",
          "name": "_name",
          "type": "string"
        }
      ],
      "stateMutability": "view",
      "type": "function",
      "constant": true
    },
    {
      "inputs": [
        {
          "internalType": "uint256",
          "name": "_tokenId",
          "type": "uint256"
        }
      ],
      "name": "ownerOf",
      "outputs": [
        {
          "internalType": "address",
          "name": "_owner",
          "type": "address"
        }
      ],
      "stateMutability": "view",
      "type": "function",
      "constant": true
    },
    {
      "inputs": [
        {
          "internalType": "address",
          "name": "_from",
          "type": "address"
        },
        {
          "internalType": "address",
          "name": "_to",
          "type": "address"
        },
        {
          "internalType": "uint256",
          "name": "_tokenId",
          "type": "uint256"
        }
      ],
      "name": "safeTransferFrom",
      "outputs": [],
      "stateMutability": "nonpayable",
      "type": "function"
    },
    {
      "inputs": [
        {
          "internalType": "address",
          "name": "_from",
          "type": "address"
        },
        {
          "internalType": "address",
          "name": "_to",
          "type": "address"
        },
        {
          "internalType": "uint256",
          "name": "_tokenId",
          "type": "uint256"
        },
        {
          "internalType": "bytes",
          "name": "_data",
          "type": "bytes"
        }
      ],
      "name": "safeTransferFrom",
      "outputs": [],
      "stateMutability": "nonpayable",
      "type": "function"
    },
    {
      "inputs": [
        {
          "internalType": "address",
          "name": "_operator",
          "type": "address"
        },
        {
          "internalType": "bool",
          "name": "_approved",
          "type": "bool"
        }
      ],
      "name": "setApprovalForAll",
      "outputs": [],
      "stateMutability": "nonpayable",
      "type": "function"
    },
    {
      "inputs": [
        {
          "internalType": "bytes4",
          "name": "_interfaceID",
          "type": "bytes4"
        }
      ],
      "name": "supportsInterface",
      "outputs": [
        {
          "internalType": "bool",
          "name": "",
          "type": "bool"
        }
      ],
      "stateMutability": "view",
      "type": "function",
      "constant": true
    },
    {
      "inputs": [],
      "name": "symbol",
      "outputs": [
        {
          "internalType": "string",
          "name": "_symbol",
          "type": "string"
        }
      ],
      "stateMutability": "view",
      "type": "function",
      "constant": true
    },
    {
      "inputs": [
        {
          "internalType": "uint256",
          "name": "_tokenId",
          "type": "uint256"
        }
      ],
      "name": "tokenURI",
      "outputs": [
        {
          "internalType": "string",
          "name": "",
          "type": "string"
        }
      ],
      "stateMutability": "view",
      "type": "function",
      "constant": true
    },
    {
      "inputs": [
        {
          "internalType": "address",
          "name": "_from",
          "type": "address"
        },
        {
          "internalType": "address",
          "name": "_to",
          "type": "address"
        },
        {
          "internalType": "uint256",
          "name": "_tokenId",
          "type": "uint256"
        }
      ],
      "name": "transferFrom",
      "outputs": [],
      "stateMutability": "nonpayable",
      "type": "function"
    },
    {
      "inputs": [
        {
          "internalType": "address",
          "name": "_to",
          "type": "address"
        },
        {
          "internalType": "uint256",
          "name": "_tokenId",
          "type": "uint256"
        },
        {
          "internalType": "string",
          "name": "_uri",
          "type": "string"
        }
      ],
      "name": "mint",
      "outputs": [],
      "stateMutability": "nonpayable",
      "type": "function"
    },
    {
      "inputs": [
        {
          "internalType": "address",
          "name": "_from",
          "type": "address"
        },
        {
          "internalType": "address",
          "name": "_to",
          "type": "address"
        },
        {
          "internalType": "uint256",
          "name": "_tokenId",
          "type": "uint256"
        }
      ],
      "name": "transfer",
      "outputs": [],
      "stateMutability": "nonpayable",
      "type": "function"
    }
  ],
  "bytecode": "0x60806040523480156200001157600080fd5b5060016000806301ffc9a760e01b7bffffffffffffffffffffffffffffffffffffffffffffffffffffffff1916815260200190815260200160002060006101000a81548160ff02191690831515021790555060016000806380ac58cd60e01b7bffffffffffffffffffffffffffffffffffffffffffffffffffffffff1916815260200190815260200160002060006101000a81548160ff0219169083151502179055506001600080635b5e139f60e01b7bffffffffffffffffffffffffffffffffffffffffffffffffffffffff1916815260200190815260200160002060006101000a81548160ff0219169083151502179055506040518060400160405280600b81526020017f43727970746f6475636b73000000000000000000000000000000000000000000815250600590816200014b919062000454565b506040518060400160405280600381526020017f444b5300000000000000000000000000000000000000000000000000000000008152506006908162000192919062000454565b5033600860006101000a81548173ffffffffffffffffffffffffffffffffffffffff021916908373ffffffffffffffffffffffffffffffffffffffff1602179055506200053b565b600081519050919050565b7f4e487b7100000000000000000000000000000000000000000000000000000000600052604160045260246000fd5b7f4e487b7100000000000000000000000000000000000000000000000000000000600052602260045260246000fd5b600060028204905060018216806200025c57607f821691505b60208210810362000272576200027162000214565b5b50919050565b60008190508160005260206000209050919050565b60006020601f8301049050919050565b600082821b905092915050565b600060088302620002dc7fffffffffffffffffffffffffffffffffffffffffffffffffffffffffffffffff826200029d565b620002e886836200029d565b95508019841693508086168417925050509392505050565b6000819050919050565b6000819050919050565b6000620003356200032f620003298462000300565b6200030a565b62000300565b9050919050565b6000819050919050565b620003518362000314565b6200036962000360826200033c565b848454620002aa565b825550505050565b600090565b6200038062000371565b6200038d81848462000346565b505050565b5b81811015620003b557620003a960008262000376565b60018101905062000393565b5050565b601f8211156200040457620003ce8162000278565b620003d9846200028d565b81016020851015620003e9578190505b62000401620003f8856200028d565b83018262000392565b50505b505050565b600082821c905092915050565b6000620004296000198460080262000409565b1980831691505092915050565b600062000444838362000416565b9150826002028217905092915050565b6200045f82620001da565b67ffffffffffffffff8111156200047b576200047a620001e5565b5b62000487825462000243565b62000494828285620003b9565b600060209050601f831160018114620004cc5760008415620004b7578287015190505b620004c3858262000436565b86555062000533565b601f198416620004dc8662000278565b60005b828110156200050657848901518255600182019150602085019450602081019050620004df565b8683101562000526578489015162000522601f89168262000416565b8355505b6001600288020188555050505b505050505050565b612e3d806200054b6000396000f3fe608060405234801561001057600080fd5b50600436106100f55760003560e01c806370a0823111610097578063beabacc811610066578063beabacc814610282578063c87b56dd1461029e578063d3fc9864146102ce578063e985e9c5146102ea576100f5565b806370a08231146101fc57806395d89b411461022c578063a22cb4651461024a578063b88d4fde14610266576100f5565b8063095ea7b3116100d3578063095ea7b31461017857806323b872dd1461019457806342842e0e146101b05780636352211e146101cc576100f5565b806301ffc9a7146100fa57806306fdde031461012a578063081812fc14610148575b600080fd5b610114600480360381019061010f9190612408565b61031a565b6040516101219190612450565b60405180910390f35b610132610381565b60405161013f9190612504565b60405180910390f35b610162600480360381019061015d919061255c565b610413565b60405161016f91906125ca565b60405180910390f35b610192600480360381019061018d9190612611565b61052e565b005b6101ae60048036038101906101a99190612651565b610911565b005b6101ca60048036038101906101c59190612651565b610d63565b005b6101e660048036038101906101e1919061255c565b610d83565b6040516101f391906125ca565b60405180910390f35b610216600480360381019061021191906126a4565b610e69565b60405161022391906126e0565b60405180910390f35b610234610f23565b6040516102419190612504565b60405180910390f35b610264600480360381019061025f9190612727565b610fb5565b005b610280600480360381019061027b91906127cc565b6110b2565b005b61029c60048036038101906102979190612651565b611109565b005b6102b860048036038101906102b3919061255c565b6113a0565b6040516102c59190612504565b60405180910390f35b6102e860048036038101906102e391906128aa565b611490565b005b61030460048036038101906102ff919061291e565b611548565b6040516103119190612450565b60405180910390f35b6000806000837bffffffffffffffffffffffffffffffffffffffffffffffffffffffff19167bffffffffffffffffffffffffffffffffffffffffffffffffffffffff1916815260200190815260200160002060009054906101000a900460ff169050919050565b6060600580546103909061298d565b80601f01602080910402602001604051908101604052809291908181526020018280546103bc9061298d565b80156104095780601f106103de57610100808354040283529160200191610409565b820191906000526020600020905b8154815290600101906020018083116103ec57829003601f168201915b5050505050905090565b600081600073ffffffffffffffffffffffffffffffffffffffff166001600083815260200190815260200160002060009054906101000a900473ffffffffffffffffffffffffffffffffffffffff1673ffffffffffffffffffffffffffffffffffffffff1614156040518060400160405280600681526020017f3030333030320000000000000000000000000000000000000000000000000000815250906104f1576040517f08c379a00000000000000000000000000000000000000000000000000000000081526004016104e89190612504565b60405180910390fd5b506002600084815260200190815260200160002060009054906101000a900473ffffffffffffffffffffffffffffffffffffffff16915050919050565b8060006001600083815260200190815260200160002060009054906101000a900473ffffffffffffffffffffffffffffffffffffffff1690503373ffffffffffffffffffffffffffffffffffffffff168173ffffffffffffffffffffffffffffffffffffffff1614806106275750600460008273ffffffffffffffffffffffffffffffffffffffff1673ffffffffffffffffffffffffffffffffffffffff16815260200190815260200160002060003373ffffffffffffffffffffffffffffffffffffffff1673ffffffffffffffffffffffffffffffffffffffff16815260200190815260200160002060009054906101000a900460ff165b6040518060400160405280600681526020017f30303330303300000000000000000000000000000000000000000000000000008152509061069e576040517f08c379a00000000000000000000000000000000000000000000000000000000081526004016106959190612504565b60405180910390fd5b5082600073ffffffffffffffffffffffffffffffffffffffff166001600083815260200190815260200160002060009054906101000a900473ffffffffffffffffffffffffffffffffffffffff1673ffffffffffffffffffffffffffffffffffffffff1614156040518060400160405280600681526020017f30303330303200000000000000000000000000000000000000000000000000008152509061077b576040517f08c379a00000000000000000000000000000000000000000000000000000000081526004016107729190612504565b60405180910390fd5b5060006001600086815260200190815260200160002060009054906101000a900473ffffffffffffffffffffffffffffffffffffffff1690508073ffffffffffffffffffffffffffffffffffffffff168673ffffffffffffffffffffffffffffffffffffffff1614156040518060400160405280600681526020017f30303330303800000000000000000000000000000000000000000000000000008152509061085b576040517f08c379a00000000000000000000000000000000000000000000000000000000081526004016108529190612504565b60405180910390fd5b50856002600087815260200190815260200160002060006101000a81548173ffffffffffffffffffffffffffffffffffffffff021916908373ffffffffffffffffffffffffffffffffffffffff160217905550848673ffffffffffffffffffffffffffffffffffffffff168273ffffffffffffffffffffffffffffffffffffffff167f8c5be1e5ebec7d5bd14f71427d1e84f3dd0314c0f7b2291e5b200ac8c7c3b92560405160405180910390a4505050505050565b8060006001600083815260200190815260200160002060009054906101000a900473ffffffffffffffffffffffffffffffffffffffff1690503373ffffffffffffffffffffffffffffffffffffffff168173ffffffffffffffffffffffffffffffffffffffff1614806109e257503373ffffffffffffffffffffffffffffffffffffffff166002600084815260200190815260200160002060009054906101000a900473ffffffffffffffffffffffffffffffffffffffff1673ffffffffffffffffffffffffffffffffffffffff16145b80610a735750600460008273ffffffffffffffffffffffffffffffffffffffff1673ffffffffffffffffffffffffffffffffffffffff16815260200190815260200160002060003373ffffffffffffffffffffffffffffffffffffffff1673ffffffffffffffffffffffffffffffffffffffff16815260200190815260200160002060009054906101000a900460ff165b6040518060400160405280600681526020017f303033303034000000000000000000000000000000000000000000000000000081525090610aea576040517f08c379a0000000000000000000000000000000000000000000000000000000008152600401610ae19190612504565b60405180910390fd5b5082600073ffffffffffffffffffffffffffffffffffffffff166001600083815260200190815260200160002060009054906101000a900473ffffffffffffffffffffffffffffffffffffffff1673ffffffffffffffffffffffffffffffffffffffff1614156040518060400160405280600681526020017f303033303032000000000000000000000000000000000000000000000000000081525090610bc7576040517f08c379a0000000000000000000000000000000000000000000000000000000008152600401610bbe9190612504565b60405180910390fd5b5060006001600086815260200190815260200160002060009054906101000a900473ffffffffffffffffffffffffffffffffffffffff1690508673ffffffffffffffffffffffffffffffffffffffff168173ffffffffffffffffffffffffffffffffffffffff16146040518060400160405280600681526020017f303033303037000000000000000000000000000000000000000000000000000081525090610ca6576040517f08c379a0000000000000000000000000000000000000000000000000000000008152600401610c9d9190612504565b60405180910390fd5b50600073ffffffffffffffffffffffffffffffffffffffff168673ffffffffffffffffffffffffffffffffffffffff1614156040518060400160405280600681526020017f303033303031000000000000000000000000000000000000000000000000000081525090610d4f576040517f08c379a0000000000000000000000000000000000000000000000000000000008152600401610d469190612504565b60405180910390fd5b50610d5a86866115dc565b50505050505050565b610d7e83838360405180602001604052806000815250611691565b505050565b60006001600083815260200190815260200160002060009054906101000a900473ffffffffffffffffffffffffffffffffffffffff169050600073ffffffffffffffffffffffffffffffffffffffff168173ffffffffffffffffffffffffffffffffffffffff1614156040518060400160405280600681526020017f303033303032000000000000000000000000000000000000000000000000000081525090610e63576040517f08c379a0000000000000000000000000000000000000000000000000000000008152600401610e5a9190612504565b60405180910390fd5b50919050565b60008073ffffffffffffffffffffffffffffffffffffffff168273ffffffffffffffffffffffffffffffffffffffff1614156040518060400160405280600681526020017f303033303031000000000000000000000000000000000000000000000000000081525090610f12576040517f08c379a0000000000000000000000000000000000000000000000000000000008152600401610f099190612504565b60405180910390fd5b50610f1c82611c50565b9050919050565b606060068054610f329061298d565b80601f0160208091040260200160405190810160405280929190818152602001828054610f5e9061298d565b8015610fab5780601f10610f8057610100808354040283529160200191610fab565b820191906000526020600020905b815481529060010190602001808311610f8e57829003601f168201915b5050505050905090565b80600460003373ffffffffffffffffffffffffffffffffffffffff1673ffffffffffffffffffffffffffffffffffffffff16815260200190815260200160002060008473ffffffffffffffffffffffffffffffffffffffff1673ffffffffffffffffffffffffffffffffffffffff16815260200190815260200160002060006101000a81548160ff0219169083151502179055508173ffffffffffffffffffffffffffffffffffffffff163373ffffffffffffffffffffffffffffffffffffffff167f17307eab39ab6107e8899845ad3d59bd9653f200f220920489ca2b5937696c31836040516110a69190612450565b60405180910390a35050565b61110285858585858080601f016020809104026020016040519081016040528093929190818152602001838380828437600081840152601f19601f82011690508083019250505050505050611691565b5050505050565b60006001600083815260200190815260200160002060009054906101000a900473ffffffffffffffffffffffffffffffffffffffff1690508373ffffffffffffffffffffffffffffffffffffffff163273ffffffffffffffffffffffffffffffffffffffff1614806111c85750600860009054906101000a900473ffffffffffffffffffffffffffffffffffffffff1673ffffffffffffffffffffffffffffffffffffffff163273ffffffffffffffffffffffffffffffffffffffff16145b6040518060400160405280600681526020017f30303330303400000000000000000000000000000000000000000000000000008152509061123f576040517f08c379a00000000000000000000000000000000000000000000000000000000081526004016112369190612504565b60405180910390fd5b508373ffffffffffffffffffffffffffffffffffffffff168173ffffffffffffffffffffffffffffffffffffffff16146040518060400160405280600681526020017f3030333030370000000000000000000000000000000000000000000000000000815250906112e6576040517f08c379a00000000000000000000000000000000000000000000000000000000081526004016112dd9190612504565b60405180910390fd5b50600073ffffffffffffffffffffffffffffffffffffffff168373ffffffffffffffffffffffffffffffffffffffff1614156040518060400160405280600681526020017f30303330303100000000000000000000000000000000000000000000000000008152509061138f576040517f08c379a00000000000000000000000000000000000000000000000000000000081526004016113869190612504565b60405180910390fd5b5061139a83836115dc565b50505050565b606081600073ffffffffffffffffffffffffffffffffffffffff166001600083815260200190815260200160002060009054906101000a900473ffffffffffffffffffffffffffffffffffffffff1673ffffffffffffffffffffffffffffffffffffffff1614156040518060400160405280600681526020017f30303330303200000000000000000000000000000000000000000000000000008152509061147e576040517f08c379a00000000000000000000000000000000000000000000000000000000081526004016114759190612504565b60405180910390fd5b5061148883611c99565b915050919050565b600860009054906101000a900473ffffffffffffffffffffffffffffffffffffffff1673ffffffffffffffffffffffffffffffffffffffff163273ffffffffffffffffffffffffffffffffffffffff16146114ea57600080fd5b6114f48484611d3e565b6115428383838080601f016020809104026020016040519081016040528093929190818152602001838380828437600081840152601f19601f82011690508083019250505050505050611f2c565b50505050565b6000600460008473ffffffffffffffffffffffffffffffffffffffff1673ffffffffffffffffffffffffffffffffffffffff16815260200190815260200160002060008373ffffffffffffffffffffffffffffffffffffffff1673ffffffffffffffffffffffffffffffffffffffff16815260200190815260200160002060009054906101000a900460ff16905092915050565b60006001600083815260200190815260200160002060009054906101000a900473ffffffffffffffffffffffffffffffffffffffff16905061161d8261202f565b6116278183612068565b61163183836121d3565b818373ffffffffffffffffffffffffffffffffffffffff168273ffffffffffffffffffffffffffffffffffffffff167fddf252ad1be2c89b69c2b068fc378daa952ba7f163c4a11628f55a4df523b3ef60405160405180910390a4505050565b8160006001600083815260200190815260200160002060009054906101000a900473ffffffffffffffffffffffffffffffffffffffff1690503373ffffffffffffffffffffffffffffffffffffffff168173ffffffffffffffffffffffffffffffffffffffff16148061176257503373ffffffffffffffffffffffffffffffffffffffff166002600084815260200190815260200160002060009054906101000a900473ffffffffffffffffffffffffffffffffffffffff1673ffffffffffffffffffffffffffffffffffffffff16145b806117f35750600460008273ffffffffffffffffffffffffffffffffffffffff1673ffffffffffffffffffffffffffffffffffffffff16815260200190815260200160002060003373ffffffffffffffffffffffffffffffffffffffff1673ffffffffffffffffffffffffffffffffffffffff16815260200190815260200160002060009054906101000a900460ff165b6040518060400160405280600681526020017f30303330303400000000000000000000000000000000000000000000000000008152509061186a576040517f08c379a00000000000000000000000000000000000000000000000000000000081526004016118619190612504565b60405180910390fd5b5083600073ffffffffffffffffffffffffffffffffffffffff166001600083815260200190815260200160002060009054906101000a900473ffffffffffffffffffffffffffffffffffffffff1673ffffffffffffffffffffffffffffffffffffffff1614156040518060400160405280600681526020017f303033303032000000000000000000000000000000000000000000000000000081525090611947576040517f08c379a000000000000000000000000000000000000000000000000000000000815260040161193e9190612504565b60405180910390fd5b5060006001600087815260200190815260200160002060009054906101000a900473ffffffffffffffffffffffffffffffffffffffff1690508773ffffffffffffffffffffffffffffffffffffffff168173ffffffffffffffffffffffffffffffffffffffff16146040518060400160405280600681526020017f303033303037000000000000000000000000000000000000000000000000000081525090611a26576040517f08c379a0000000000000000000000000000000000000000000000000000000008152600401611a1d9190612504565b60405180910390fd5b50600073ffffffffffffffffffffffffffffffffffffffff168773ffffffffffffffffffffffffffffffffffffffff1614156040518060400160405280600681526020017f303033303031000000000000000000000000000000000000000000000000000081525090611acf576040517f08c379a0000000000000000000000000000000000000000000000000000000008152600401611ac69190612504565b60405180910390fd5b50611ada87876115dc565b611af98773ffffffffffffffffffffffffffffffffffffffff1661235b565b15611c465760008773ffffffffffffffffffffffffffffffffffffffff1663150b7a02338b8a8a6040518563ffffffff1660e01b8152600401611b3f9493929190612a13565b6020604051808303816000875af1158015611b5e573d6000803e3d6000fd5b505050506040513d601f19601f82011682018060405250810190611b829190612a74565b905063150b7a0260e01b7bffffffffffffffffffffffffffffffffffffffffffffffffffffffff1916817bffffffffffffffffffffffffffffffffffffffffffffffffffffffff1916146040518060400160405280600681526020017f303033303035000000000000000000000000000000000000000000000000000081525090611c43576040517f08c379a0000000000000000000000000000000000000000000000000000000008152600401611c3a9190612504565b60405180910390fd5b50505b5050505050505050565b6000600360008373ffffffffffffffffffffffffffffffffffffffff1673ffffffffffffffffffffffffffffffffffffffff168152602001908152602001600020549050919050565b6060600760008381526020019081526020016000208054611cb99061298d565b80601f0160208091040260200160405190810160405280929190818152602001828054611ce59061298d565b8015611d325780601f10611d0757610100808354040283529160200191611d32565b820191906000526020600020905b815481529060010190602001808311611d1557829003601f168201915b50505050509050919050565b600073ffffffffffffffffffffffffffffffffffffffff168273ffffffffffffffffffffffffffffffffffffffff1614156040518060400160405280600681526020017f303033303031000000000000000000000000000000000000000000000000000081525090611de6576040517f08c379a0000000000000000000000000000000000000000000000000000000008152600401611ddd9190612504565b60405180910390fd5b50600073ffffffffffffffffffffffffffffffffffffffff166001600083815260200190815260200160002060009054906101000a900473ffffffffffffffffffffffffffffffffffffffff1673ffffffffffffffffffffffffffffffffffffffff16146040518060400160405280600681526020017f303033303036000000000000000000000000000000000000000000000000000081525090611ec1576040517f08c379a0000000000000000000000000000000000000000000000000000000008152600401611eb89190612504565b60405180910390fd5b50611ecc82826121d3565b808273ffffffffffffffffffffffffffffffffffffffff16600073ffffffffffffffffffffffffffffffffffffffff167fddf252ad1be2c89b69c2b068fc378daa952ba7f163c4a11628f55a4df523b3ef60405160405180910390a45050565b81600073ffffffffffffffffffffffffffffffffffffffff166001600083815260200190815260200160002060009054906101000a900473ffffffffffffffffffffffffffffffffffffffff1673ffffffffffffffffffffffffffffffffffffffff1614156040518060400160405280600681526020017f303033303032000000000000000000000000000000000000000000000000000081525090612008576040517f08c379a0000000000000000000000000000000000000000000000000000000008152600401611fff9190612504565b60405180910390fd5b50816007600085815260200190815260200160002090816120299190612c7c565b50505050565b6002600082815260200190815260200160002060006101000a81549073ffffffffffffffffffffffffffffffffffffffff021916905550565b8173ffffffffffffffffffffffffffffffffffffffff166001600083815260200190815260200160002060009054906101000a900473ffffffffffffffffffffffffffffffffffffffff1673ffffffffffffffffffffffffffffffffffffffff16146040518060400160405280600681526020017f303033303037000000000000000000000000000000000000000000000000000081525090612141576040517f08c379a00000000000000000000000000000000000000000000000000000000081526004016121389190612504565b60405180910390fd5b506001600360008473ffffffffffffffffffffffffffffffffffffffff1673ffffffffffffffffffffffffffffffffffffffff16815260200190815260200160002060008282546121929190612d7d565b925050819055506001600082815260200190815260200160002060006101000a81549073ffffffffffffffffffffffffffffffffffffffff02191690555050565b600073ffffffffffffffffffffffffffffffffffffffff166001600083815260200190815260200160002060009054906101000a900473ffffffffffffffffffffffffffffffffffffffff1673ffffffffffffffffffffffffffffffffffffffff16146040518060400160405280600681526020017f3030333030360000000000000000000000000000000000000000000000000000815250906122ad576040517f08c379a00000000000000000000000000000000000000000000000000000000081526004016122a49190612504565b60405180910390fd5b50816001600083815260200190815260200160002060006101000a81548173ffffffffffffffffffffffffffffffffffffffff021916908373ffffffffffffffffffffffffffffffffffffffff1602179055506001600360008473ffffffffffffffffffffffffffffffffffffffff1673ffffffffffffffffffffffffffffffffffffffff16815260200190815260200160002060008282546123509190612db1565b925050819055505050565b60008060007fc5d2460186f7233c927e7db2dcc703c0e500b653ca82273b7bfad8045d85a47060001b9050833f91506000801b821415801561239d5750808214155b92505050919050565b600080fd5b600080fd5b60007fffffffff0000000000000000000000000000000000000000000000000000000082169050919050565b6123e5816123b0565b81146123f057600080fd5b50565b600081359050612402816123dc565b92915050565b60006020828403121561241e5761241d6123a6565b5b600061242c848285016123f3565b91505092915050565b60008115159050919050565b61244a81612435565b82525050565b60006020820190506124656000830184612441565b92915050565b600081519050919050565b600082825260208201905092915050565b60005b838110156124a557808201518184015260208101905061248a565b838111156124b4576000848401525b50505050565b6000601f19601f8301169050919050565b60006124d68261246b565b6124e08185612476565b93506124f0818560208601612487565b6124f9816124ba565b840191505092915050565b6000602082019050818103600083015261251e81846124cb565b905092915050565b6000819050919050565b61253981612526565b811461254457600080fd5b50565b60008135905061255681612530565b92915050565b600060208284031215612572576125716123a6565b5b600061258084828501612547565b91505092915050565b600073ffffffffffffffffffffffffffffffffffffffff82169050919050565b60006125b482612589565b9050919050565b6125c4816125a9565b82525050565b60006020820190506125df60008301846125bb565b92915050565b6125ee816125a9565b81146125f957600080fd5b50565b60008135905061260b816125e5565b92915050565b60008060408385031215612628576126276123a6565b5b6000612636858286016125fc565b925050602061264785828601612547565b9150509250929050565b60008060006060848603121561266a576126696123a6565b5b6000612678868287016125fc565b9350506020612689868287016125fc565b925050604061269a86828701612547565b9150509250925092565b6000602082840312156126ba576126b96123a6565b5b60006126c8848285016125fc565b91505092915050565b6126da81612526565b82525050565b60006020820190506126f560008301846126d1565b92915050565b61270481612435565b811461270f57600080fd5b50565b600081359050612721816126fb565b92915050565b6000806040838503121561273e5761273d6123a6565b5b600061274c858286016125fc565b925050602061275d85828601612712565b9150509250929050565b600080fd5b600080fd5b600080fd5b60008083601f84011261278c5761278b612767565b5b8235905067ffffffffffffffff8111156127a9576127a861276c565b5b6020830191508360018202830111156127c5576127c4612771565b5b9250929050565b6000806000806000608086880312156127e8576127e76123a6565b5b60006127f6888289016125fc565b9550506020612807888289016125fc565b945050604061281888828901612547565b935050606086013567ffffffffffffffff811115612839576128386123ab565b5b61284588828901612776565b92509250509295509295909350565b60008083601f84011261286a57612869612767565b5b8235905067ffffffffffffffff8111156128875761288661276c565b5b6020830191508360018202830111156128a3576128a2612771565b5b9250929050565b600080600080606085870312156128c4576128c36123a6565b5b60006128d2878288016125fc565b94505060206128e387828801612547565b935050604085013567ffffffffffffffff811115612904576129036123ab565b5b61291087828801612854565b925092505092959194509250565b60008060408385031215612935576129346123a6565b5b6000612943858286016125fc565b9250506020612954858286016125fc565b9150509250929050565b7f4e487b7100000000000000000000000000000000000000000000000000000000600052602260045260246000fd5b600060028204905060018216806129a557607f821691505b6020821081036129b8576129b761295e565b5b50919050565b600081519050919050565b600082825260208201905092915050565b60006129e5826129be565b6129ef81856129c9565b93506129ff818560208601612487565b612a08816124ba565b840191505092915050565b6000608082019050612a2860008301876125bb565b612a3560208301866125bb565b612a4260408301856126d1565b8181036060830152612a5481846129da565b905095945050505050565b600081519050612a6e816123dc565b92915050565b600060208284031215612a8a57612a896123a6565b5b6000612a9884828501612a5f565b91505092915050565b7f4e487b7100000000000000000000000000000000000000000000000000000000600052604160045260246000fd5b60008190508160005260206000209050919050565b60006020601f8301049050919050565b600082821b905092915050565b600060088302612b327fffffffffffffffffffffffffffffffffffffffffffffffffffffffffffffffff82612af5565b612b3c8683612af5565b95508019841693508086168417925050509392505050565b6000819050919050565b6000612b79612b74612b6f84612526565b612b54565b612526565b9050919050565b6000819050919050565b612b9383612b5e565b612ba7612b9f82612b80565b848454612b02565b825550505050565b600090565b612bbc612baf565b612bc7818484612b8a565b505050565b5b81811015612beb57612be0600082612bb4565b600181019050612bcd565b5050565b601f821115612c3057612c0181612ad0565b612c0a84612ae5565b81016020851015612c19578190505b612c2d612c2585612ae5565b830182612bcc565b50505b505050565b600082821c905092915050565b6000612c5360001984600802612c35565b1980831691505092915050565b6000612c6c8383612c42565b9150826002028217905092915050565b612c858261246b565b67ffffffffffffffff811115612c9e57612c9d612aa1565b5b612ca8825461298d565b612cb3828285612bef565b600060209050601f831160018114612ce65760008415612cd4578287015190505b612cde8582612c60565b865550612d46565b601f198416612cf486612ad0565b60005b82811015612d1c57848901518255600182019150602085019450602081019050612cf7565b86831015612d395784890151612d35601f891682612c42565b8355505b6001600288020188555050505b505050505050565b7f4e487b7100000000000000000000000000000000000000000000000000000000600052601160045260246000fd5b6000612d8882612526565b9150612d9383612526565b925082821015612da657612da5612d4e565b5b828203905092915050565b6000612dbc82612526565b9150612dc783612526565b9250827fffffffffffffffffffffffffffffffffffffffffffffffffffffffffffffffff03821115612dfc57612dfb612d4e565b5b82820190509291505056fea2646970667358221220f75d516c33fde1958a667109d1a33715ffa408d37ddfd09b4b8fdae39ab372bf64736f6c634300080f0033",
  "immutableReferences": {},
  "source": "// SPDX-License-Identifier: MIT\npragma solidity ^0.8.0;\n\nimport \"./nf-token-metadata.sol\";\n\n/**\n * @dev This is an example contract implementation of NFToken with metadata extension.\n */\ncontract Cryptoducks is NFTokenMetadata {\n    address owner;\n\n    /**\n     * @dev Contract constructor. Sets metadata extension `name` and `symbol`.\n     */\n    constructor() {\n        nftName = \"Cryptoducks\";\n        nftSymbol = \"DKS\";\n        owner = msg.sender;\n    }\n\n    /* \n  tx.origin instead of msg.sender because i will call this contract \n  from another contract, so i want the original address of the call\n  */\n    modifier onlyOwner() {\n        require(tx.origin == owner);\n        _;\n    }\n\n    /**\n     * @dev Mints a new NFT.\n     * @param _to The address that will own the minted NFT.\n     * @param _tokenId of the NFT to be minted by the msg.sender.\n     * @param _uri String representing RFC 3986 URI.\n     */\n    function mint(\n        address _to,\n        uint256 _tokenId,\n        string calldata _uri\n    ) external onlyOwner {\n        super._mint(_to, _tokenId);\n        super._setTokenUri(_tokenId, _uri);\n    }\n\n    function transfer(\n        address _from,\n        address _to,\n        uint256 _tokenId\n    ) external {\n        address tokenOwner = idToOwner[_tokenId];\n        require(\n            tx.origin == _from || tx.origin == owner,\n            NOT_OWNER_APPROVED_OR_OPERATOR\n        );\n        require(tokenOwner == _from, NOT_OWNER);\n        require(_to != address(0), ZERO_ADDRESS);\n\n        super._transfer(_to, _tokenId);\n    }\n}\n",
  "sourcePath": "/Users/antoniopace/Desktop/Lottery-dAPP/contracts/cryptoducks.sol",
  "compiler": {
    "name": "solc",
    "version": "0.8.15+commit.e14f2714.Emscripten.clang"
  },
  "schemaVersion": "3.4.8",
  "updatedAt": "2023-03-11T13:41:50.788Z",
  "networkType": "ethereum",
  "devdoc": {
    "details": "This is an example contract implementation of NFToken with metadata extension.",
    "kind": "dev",
    "methods": {
      "approve(address,uint256)": {
        "details": "Set or reaffirm the approved address for an NFT. This function can be changed to payable.",
        "params": {
          "_approved": "Address to be approved for the given NFT ID.",
          "_tokenId": "ID of the token to be approved."
        }
      },
      "balanceOf(address)": {
        "details": "Returns the number of NFTs owned by `_owner`. NFTs assigned to the zero address are considered invalid, and this function throws for queries about the zero address.",
        "params": {
          "_owner": "Address for whom to query the balance."
        },
        "returns": {
          "_0": "Balance of _owner."
        }
      },
      "constructor": {
        "details": "Contract constructor. Sets metadata extension `name` and `symbol`."
      },
      "getApproved(uint256)": {
        "details": "Get the approved address for a single NFT.",
        "params": {
          "_tokenId": "ID of the NFT to query the approval of."
        },
        "returns": {
          "_0": "Address that _tokenId is approved for."
        }
      },
      "isApprovedForAll(address,address)": {
        "details": "Checks if `_operator` is an approved operator for `_owner`.",
        "params": {
          "_operator": "The address that acts on behalf of the owner.",
          "_owner": "The address that owns the NFTs."
        },
        "returns": {
          "_0": "True if approved for all, false otherwise."
        }
      },
      "mint(address,uint256,string)": {
        "details": "Mints a new NFT.",
        "params": {
          "_to": "The address that will own the minted NFT.",
          "_tokenId": "of the NFT to be minted by the msg.sender.",
          "_uri": "String representing RFC 3986 URI."
        }
      },
      "name()": {
        "details": "Returns a descriptive name for a collection of NFTokens.",
        "returns": {
          "_name": "Representing name."
        }
      },
      "ownerOf(uint256)": {
        "details": "Returns the address of the owner of the NFT. NFTs assigned to the zero address are considered invalid, and queries about them do throw.",
        "params": {
          "_tokenId": "The identifier for an NFT."
        },
        "returns": {
          "_owner": "Address of _tokenId owner."
        }
      },
      "safeTransferFrom(address,address,uint256)": {
        "details": "Transfers the ownership of an NFT from one address to another address. This function can be changed to payable.",
        "params": {
          "_from": "The current owner of the NFT.",
          "_to": "The new owner.",
          "_tokenId": "The NFT to transfer."
        }
      },
      "safeTransferFrom(address,address,uint256,bytes)": {
        "details": "Transfers the ownership of an NFT from one address to another address. This function can be changed to payable.",
        "params": {
          "_data": "Additional data with no specified format, sent in call to `_to`.",
          "_from": "The current owner of the NFT.",
          "_to": "The new owner.",
          "_tokenId": "The NFT to transfer."
        }
      },
      "setApprovalForAll(address,bool)": {
        "details": "Enables or disables approval for a third party (\"operator\") to manage all of `msg.sender`'s assets. It also emits the ApprovalForAll event.",
        "params": {
          "_approved": "True if the operators is approved, false to revoke approval.",
          "_operator": "Address to add to the set of authorized operators."
        }
      },
      "supportsInterface(bytes4)": {
        "details": "Function to check which interfaces are suported by this contract.",
        "params": {
          "_interfaceID": "Id of the interface."
        },
        "returns": {
          "_0": "True if _interfaceID is supported, false otherwise."
        }
      },
      "symbol()": {
        "details": "Returns an abbreviated name for NFTokens.",
        "returns": {
          "_symbol": "Representing symbol."
        }
      },
      "tokenURI(uint256)": {
        "details": "A distinct URI (RFC 3986) for a given NFT.",
        "params": {
          "_tokenId": "Id for which we want uri."
        },
        "returns": {
          "_0": "URI of _tokenId."
        }
      },
      "transferFrom(address,address,uint256)": {
        "details": "Throws unless `msg.sender` is the current owner, an authorized operator, or the approved address for this NFT. Throws if `_from` is not the current owner. Throws if `_to` is the zero address. Throws if `_tokenId` is not a valid NFT. This function can be changed to payable.",
        "params": {
          "_from": "The current owner of the NFT.",
          "_to": "The new owner.",
          "_tokenId": "The NFT to transfer."
        }
      }
    },
    "version": 1
  },
  "userdoc": {
    "kind": "user",
    "methods": {
      "approve(address,uint256)": {
        "notice": "The zero address indicates there is no approved address. Throws unless `msg.sender` is the current NFT owner, or an authorized operator of the current owner."
      },
      "getApproved(uint256)": {
        "notice": "Throws if `_tokenId` is not a valid NFT."
      },
      "safeTransferFrom(address,address,uint256)": {
        "notice": "This works identically to the other function with an extra data parameter, except this function just sets data to \"\"."
      },
      "safeTransferFrom(address,address,uint256,bytes)": {
        "notice": "Throws unless `msg.sender` is the current owner, an authorized operator, or the approved address for this NFT. Throws if `_from` is not the current owner. Throws if `_to` is the zero address. Throws if `_tokenId` is not a valid NFT. When transfer is complete, this function checks if `_to` is a smart contract (code size > 0). If so, it calls `onERC721Received` on `_to` and throws if the return value is not `bytes4(keccak256(\"onERC721Received(address,uint256,bytes)\"))`."
      },
      "setApprovalForAll(address,bool)": {
        "notice": "This works even if sender doesn't own any tokens at the time."
      },
      "transferFrom(address,address,uint256)": {
        "notice": "The caller is responsible to confirm that `_to` is capable of receiving NFTs or else they may be permanently lost."
      }
    },
    "version": 1
  }
}