{
  "contractName": "LotteryTry",
  "abi": [
    {
      "inputs": [
        {
          "internalType": "address",
          "name": "addr",
          "type": "address"
        }
      ],
      "stateMutability": "nonpayable",
      "type": "constructor"
    },
    {
      "anonymous": false,
      "inputs": [
        {
          "indexed": false,
          "internalType": "bool",
          "name": "created",
          "type": "bool"
        }
      ],
      "name": "LotteryCreated",
      "type": "event"
    },
    {
      "anonymous": false,
      "inputs": [
        {
          "components": [
            {
              "internalType": "address",
              "name": "addr",
              "type": "address"
            },
            {
              "internalType": "uint256[6]",
              "name": "ticket",
              "type": "uint256[6]"
            }
          ],
          "indexed": false,
          "internalType": "struct LotteryTry.Player[]",
          "name": "players",
          "type": "tuple[]"
        }
      ],
      "name": "Players",
      "type": "event"
    },
    {
      "anonymous": false,
      "inputs": [
        {
          "indexed": false,
          "internalType": "address",
          "name": "addr",
          "type": "address"
        },
        {
          "indexed": false,
          "internalType": "string",
          "name": "uri",
          "type": "string"
        },
        {
          "indexed": false,
          "internalType": "uint256",
          "name": "class",
          "type": "uint256"
        }
      ],
      "name": "Prize",
      "type": "event"
    },
    {
      "anonymous": false,
      "inputs": [
        {
          "indexed": false,
          "internalType": "uint256",
          "name": "balance",
          "type": "uint256"
        }
      ],
      "name": "Revenues",
      "type": "event"
    },
    {
      "anonymous": false,
      "inputs": [
        {
          "indexed": false,
          "internalType": "bool",
          "name": "round_state",
          "type": "bool"
        }
      ],
      "name": "RoundState",
      "type": "event"
    },
    {
      "anonymous": false,
      "inputs": [
        {
          "indexed": false,
          "internalType": "uint256[6]",
          "name": "_ticket",
          "type": "uint256[6]"
        }
      ],
      "name": "Ticket",
      "type": "event"
    },
    {
      "anonymous": false,
      "inputs": [
        {
          "indexed": false,
          "internalType": "uint256[6]",
          "name": "_ticket",
          "type": "uint256[6]"
        }
      ],
      "name": "WinningTicket",
      "type": "event"
    },
    {
      "inputs": [],
      "name": "lotteryUp",
      "outputs": [
        {
          "internalType": "bool",
          "name": "",
          "type": "bool"
        }
      ],
      "stateMutability": "view",
      "type": "function",
      "constant": true
    },
    {
      "inputs": [],
      "name": "manager",
      "outputs": [
        {
          "internalType": "address",
          "name": "",
          "type": "address"
        }
      ],
      "stateMutability": "view",
      "type": "function",
      "constant": true
    },
    {
      "inputs": [
        {
          "internalType": "uint256",
          "name": "",
          "type": "uint256"
        }
      ],
      "name": "players",
      "outputs": [
        {
          "internalType": "address",
          "name": "addr",
          "type": "address"
        }
      ],
      "stateMutability": "view",
      "type": "function",
      "constant": true
    },
    {
      "inputs": [
        {
          "internalType": "uint256",
          "name": "",
          "type": "uint256"
        }
      ],
      "name": "winnerNumbers",
      "outputs": [
        {
          "internalType": "uint256",
          "name": "",
          "type": "uint256"
        }
      ],
      "stateMutability": "view",
      "type": "function",
      "constant": true
    },
    {
      "inputs": [
        {
          "internalType": "uint256",
          "name": "m",
          "type": "uint256"
        }
      ],
      "name": "createLottery",
      "outputs": [],
      "stateMutability": "nonpayable",
      "type": "function"
    },
    {
      "inputs": [],
      "name": "startNewRound",
      "outputs": [],
      "stateMutability": "nonpayable",
      "type": "function"
    },
    {
      "inputs": [
        {
          "internalType": "uint256[6]",
          "name": "ticket",
          "type": "uint256[6]"
        }
      ],
      "name": "buy",
      "outputs": [],
      "stateMutability": "payable",
      "type": "function",
      "payable": true
    },
    {
      "inputs": [],
      "name": "drawNumbers",
      "outputs": [],
      "stateMutability": "nonpayable",
      "type": "function"
    },
    {
      "inputs": [],
      "name": "givePrizes",
      "outputs": [],
      "stateMutability": "nonpayable",
      "type": "function"
    },
    {
      "inputs": [
        {
          "internalType": "address",
          "name": "addr",
          "type": "address"
        }
      ],
      "name": "withdraw",
      "outputs": [],
      "stateMutability": "nonpayable",
      "type": "function"
    },
    {
      "inputs": [],
      "name": "closeLottery",
      "outputs": [],
      "stateMutability": "nonpayable",
      "type": "function"
    },
    {
      "inputs": [
        {
          "internalType": "address",
          "name": "_to",
          "type": "address"
        },
        {
          "internalType": "uint256",
          "name": "_tokenId",
          "type": "uint256"
        },
        {
          "internalType": "string",
          "name": "_uri",
          "type": "string"
        },
        {
          "internalType": "uint256",
          "name": "class",
          "type": "uint256"
        }
      ],
      "name": "mintDKS",
      "outputs": [],
      "stateMutability": "nonpayable",
      "type": "function"
    },
    {
      "inputs": [],
      "name": "getRoundState",
      "outputs": [
        {
          "internalType": "bool",
          "name": "",
          "type": "bool"
        }
      ],
      "stateMutability": "view",
      "type": "function",
      "constant": true
    }
  ],
  "bytecode": "0x60806040523480156200001157600080fd5b5060405162002eb538038062002eb5833981810160405281019062000037919062000129565b80600d60006101000a81548173ffffffffffffffffffffffffffffffffffffffff021916908373ffffffffffffffffffffffffffffffffffffffff160217905550336000806101000a81548173ffffffffffffffffffffffffffffffffffffffff021916908373ffffffffffffffffffffffffffffffffffffffff160217905550506200015b565b600080fd5b600073ffffffffffffffffffffffffffffffffffffffff82169050919050565b6000620000f182620000c4565b9050919050565b6200010381620000e4565b81146200010f57600080fd5b50565b6000815190506200012381620000f8565b92915050565b600060208284031215620001425762000141620000bf565b5b6000620001528482850162000112565b91505092915050565b612d4a806200016b6000396000f3fe6080604052600436106100c25760003560e01c80636fd098161161007f578063a8d8820211610059578063a8d88202146101fb578063bd85948c14610238578063f2d447091461024f578063f71d96cb14610278576100c2565b80636fd098161461019f5780638dd8c56d146101b6578063a8bd5634146101df576100c2565b806306d5ee54146100c7578063293c2958146100de57806343a2828a14610109578063481c6a751461013457806351cff8d91461015f578063676c902f14610188575b600080fd5b3480156100d357600080fd5b506100dc6102b5565b005b3480156100ea57600080fd5b506100f36108e8565b6040516101009190611a70565b60405180910390f35b34801561011557600080fd5b5061011e610902565b60405161012b9190611a70565b60405180910390f35b34801561014057600080fd5b50610149610915565b6040516101569190611acc565b60405180910390f35b34801561016b57600080fd5b5061018660048036038101906101819190611b27565b610939565b005b34801561019457600080fd5b5061019d610a12565b005b3480156101ab57600080fd5b506101b4610c90565b005b3480156101c257600080fd5b506101dd60048036038101906101d89190611b8a565b610dd4565b005b6101f960048036038101906101f49190611cfe565b610f39565b005b34801561020757600080fd5b50610222600480360381019061021d9190611b8a565b61136c565b60405161022f9190611d3a565b60405180910390f35b34801561024457600080fd5b5061024d611387565b005b34801561025b57600080fd5b5061027660048036038101906102719190611e0a565b6114fd565b005b34801561028457600080fd5b5061029f600480360381019061029a9190611b8a565b61167f565b6040516102ac9190611acc565b60405180910390f35b60008054906101000a900473ffffffffffffffffffffffffffffffffffffffff1673ffffffffffffffffffffffffffffffffffffffff163373ffffffffffffffffffffffffffffffffffffffff161461030d57600080fd5b600560009054906101000a900460ff1661035c576040517f08c379a000000000000000000000000000000000000000000000000000000000815260040161035390611eea565b60405180910390fd5b600460000160009054906101000a900460ff16156103af576040517f08c379a00000000000000000000000000000000000000000000000000000000081526004016103a690611f56565b60405180910390fd5b600460000160019054906101000a900460ff1615610402576040517f08c379a00000000000000000000000000000000000000000000000000000000081526004016103f990611fc2565b60405180910390fd5b60008060005b6003805490508110156108b7576000925060006003828154811061042f5761042e611fe2565b5b906000526020600020906007020160010160056006811061045357610452611fe2565b5b0154600660056006811061046a57610469611fe2565b5b01540361047657600193505b61051c600680806020026040519081016040528092919082600680156104b1576020028201915b81548152602001906001019080831161049d575b5050505050600384815481106104ca576104c9611fe2565b5b9060005260206000209060070201600101600680602002604051908101604052809291908260068015610512576020028201915b8154815260200190600101908083116104fe575b50505050506116cd565b925083801561052b5750600083145b15610539576008905061063a565b600183148015610547575083155b156105555760079050610639565b6001831480156105625750835b806105775750600283148015610576575083155b5b156105855760069050610638565b6002831480156105925750835b806105a757506003831480156105a6575083155b5b156105b55760059050610637565b6003831480156105c25750835b806105d757506004831480156105d6575083155b5b156105e55760049050610636565b6004831480156105f25750835b156106005760039050610635565b60058314801561060e575083155b1561061c5760029050610634565b6005831480156106295750835b1561063357600190505b5b5b5b5b5b5b5b600081146108a357600e600082815260200190815260200160002060020160009054906101000a900460ff16156107785761075b6003838154811061068257610681611fe2565b5b906000526020600020906007020160000160009054906101000a900473ffffffffffffffffffffffffffffffffffffffff16600c54600e600085815260200190815260200160002060010180546106d890612040565b80601f016020809104026020016040519081016040528092919081815260200182805461070490612040565b80156107515780601f1061072657610100808354040283529160200191610751565b820191906000526020600020905b81548152906001019060200180831161073457829003601f168201915b5050505050611777565b600c600081548092919061076e906120a0565b919050555061080d565b6107dd6003838154811061078f5761078e611fe2565b5b906000526020600020906007020160000160009054906101000a900473ffffffffffffffffffffffffffffffffffffffff16600e600084815260200190815260200160002060000154611813565b6001600e600083815260200190815260200160002060020160006101000a81548160ff0219169083151502179055505b7fbbdd7e195d091898a397fe9b8a038999adde10d5209fd6151736d09543e147186003838154811061084257610841611fe2565b5b906000526020600020906007020160000160009054906101000a900473ffffffffffffffffffffffffffffffffffffffff16600e60008481526020019081526020016000206001018360405161089a93929190612181565b60405180910390a15b5080806108af906120a0565b915050610408565b506001600460000160016101000a81548160ff021916908315150217905550600360006108e49190611973565b5050565b6000600460000160009054906101000a900460ff16905090565b600560009054906101000a900460ff1681565b60008054906101000a900473ffffffffffffffffffffffffffffffffffffffff1681565b60008054906101000a900473ffffffffffffffffffffffffffffffffffffffff1673ffffffffffffffffffffffffffffffffffffffff163373ffffffffffffffffffffffffffffffffffffffff161461099157600080fd5b7fadbc0483f31820e26475072543edda9bb5b02e2de813035d760e99a3f76a4269476040516109c09190611d3a565b60405180910390a18073ffffffffffffffffffffffffffffffffffffffff166108fc479081150290604051600060405180830381858888f19350505050158015610a0e573d6000803e3d6000fd5b5050565b60008054906101000a900473ffffffffffffffffffffffffffffffffffffffff1673ffffffffffffffffffffffffffffffffffffffff163373ffffffffffffffffffffffffffffffffffffffff1614610a6a57600080fd5b600560009054906101000a900460ff16610ab9576040517f08c379a0000000000000000000000000000000000000000000000000000000008152600401610ab090611eea565b60405180910390fd5b600460000160009054906101000a900460ff1615610b0c576040517f08c379a0000000000000000000000000000000000000000000000000000000008152600401610b039061220b565b60405180910390fd5b600460000160019054906101000a900460ff1615610b5f576040517f08c379a0000000000000000000000000000000000000000000000000000000008152600401610b5690611fc2565b60405180910390fd5b60005b6006811015610c55575b60058114610bad57610b8f604560038054905083610b8a919061222b565b6118ce565b60068260068110610ba357610ba2611fe2565b5b0181905550610be2565b610bc8601a60038054905083610bc3919061222b565b6118ce565b60068260068110610bdc57610bdb611fe2565b5b01819055505b610c3e60068260068110610bf957610bf8611fe2565b5b015460068080602002604051908101604052809291908260068015610c33576020028201915b815481526020019060010190808311610c1f575b50505050508361191b565b610b6c578080610c4d906120a0565b915050610b62565b507fde80e6f538e8ecef9774f4c85ea23e72fd023194ba8ae3eb01be7b84c869f7ef6006604051610c869190612377565b60405180910390a1565b60008054906101000a900473ffffffffffffffffffffffffffffffffffffffff1673ffffffffffffffffffffffffffffffffffffffff163373ffffffffffffffffffffffffffffffffffffffff1614610ce857600080fd5b600460000160019054906101000a900460ff16610db75760005b600380549050811015610db55760038181548110610d2357610d22611fe2565b5b906000526020600020906007020160000160009054906101000a900473ffffffffffffffffffffffffffffffffffffffff1673ffffffffffffffffffffffffffffffffffffffff166108fc6613e52b9abe00009081150290604051600060405180830381858888f19350505050158015610da1573d6000803e3d6000fd5b508080610dad906120a0565b915050610d02565b505b6000600560006101000a81548160ff021916908315150217905550565b60008054906101000a900473ffffffffffffffffffffffffffffffffffffffff1673ffffffffffffffffffffffffffffffffffffffff163373ffffffffffffffffffffffffffffffffffffffff1614610e2c57600080fd5b600560009054906101000a900460ff1615610e7c576040517f08c379a0000000000000000000000000000000000000000000000000000000008152600401610e73906123de565b60405180910390fd5b604051806040016040528060001515815260200160011515815250600460008201518160000160006101000a81548160ff02191690831515021790555060208201518160000160016101000a81548160ff021916908315150217905550905050806002819055506001600560006101000a81548160ff0219169083151502179055507f63190a0e978e64b953db73cc13abea1a2fcd8d4e62cd38f40e742bc84ddaa2b16001604051610f2e9190611a70565b60405180910390a150565b600560009054906101000a900460ff16610f88576040517f08c379a0000000000000000000000000000000000000000000000000000000008152600401610f7f90611eea565b60405180910390fd5b60068014610fcb576040517f08c379a0000000000000000000000000000000000000000000000000000000008152600401610fc29061244a565b60405180910390fd5b600460000160009054906101000a900460ff1661101d576040517f08c379a0000000000000000000000000000000000000000000000000000000008152600401611014906124b6565b60405180910390fd5b6000600190506002546001544361103491906124d6565b106110ac576000600460000160006101000a81548160ff0219169083151502179055507fb173eb72fde5d3021f70ce0a9e630f786bcb81b59cde7f9e7f13103eb43cd3ea60006040516110879190611a70565b60405180910390a1600254600154436110a091906124d6565b11156110ab57600090505b5b60005b600160066110bd91906124d6565b8110156111545760008382600681106110d9576110d8611fe2565b5b6020020151118015611102575060468382600681106110fb576110fa611fe2565b5b6020020151105b611141576040517f08c379a000000000000000000000000000000000000000000000000000000000815260040161113890612556565b60405180910390fd5b808061114c906120a0565b9150506110af565b506000826001600661116691906124d6565b6006811061117757611176611fe2565b5b60200201511180156111ad5750601b826001600661119591906124d6565b600681106111a6576111a5611fe2565b5b6020020151105b6111ec576040517f08c379a00000000000000000000000000000000000000000000000000000000081526004016111e3906125e8565b60405180910390fd5b66022acab15020003414611235576040517f08c379a000000000000000000000000000000000000000000000000000000000815260040161122c90612654565b60405180910390fd5b801561136857600060405180604001604052803373ffffffffffffffffffffffffffffffffffffffff168152602001848152509050600381908060018154018082558091505060019003906000526020600020906007020160009091909190915060008201518160000160006101000a81548173ffffffffffffffffffffffffffffffffffffffff021916908373ffffffffffffffffffffffffffffffffffffffff1602179055506020820151816001019060066112f4929190611997565b5050507fe78527df7ce3ef6a49de098be8b8d96677739d000d7f7d17318cfb5495269fd38360405161132691906126ed565b60405180910390a17fa4321f7b46892437380e011fb39f4fff7c1d4193f90aa0d103703ef8e98dea67600360405161135e91906128a8565b60405180910390a1505b5050565b6006816006811061137c57600080fd5b016000915090505481565b60008054906101000a900473ffffffffffffffffffffffffffffffffffffffff1673ffffffffffffffffffffffffffffffffffffffff163373ffffffffffffffffffffffffffffffffffffffff16146113df57600080fd5b600560009054906101000a900460ff1661142e576040517f08c379a000000000000000000000000000000000000000000000000000000000815260040161142590611eea565b60405180910390fd5b600460000160019054906101000a900460ff16611480576040517f08c379a000000000000000000000000000000000000000000000000000000000815260040161147790612916565b60405180910390fd5b6000600460000160016101000a81548160ff0219169083151502179055506001600460000160006101000a81548160ff0219169083151502179055507fb173eb72fde5d3021f70ce0a9e630f786bcb81b59cde7f9e7f13103eb43cd3ea60016040516114ec9190611a70565b60405180910390a143600181905550565b60008054906101000a900473ffffffffffffffffffffffffffffffffffffffff1673ffffffffffffffffffffffffffffffffffffffff163373ffffffffffffffffffffffffffffffffffffffff161461155557600080fd5b600183611562919061222b565b600c819055506000600d60009054906101000a900473ffffffffffffffffffffffffffffffffffffffff1690508073ffffffffffffffffffffffffffffffffffffffff1663d3fc98648686866040518463ffffffff1660e01b81526004016115cc939291906129ad565b600060405180830381600087803b1580156115e657600080fd5b505af11580156115fa573d6000803e3d6000fd5b505050506000604051806060016040528086815260200185815260200160001515815250905080600e60008581526020019081526020016000206000820151816000015560208201518160010190816116539190612b82565b5060408201518160020160006101000a81548160ff021916908315150217905550905050505050505050565b6003818154811061168f57600080fd5b90600052602060002090600702016000915090508060000160009054906101000a900473ffffffffffffffffffffffffffffffffffffffff16905081565b6000806000905060005b600160066116e591906124d6565b81101561176c576000600190505b60068110156117585784816006811061170f5761170e611fe2565b5b602002015186836006811061172757611726611fe2565b5b60200201510361174457828061173c906120a0565b935050611745565b5b8080611750906120a0565b9150506116f3565b508080611764906120a0565b9150506116d7565b508091505092915050565b6000600d60009054906101000a900473ffffffffffffffffffffffffffffffffffffffff1690508073ffffffffffffffffffffffffffffffffffffffff1663d3fc98648585856040518463ffffffff1660e01b81526004016117db939291906129ad565b600060405180830381600087803b1580156117f557600080fd5b505af1158015611809573d6000803e3d6000fd5b5050505050505050565b6000600d60009054906101000a900473ffffffffffffffffffffffffffffffffffffffff1690508073ffffffffffffffffffffffffffffffffffffffff1663beabacc860008054906101000a900473ffffffffffffffffffffffffffffffffffffffff1685856040518463ffffffff1660e01b815260040161189793929190612c54565b600060405180830381600087803b1580156118b157600080fd5b505af11580156118c5573d6000803e3d6000fd5b50505050505050565b600060018342846040516020016118e6929190612c8b565b6040516020818303038152906040528051906020012060001c6119099190612ce3565b611913919061222b565b905092915050565b600080600090505b828110156119665783816006811061193e5761193d611fe2565b5b6020020151850361195357600191505061196c565b808061195e906120a0565b915050611923565b50600090505b9392505050565b508054600082556007029060005260206000209081019061199491906119d7565b50565b82600681019282156119c6579160200282015b828111156119c55782518255916020019190600101906119aa565b5b5090506119d39190611a25565b5090565b5b80821115611a2157600080820160006101000a81549073ffffffffffffffffffffffffffffffffffffffff0219169055600182016000611a189190611a42565b506007016119d8565b5090565b5b80821115611a3e576000816000905550600101611a26565b5090565b508060060190611a529190611a25565b50565b60008115159050919050565b611a6a81611a55565b82525050565b6000602082019050611a856000830184611a61565b92915050565b600073ffffffffffffffffffffffffffffffffffffffff82169050919050565b6000611ab682611a8b565b9050919050565b611ac681611aab565b82525050565b6000602082019050611ae16000830184611abd565b92915050565b6000604051905090565b600080fd5b600080fd5b611b0481611aab565b8114611b0f57600080fd5b50565b600081359050611b2181611afb565b92915050565b600060208284031215611b3d57611b3c611af1565b5b6000611b4b84828501611b12565b91505092915050565b6000819050919050565b611b6781611b54565b8114611b7257600080fd5b50565b600081359050611b8481611b5e565b92915050565b600060208284031215611ba057611b9f611af1565b5b6000611bae84828501611b75565b91505092915050565b600080fd5b6000601f19601f8301169050919050565b7f4e487b7100000000000000000000000000000000000000000000000000000000600052604160045260246000fd5b611c0582611bbc565b810181811067ffffffffffffffff82111715611c2457611c23611bcd565b5b80604052505050565b6000611c37611ae7565b9050611c438282611bfc565b919050565b600067ffffffffffffffff821115611c6357611c62611bcd565b5b602082029050919050565b600080fd5b6000611c86611c8184611c48565b611c2d565b90508060208402830185811115611ca057611c9f611c6e565b5b835b81811015611cc95780611cb58882611b75565b845260208401935050602081019050611ca2565b5050509392505050565b600082601f830112611ce857611ce7611bb7565b5b6006611cf5848285611c73565b91505092915050565b600060c08284031215611d1457611d13611af1565b5b6000611d2284828501611cd3565b91505092915050565b611d3481611b54565b82525050565b6000602082019050611d4f6000830184611d2b565b92915050565b600080fd5b600067ffffffffffffffff821115611d7557611d74611bcd565b5b611d7e82611bbc565b9050602081019050919050565b82818337600083830152505050565b6000611dad611da884611d5a565b611c2d565b905082815260208101848484011115611dc957611dc8611d55565b5b611dd4848285611d8b565b509392505050565b600082601f830112611df157611df0611bb7565b5b8135611e01848260208601611d9a565b91505092915050565b60008060008060808587031215611e2457611e23611af1565b5b6000611e3287828801611b12565b9450506020611e4387828801611b75565b935050604085013567ffffffffffffffff811115611e6457611e63611af6565b5b611e7087828801611ddc565b9250506060611e8187828801611b75565b91505092959194509250565b600082825260208201905092915050565b7f4c6f747465727920636c6f736564210000000000000000000000000000000000600082015250565b6000611ed4600f83611e8d565b9150611edf82611e9e565b602082019050919050565b60006020820190508181036000830152611f0381611ec7565b9050919050565b7f726f756e64207374696c6c206163746976650000000000000000000000000000600082015250565b6000611f40601283611e8d565b9150611f4b82611f0a565b602082019050919050565b60006020820190508181036000830152611f6f81611f33565b9050919050565b7f726f756e642066696e6973686564000000000000000000000000000000000000600082015250565b6000611fac600e83611e8d565b9150611fb782611f76565b602082019050919050565b60006020820190508181036000830152611fdb81611f9f565b9050919050565b7f4e487b7100000000000000000000000000000000000000000000000000000000600052603260045260246000fd5b7f4e487b7100000000000000000000000000000000000000000000000000000000600052602260045260246000fd5b6000600282049050600182168061205857607f821691505b60208210810361206b5761206a612011565b5b50919050565b7f4e487b7100000000000000000000000000000000000000000000000000000000600052601160045260246000fd5b60006120ab82611b54565b91507fffffffffffffffffffffffffffffffffffffffffffffffffffffffffffffffff82036120dd576120dc612071565b5b600182019050919050565b60008190508160005260206000209050919050565b6000815461210a81612040565b6121148186611e8d565b9450600182166000811461212f576001811461214557612178565b60ff198316865281151560200286019350612178565b61214e856120e8565b60005b8381101561217057815481890152600182019150602081019050612151565b808801955050505b50505092915050565b60006060820190506121966000830186611abd565b81810360208301526121a881856120fd565b90506121b76040830184611d2b565b949350505050565b7f726f756e64206973207374696c6c206163746976652100000000000000000000600082015250565b60006121f5601683611e8d565b9150612200826121bf565b602082019050919050565b60006020820190508181036000830152612224816121e8565b9050919050565b600061223682611b54565b915061224183611b54565b9250827fffffffffffffffffffffffffffffffffffffffffffffffffffffffffffffffff0382111561227657612275612071565b5b828201905092915050565b600060069050919050565b600081905092915050565b6000819050919050565b6122aa81611b54565b82525050565b60006122bc83836122a1565b60208301905092915050565b60008160001c9050919050565b6000819050919050565b60006122f26122ed836122c8565b6122d5565b9050919050565b600061230582546122df565b9050919050565b6000600182019050919050565b61232281612281565b61232c818461228c565b925061233782612297565b8060005b8381101561236f5761234c826122f9565b61235687826122b0565b96506123618361230c565b92505060018101905061233b565b505050505050565b600060c08201905061238c6000830184612319565b92915050565b7f4c6f747465727920616c72656164792075700000000000000000000000000000600082015250565b60006123c8601283611e8d565b91506123d382612392565b602082019050919050565b600060208201905081810360008301526123f7816123bb565b9050919050565b7f63686f6f73652036206e756d6265727321000000000000000000000000000000600082015250565b6000612434601183611e8d565b915061243f826123fe565b602082019050919050565b6000602082019050818103600083015261246381612427565b9050919050565b7f726f756e64206e6f742061637469766500000000000000000000000000000000600082015250565b60006124a0601083611e8d565b91506124ab8261246a565b602082019050919050565b600060208201905081810360008301526124cf81612493565b9050919050565b60006124e182611b54565b91506124ec83611b54565b9250828210156124ff576124fe612071565b5b828203905092915050565b7f63686f6f7365206e756d62657273206265747765656e203120616e6420363900600082015250565b6000612540601f83611e8d565b915061254b8261250a565b602082019050919050565b6000602082019050818103600083015261256f81612533565b9050919050565b7f63686f6f736520706f77657262616c6c206265747765656e203120616e64203260008201527f3600000000000000000000000000000000000000000000000000000000000000602082015250565b60006125d2602183611e8d565b91506125dd82612576565b604082019050919050565b60006020820190508181036000830152612601816125c5565b9050919050565b7f61207469636b657420636f737473203631302730303020677765690000000000600082015250565b600061263e601b83611e8d565b915061264982612608565b602082019050919050565b6000602082019050818103600083015261266d81612631565b9050919050565b600060069050919050565b6000819050919050565b6000602082019050919050565b61269f81612674565b6126a9818461228c565b92506126b48261267f565b8060005b838110156126e55781516126cc87826122b0565b96506126d783612689565b9250506001810190506126b8565b505050505050565b600060c0820190506127026000830184612696565b92915050565b600081549050919050565b600082825260208201905092915050565b60008190508160005260206000209050919050565b600073ffffffffffffffffffffffffffffffffffffffff82169050919050565b600061276c612767836122c8565b612739565b9050919050565b61277c81611aab565b82525050565b600081905092915050565b61279681612281565b6127a08184612782565b92506127ab82612297565b8060005b838110156127e3576127c0826122f9565b6127ca87826122b0565b96506127d58361230c565b9250506001810190506127af565b505050505050565b60e08201600080830154905061280081612759565b61280d6000860182612773565b506001830161281f602086018261278d565b5050505050565b600061283283836127eb565b60e08301905092915050565b6000600782019050919050565b600061285682612708565b6128608185612713565b935061286b83612724565b8060005b8381101561289b57816128828882612826565b975061288d8361283e565b92505060018101905061286f565b5085935050505092915050565b600060208201905081810360008301526128c2818461284b565b905092915050565b7f726f756e6420697320616c726561647920737461727465640000000000000000600082015250565b6000612900601883611e8d565b915061290b826128ca565b602082019050919050565b6000602082019050818103600083015261292f816128f3565b9050919050565b600081519050919050565b60005b8381101561295f578082015181840152602081019050612944565b8381111561296e576000848401525b50505050565b600061297f82612936565b6129898185611e8d565b9350612999818560208601612941565b6129a281611bbc565b840191505092915050565b60006060820190506129c26000830186611abd565b6129cf6020830185611d2b565b81810360408301526129e18184612974565b9050949350505050565b60006020601f8301049050919050565b600082821b905092915050565b600060088302612a387fffffffffffffffffffffffffffffffffffffffffffffffffffffffffffffffff826129fb565b612a4286836129fb565b95508019841693508086168417925050509392505050565b6000819050919050565b6000612a7f612a7a612a7584611b54565b612a5a565b611b54565b9050919050565b6000819050919050565b612a9983612a64565b612aad612aa582612a86565b848454612a08565b825550505050565b600090565b612ac2612ab5565b612acd818484612a90565b505050565b5b81811015612af157612ae6600082612aba565b600181019050612ad3565b5050565b601f821115612b3657612b07816120e8565b612b10846129eb565b81016020851015612b1f578190505b612b33612b2b856129eb565b830182612ad2565b50505b505050565b600082821c905092915050565b6000612b5960001984600802612b3b565b1980831691505092915050565b6000612b728383612b48565b9150826002028217905092915050565b612b8b82612936565b67ffffffffffffffff811115612ba457612ba3611bcd565b5b612bae8254612040565b612bb9828285612af5565b600060209050601f831160018114612bec5760008415612bda578287015190505b612be48582612b66565b865550612c4c565b601f198416612bfa866120e8565b60005b82811015612c2257848901518255600182019150602085019450602081019050612bfd565b86831015612c3f5784890151612c3b601f891682612b48565b8355505b6001600288020188555050505b505050505050565b6000606082019050612c696000830186611abd565b612c766020830185611abd565b612c836040830184611d2b565b949350505050565b6000604082019050612ca06000830185611d2b565b612cad6020830184611d2b565b9392505050565b7f4e487b7100000000000000000000000000000000000000000000000000000000600052601260045260246000fd5b6000612cee82611b54565b9150612cf983611b54565b925082612d0957612d08612cb4565b5b82820690509291505056fea2646970667358221220874d9251797dcafdd6611ee30821ca225d4604ef4f89fc30715302e5096c76dd64736f6c634300080f0033",
  "immutableReferences": {},
  "source": "//SPDX-License-Identifier: MIT\npragma solidity ^0.8.0;\n\nimport \"./cryptoducks.sol\";\n\ncontract LotteryTry {\n    address public manager;\n\n    struct Round {\n        bool active;\n        bool finished;\n    }\n\n    struct Player {\n        address addr;\n        uint256[6] ticket;\n    }\n\n    uint256 firstBlock;\n    uint256 M;\n\n    event Ticket(uint256[6] _ticket);\n    event WinningTicket(uint256[6] _ticket);\n    event LotteryCreated(bool created);\n    event RoundState(bool round_state);\n    event Prize(address addr, string uri, uint256 class);\n    event Revenues(uint256 balance);\n    event Players(Player[] players);\n\n    Player[] public players;\n    Round round;\n\n    bool public lotteryUp;\n    uint256[6] public winnerNumbers;\n    uint256 tokenIdCounter;\n\n    address DKSAddress;\n\n    struct DKStoken {\n        uint256 tokenId;\n        string uri;\n        bool assigned;\n    }\n    mapping(uint256 => DKStoken) DKSuri; // mapping from nft class to uri-id\n\n    /*\n    Set the lottery manager at contract creation. Takes M and the address of NFT contract as arguments\n    */\n    constructor(address addr) {\n        DKSAddress = addr;\n        manager = msg.sender;\n    }\n\n    /*\n    modifier for function that can be called only by the manager\n    */\n    modifier onlyManager() {\n        require(msg.sender == manager);\n        _;\n    }\n\n    function createLottery(uint256 m) public onlyManager {\n        require(!lotteryUp, \"Lottery already up\");\n        round = Round(false, true);\n        M = m;\n        lotteryUp = true;\n        emit LotteryCreated(true);\n    }\n\n    /*\n    checks if the previous round is finished, and, if that's the case, starts a new round.\n    takes M as argument.\n    */\n    function startNewRound() public onlyManager {\n        require(lotteryUp, \"Lottery closed!\");\n        require(round.finished, \"round is already started\");\n        round.finished = false;\n        round.active = true;\n        emit RoundState(true);\n        firstBlock = block.number;\n    }\n\n    /*\n    Function for buying a ticket, takes a uint[] array with 6 elements as argument. \n    The flast one is the powerball.\n        ex buy([63,24,32,12,69,1])\n    Round should be active\n    Lottery ticket numbers required in a range from 1 to 69\n    Lottery ticket price required: 0,00061 ether =  610'000 gwei = around 1 euro\n    */\n    function buy(uint256[6] memory ticket) public payable {\n        require(lotteryUp, \"Lottery closed!\");\n        require(ticket.length == 6, \"choose 6 numbers!\");\n        require(round.active, \"round not active\");\n        bool success = true;\n        // check if M blocks has passed\n        if (block.number - firstBlock >= M) {\n            round.active = false;\n            emit RoundState(false);\n            if (block.number - firstBlock > M) success = false;\n        }\n        for (uint256 i = 0; i < ticket.length - 1; i++) {\n            require(\n                ticket[i] > 0 && ticket[i] < 70,\n                \"choose numbers between 1 and 69\"\n            );\n        }\n        require(\n            ticket[ticket.length - 1] > 0 && ticket[ticket.length - 1] < 27,\n            \"choose powerball between 1 and 26\"\n        );\n        require(msg.value == 610000 gwei, \"a ticket costs 610'000 gwei\");\n\n        if (success) {\n            Player memory player = Player(msg.sender, ticket);\n            players.push(player);\n            emit Ticket(ticket);\n            emit Players(players);\n        }\n    }\n\n    /*\n    Aux function that generate a random uint in a range, hashing difficulty and timestamp of the block.\n        ex. random(99) generate a number from 1 to 99\n    */\n    function random(uint256 range, uint256 seed)\n        private\n        view\n        returns (uint256)\n    {\n        return\n            (uint256(keccak256(abi.encode(block.timestamp, seed))) % range) + 1;\n    }\n\n    /*\n    draw 6 different winning numbers with random function.\n    */\n    function drawNumbers() public onlyManager {\n        require(lotteryUp, \"Lottery closed!\");\n        require(!round.active, \"round is still active!\");\n        require(!round.finished, \"round finished\");\n        for (uint256 i = 0; i < 6; i++) {\n            do {\n                if (i != 5) winnerNumbers[i] = random(69, i + players.length);\n                else winnerNumbers[i] = random(26, i + players.length);\n            } while (checkDuplicates(winnerNumbers[i], winnerNumbers, i)); // i don't want duplicates\n        }\n        emit WinningTicket(winnerNumbers);\n    }\n\n    /*\n    Check if a number is a duplicate in an array\n    */\n    function checkDuplicates(\n        uint256 check,\n        uint256[6] memory array,\n        uint256 index\n    ) private pure returns (bool) {\n        for (uint256 i = 0; i < index; i++) {\n            if (check == array[i]) return true;\n        }\n        return false;\n    }\n\n    // distribute the prizes\n    function givePrizes() public onlyManager {\n        require(lotteryUp, \"Lottery closed!\");\n        require(!round.active, \"round still active\");\n        require(!round.finished, \"round finished\");\n        bool powerball;\n        uint256 commonElements;\n        for (uint256 i = 0; i < players.length; i++) {\n            powerball = false;\n            uint256 class = 0;\n            if (winnerNumbers[5] == players[i].ticket[5]) powerball = true;\n            commonElements = findCommonElements(\n                winnerNumbers,\n                players[i].ticket\n            );\n\n            if (powerball && commonElements == 0) {\n                // class 8\n                class = 8;\n            } else if (commonElements == 1 && !powerball) {\n                // class 7\n                class = 7;\n            } else if (\n                (commonElements == 1 && powerball) ||\n                (commonElements == 2 && !powerball)\n            ) {\n                // class 6\n                class = 6;\n            } else if (\n                (commonElements == 2 && powerball) ||\n                (commonElements == 3 && !powerball)\n            ) {\n                // class 5\n                class = 5;\n            } else if (\n                (commonElements == 3 && powerball) ||\n                (commonElements == 4 && !powerball)\n            ) {\n                // class 4\n                class = 4;\n            } else if (commonElements == 4 && powerball) {\n                // class 3\n                class = 3;\n            } else if (commonElements == 5 && !powerball) {\n                //class 2\n                class = 2;\n            } else if (commonElements == 5 && powerball) {\n                // class 1\n                class = 1;\n            }\n            if (class != 0) {\n                if (DKSuri[class].assigned) {\n                    mintOnDemand(\n                        players[i].addr,\n                        tokenIdCounter,\n                        DKSuri[class].uri\n                    ); // mint\n                    tokenIdCounter++;\n                } else {\n                    transferDKS(players[i].addr, DKSuri[class].tokenId);\n                    DKSuri[class].assigned = true;\n                } //transfer and flag assigned\n                emit Prize(players[i].addr, DKSuri[class].uri, class);\n            }\n        }\n        round.finished = true; // end the round\n        delete players; // clear players array\n    }\n\n    /*\n    aux function for finding common elements between two arrays\n    */\n    function findCommonElements(\n        uint256[6] memory array,\n        uint256[6] memory ticket\n    ) private pure returns (uint256) {\n        uint256 commonElements = 0;\n        for (uint256 i = 0; i < array.length - 1; i++) {\n            for (uint256 j = 1; j < ticket.length; j++) {\n                if (array[i] == ticket[j]) {\n                    commonElements++;\n                    continue;\n                }\n            }\n        }\n        return commonElements;\n    }\n\n    /*\n    Function to withdraw the revenue of the tickets\n    */\n    function withdraw(address addr) public onlyManager {\n        emit Revenues(address(this).balance);\n        payable(addr).transfer(address(this).balance);\n    }\n\n    /*\n    End the round and reset data structures\n    */\n    /*\n    deactivate the lottery contract\n    */\n    function closeLottery() public onlyManager {\n        if (!round.finished) {\n            for (uint256 i = 0; i < players.length; i++) {\n                payable(players[i].addr).transfer(0.0056 ether);\n            }\n        }\n        lotteryUp = false;\n    }\n\n    /*\n    Function to mint an NFT, calling Cryptoducks.sol mint function. Only the creator of \n    cryptoduck can mint an NFT,and only the manager of the lottery can use \n    this function. So they are the same person. When you mint a Cryptoduck, you have to specify;\n\n    -address of the nft contract\n    -owner of the minted nft\n    -unique token id (START FROM 1)\n    -uri of an img or a description\n    -class (from 1 to 8)\n\n    */\n    function mintDKS(\n        address _to,\n        uint256 _tokenId,\n        string memory _uri,\n        uint256 class\n    ) public onlyManager {\n        tokenIdCounter = _tokenId + 1;\n        Cryptoducks DKS = Cryptoducks(DKSAddress);\n        DKS.mint(_to, _tokenId, _uri);\n        DKStoken memory temp = DKStoken(_tokenId, _uri, false);\n        DKSuri[class] = temp;\n    }\n\n    /*\n    function for minting an NFT during the lottery, if there are more winners than the available prizes\n    */\n    function mintOnDemand(\n        address _to,\n        uint256 _tokenId,\n        string memory _uri\n    ) private {\n        Cryptoducks DKS = Cryptoducks(DKSAddress);\n        DKS.mint(_to, _tokenId, _uri);\n    }\n\n    /*\n    function for transfer NFT\n    */\n    function transferDKS(address _to, uint256 _tokenId) private {\n        Cryptoducks DKS = Cryptoducks(DKSAddress);\n        DKS.transfer(manager, _to, _tokenId);\n    }\n\n    function getRoundState() public view returns (bool) {\n        return (round.active);\n    }\n    /*\n\n\n    */\n}\n",
  "sourcePath": "/Users/antoniopace/Desktop/Lottery-dAPP/contracts/lottery.sol",
  "compiler": {
    "name": "solc",
    "version": "0.8.15+commit.e14f2714.Emscripten.clang"
  },
  "schemaVersion": "3.4.8",
  "updatedAt": "2022-07-07T16:51:32.334Z",
  "networkType": "ethereum",
  "devdoc": {
    "kind": "dev",
    "methods": {},
    "version": 1
  },
  "userdoc": {
    "kind": "user",
    "methods": {},
    "version": 1
  }
}