{
  "contractName": "LotteryTry",
  "abi": [
    {
      "inputs": [
        {
          "internalType": "address",
          "name": "addr",
          "type": "address"
        }
      ],
      "stateMutability": "nonpayable",
      "type": "constructor"
    },
    {
      "anonymous": false,
      "inputs": [],
      "name": "LotteryClosed",
      "type": "event"
    },
    {
      "anonymous": false,
      "inputs": [],
      "name": "LotteryCreated",
      "type": "event"
    },
    {
      "anonymous": false,
      "inputs": [
        {
          "indexed": false,
          "internalType": "address",
          "name": "addr",
          "type": "address"
        },
        {
          "indexed": false,
          "internalType": "uint256",
          "name": "token",
          "type": "uint256"
        },
        {
          "indexed": false,
          "internalType": "uint8",
          "name": "class",
          "type": "uint8"
        }
      ],
      "name": "Prize",
      "type": "event"
    },
    {
      "anonymous": false,
      "inputs": [
        {
          "indexed": false,
          "internalType": "uint256",
          "name": "balance",
          "type": "uint256"
        }
      ],
      "name": "Revenues",
      "type": "event"
    },
    {
      "anonymous": false,
      "inputs": [
        {
          "indexed": false,
          "internalType": "bool",
          "name": "round_state",
          "type": "bool"
        }
      ],
      "name": "RoundState",
      "type": "event"
    },
    {
      "anonymous": false,
      "inputs": [
        {
          "indexed": false,
          "internalType": "uint256[6]",
          "name": "_ticket",
          "type": "uint256[6]"
        }
      ],
      "name": "WinningTicket",
      "type": "event"
    },
    {
      "inputs": [],
      "name": "lotteryUp",
      "outputs": [
        {
          "internalType": "bool",
          "name": "",
          "type": "bool"
        }
      ],
      "stateMutability": "view",
      "type": "function",
      "constant": true
    },
    {
      "inputs": [],
      "name": "manager",
      "outputs": [
        {
          "internalType": "address",
          "name": "",
          "type": "address"
        }
      ],
      "stateMutability": "view",
      "type": "function",
      "constant": true
    },
    {
      "inputs": [
        {
          "internalType": "uint256",
          "name": "",
          "type": "uint256"
        }
      ],
      "name": "players",
      "outputs": [
        {
          "internalType": "address",
          "name": "addr",
          "type": "address"
        }
      ],
      "stateMutability": "view",
      "type": "function",
      "constant": true
    },
    {
      "inputs": [
        {
          "internalType": "uint256",
          "name": "",
          "type": "uint256"
        }
      ],
      "name": "winnerNumbers",
      "outputs": [
        {
          "internalType": "uint256",
          "name": "",
          "type": "uint256"
        }
      ],
      "stateMutability": "view",
      "type": "function",
      "constant": true
    },
    {
      "inputs": [
        {
          "internalType": "uint32",
          "name": "m",
          "type": "uint32"
        }
      ],
      "name": "createLottery",
      "outputs": [],
      "stateMutability": "nonpayable",
      "type": "function"
    },
    {
      "inputs": [],
      "name": "startNewRound",
      "outputs": [],
      "stateMutability": "nonpayable",
      "type": "function"
    },
    {
      "inputs": [
        {
          "internalType": "uint256[6]",
          "name": "ticket",
          "type": "uint256[6]"
        }
      ],
      "name": "buy",
      "outputs": [],
      "stateMutability": "payable",
      "type": "function",
      "payable": true
    },
    {
      "inputs": [],
      "name": "drawNumbers",
      "outputs": [],
      "stateMutability": "nonpayable",
      "type": "function"
    },
    {
      "inputs": [],
      "name": "givePrizes",
      "outputs": [],
      "stateMutability": "nonpayable",
      "type": "function"
    },
    {
      "inputs": [
        {
          "internalType": "address",
          "name": "addr",
          "type": "address"
        }
      ],
      "name": "withdraw",
      "outputs": [],
      "stateMutability": "nonpayable",
      "type": "function"
    },
    {
      "inputs": [],
      "name": "closeLottery",
      "outputs": [],
      "stateMutability": "nonpayable",
      "type": "function"
    },
    {
      "inputs": [
        {
          "internalType": "address",
          "name": "_to",
          "type": "address"
        },
        {
          "internalType": "uint256",
          "name": "_tokenId",
          "type": "uint256"
        },
        {
          "internalType": "string",
          "name": "_uri",
          "type": "string"
        },
        {
          "internalType": "uint8",
          "name": "class",
          "type": "uint8"
        }
      ],
      "name": "mintDKS",
      "outputs": [],
      "stateMutability": "nonpayable",
      "type": "function"
    },
    {
      "inputs": [],
      "name": "getRoundState",
      "outputs": [
        {
          "internalType": "bool",
          "name": "",
          "type": "bool"
        }
      ],
      "stateMutability": "view",
      "type": "function",
      "constant": true
    },
    {
      "inputs": [],
      "name": "getRoundStateFinished",
      "outputs": [
        {
          "internalType": "bool",
          "name": "",
          "type": "bool"
        }
      ],
      "stateMutability": "view",
      "type": "function",
      "constant": true
    },
    {
      "inputs": [],
      "name": "getM",
      "outputs": [
        {
          "internalType": "uint32",
          "name": "",
          "type": "uint32"
        }
      ],
      "stateMutability": "view",
      "type": "function",
      "constant": true
    },
    {
      "inputs": [],
      "name": "getNumTickets",
      "outputs": [
        {
          "internalType": "uint256",
          "name": "",
          "type": "uint256"
        }
      ],
      "stateMutability": "view",
      "type": "function",
      "constant": true
    },
    {
      "inputs": [
        {
          "internalType": "uint32",
          "name": "k",
          "type": "uint32"
        }
      ],
      "name": "getTicket",
      "outputs": [
        {
          "internalType": "uint256[6]",
          "name": "",
          "type": "uint256[6]"
        }
      ],
      "stateMutability": "view",
      "type": "function",
      "constant": true
    },
    {
      "inputs": [],
      "name": "getNumTicketsByPlayer",
      "outputs": [
        {
          "internalType": "uint32",
          "name": "",
          "type": "uint32"
        }
      ],
      "stateMutability": "view",
      "type": "function",
      "constant": true
    },
    {
      "inputs": [],
      "name": "getWinningNumbers",
      "outputs": [
        {
          "internalType": "uint256[6]",
          "name": "",
          "type": "uint256[6]"
        }
      ],
      "stateMutability": "view",
      "type": "function",
      "constant": true
    },
    {
      "inputs": [
        {
          "internalType": "uint256",
          "name": "k",
          "type": "uint256"
        }
      ],
      "name": "getPrizes",
      "outputs": [
        {
          "internalType": "string",
          "name": "",
          "type": "string"
        }
      ],
      "stateMutability": "view",
      "type": "function",
      "constant": true
    },
    {
      "inputs": [],
      "name": "getNumPrizes",
      "outputs": [
        {
          "internalType": "uint256",
          "name": "",
          "type": "uint256"
        }
      ],
      "stateMutability": "view",
      "type": "function",
      "constant": true
    }
  ],
  "bytecode": "0x60806040526000600d60006101000a81548160ff0219169083151502179055503480156200002c57600080fd5b5060405162003cfb38038062003cfb833981810160405281019062000052919062000144565b80600d60016101000a81548173ffffffffffffffffffffffffffffffffffffffff021916908373ffffffffffffffffffffffffffffffffffffffff160217905550336000806101000a81548173ffffffffffffffffffffffffffffffffffffffff021916908373ffffffffffffffffffffffffffffffffffffffff1602179055505062000176565b600080fd5b600073ffffffffffffffffffffffffffffffffffffffff82169050919050565b60006200010c82620000df565b9050919050565b6200011e81620000ff565b81146200012a57600080fd5b50565b6000815190506200013e8162000113565b92915050565b6000602082840312156200015d576200015c620000da565b5b60006200016d848285016200012d565b91505092915050565b613b7580620001866000396000f3fe60806040526004361061012a5760003560e01c8063816258f1116100ab578063b857fc651161006f578063b857fc6514610389578063bd85948c146103b4578063cc307795146103cb578063d4b2001114610408578063d818769214610431578063f71d96cb1461045c5761012a565b8063816258f11461029d57806384350e1d146102da578063a8bd563414610305578063a8d8820214610321578063afb4d2ee1461035e5761012a565b8063481c6a75116100f2578063481c6a75146101f25780634a7864dd1461021d57806351cff8d914610246578063676c902f1461026f5780636fd09816146102865761012a565b806306d5ee541461012f5780630b5adfff14610146578063293c2958146101715780634147e5961461019c57806343a2828a146101c7575b600080fd5b34801561013b57600080fd5b50610144610499565b005b34801561015257600080fd5b5061015b610be9565b6040516101689190612777565b60405180910390f35b34801561017d57600080fd5b50610186610bf6565b60405161019391906127ad565b60405180910390f35b3480156101a857600080fd5b506101b1610c10565b6040516101be91906127ad565b60405180910390f35b3480156101d357600080fd5b506101dc610c2a565b6040516101e991906127ad565b60405180910390f35b3480156101fe57600080fd5b50610207610c3d565b6040516102149190612809565b60405180910390f35b34801561022957600080fd5b50610244600480360381019061023f9190612874565b610c61565b005b34801561025257600080fd5b5061026d600480360381019061026891906128cd565b611034565b005b34801561027b57600080fd5b5061028461115f565b005b34801561029257600080fd5b5061029b611407565b005b3480156102a957600080fd5b506102c460048036038101906102bf9190612874565b61162b565b6040516102d191906129a5565b60405180910390f35b3480156102e657600080fd5b506102ef61177e565b6040516102fc91906129a5565b60405180910390f35b61031f600480360381019061031a9190612b33565b6117c8565b005b34801561032d57600080fd5b5061034860048036038101906103439190612b60565b611bca565b6040516103559190612777565b60405180910390f35b34801561036a57600080fd5b50610373611be5565b6040516103809190612b9c565b60405180910390f35b34801561039557600080fd5b5061039e611bff565b6040516103ab9190612777565b60405180910390f35b3480156103c057600080fd5b506103c9611c49565b005b3480156103d757600080fd5b506103f260048036038101906103ed9190612b60565b611e15565b6040516103ff9190612c3f565b60405180910390f35b34801561041457600080fd5b5061042f600480360381019061042a9190612d4f565b611f09565b005b34801561043d57600080fd5b50610446612091565b6040516104539190612b9c565b60405180910390f35b34801561046857600080fd5b50610483600480360381019061047e9190612b60565b612152565b6040516104909190612809565b60405180910390f35b60008054906101000a900473ffffffffffffffffffffffffffffffffffffffff1673ffffffffffffffffffffffffffffffffffffffff163373ffffffffffffffffffffffffffffffffffffffff16146104f157600080fd5b600560009054906101000a900460ff16610540576040517f08c379a000000000000000000000000000000000000000000000000000000000815260040161053790612e1e565b60405180910390fd5b600460000160009054906101000a900460ff1615610593576040517f08c379a000000000000000000000000000000000000000000000000000000000815260040161058a90612e8a565b60405180910390fd5b600460000160019054906101000a900460ff16156105e6576040517f08c379a00000000000000000000000000000000000000000000000000000000081526004016105dd90612ef6565b60405180910390fd5b600080600080600090505b6003805490508163ffffffff161015610bb75760009350600060038263ffffffff168154811061062457610623612f16565b5b906000526020600020906007020160010160056006811061064857610647612f16565b5b0154600660056006811061065f5761065e612f16565b5b01540361066b57600194505b610717600680806020026040519081016040528092919082600680156106a6576020028201915b815481526020019060010190808311610692575b505050505060038463ffffffff16815481106106c5576106c4612f16565b5b906000526020600020906007020160010160068060200260405190810160405280929190826006801561070d576020028201915b8154815260200190600101908083116106f9575b50505050506121a0565b935084801561072c575060008463ffffffff16145b1561073a5760089050610877565b60018463ffffffff1614801561074e575084155b1561075c5760079050610876565b60018463ffffffff1614801561076f5750845b8061078a575060028463ffffffff16148015610789575084155b5b156107985760069050610875565b60028463ffffffff161480156107ab5750845b806107c6575060038463ffffffff161480156107c5575084155b5b156107d45760059050610874565b60038463ffffffff161480156107e75750845b80610802575060048463ffffffff16148015610801575084155b5b156108105760049050610873565b60048463ffffffff161480156108235750845b156108315760039050610872565b60058463ffffffff16148015610845575084155b156108535760029050610871565b60058463ffffffff161480156108665750845b1561087057600190505b5b5b5b5b5b5b5b60008160ff1614610ba357600e60008260ff1660ff16815260200190815260200160002060020160009054906101000a900460ff16156109cd57600c5492506109b060038363ffffffff16815481106108d3576108d2612f16565b5b906000526020600020906007020160000160009054906101000a900473ffffffffffffffffffffffffffffffffffffffff1684600e60008560ff1660ff168152602001908152602001600020600101805461092d90612f74565b80601f016020809104026020016040519081016040528092919081815260200182805461095990612f74565b80156109a65780601f1061097b576101008083540402835291602001916109a6565b820191906000526020600020905b81548152906001019060200180831161098957829003601f168201915b505050505061226a565b600c60008154809291906109c390612fd4565b9190505550610b1c565b600e60008260ff1660ff168152602001908152602001600020600001549250610ae660038363ffffffff1681548110610a0957610a08612f16565b5b906000526020600020906007020160000160009054906101000a900473ffffffffffffffffffffffffffffffffffffffff1684600e60008560ff1660ff1681526020019081526020016000206001018054610a6390612f74565b80601f0160208091040260200160405190810160405280929190818152602001828054610a8f90612f74565b8015610adc5780601f10610ab157610100808354040283529160200191610adc565b820191906000526020600020905b815481529060010190602001808311610abf57829003601f168201915b50505050506123d4565b6001600e60008360ff1660ff16815260200190815260200160002060020160006101000a81548160ff0219169083151502179055505b7fc4b230d1688f7a2ef3409b6e06003d342c64f708cc597533ddc50042911e6a0660038363ffffffff1681548110610b5757610b56612f16565b5b906000526020600020906007020160000160009054906101000a900473ffffffffffffffffffffffffffffffffffffffff168483604051610b9a9392919061302b565b60405180910390a15b508080610baf90613062565b9150506105f1565b506001600460000160016101000a81548160ff02191690831515021790555060036000610be49190612615565b505050565b6000600380549050905090565b6000600460000160009054906101000a900460ff16905090565b6000600460000160019054906101000a900460ff16905090565b600560009054906101000a900460ff1681565b60008054906101000a900473ffffffffffffffffffffffffffffffffffffffff1681565b60008054906101000a900473ffffffffffffffffffffffffffffffffffffffff1673ffffffffffffffffffffffffffffffffffffffff163373ffffffffffffffffffffffffffffffffffffffff1614610cb957600080fd5b600560009054906101000a900460ff1615610d09576040517f08c379a0000000000000000000000000000000000000000000000000000000008152600401610d00906130da565b60405180910390fd5b604051806040016040528060001515815260200160011515815250600460008201518160000160006101000a81548160ff02191690831515021790555060208201518160000160016101000a81548160ff02191690831515021790555090505080600260006101000a81548163ffffffff021916908363ffffffff1602179055506001600560006101000a81548160ff0219169083151502179055507fc2310e2df88b40eaa2a81016e4d09ada8ec903f1c189f4d80f0be760413e240d60405160405180910390a1600d60009054906101000a900460ff1661103157610e2b60008054906101000a900473ffffffffffffffffffffffffffffffffffffffff166001604051806060016040528060298152602001613a73602991396001611f09565b610e7160008054906101000a900473ffffffffffffffffffffffffffffffffffffffff166002604051806060016040528060298152602001613ac5602991396002611f09565b610eb760008054906101000a900473ffffffffffffffffffffffffffffffffffffffff1660036040518060600160405280602981526020016139f8602991396003611f09565b610efd60008054906101000a900473ffffffffffffffffffffffffffffffffffffffff166004604051806060016040528060298152602001613a9c602991396004611f09565b610f4360008054906101000a900473ffffffffffffffffffffffffffffffffffffffff166005604051806060016040528060298152602001613b17602991396005611f09565b610f8960008054906101000a900473ffffffffffffffffffffffffffffffffffffffff166006604051806060016040528060298152602001613a4a602991396006611f09565b610fcf60008054906101000a900473ffffffffffffffffffffffffffffffffffffffff166007604051806060016040528060298152602001613a21602991396007611f09565b61101560008054906101000a900473ffffffffffffffffffffffffffffffffffffffff166008604051806060016040528060298152602001613aee602991396008611f09565b6001600d60006101000a81548160ff0219169083151502179055505b50565b60008054906101000a900473ffffffffffffffffffffffffffffffffffffffff1673ffffffffffffffffffffffffffffffffffffffff163373ffffffffffffffffffffffffffffffffffffffff161461108c57600080fd5b600460000160019054906101000a900460ff166110de576040517f08c379a00000000000000000000000000000000000000000000000000000000081526004016110d59061316c565b60405180910390fd5b7fadbc0483f31820e26475072543edda9bb5b02e2de813035d760e99a3f76a42694760405161110d9190612777565b60405180910390a18073ffffffffffffffffffffffffffffffffffffffff166108fc479081150290604051600060405180830381858888f1935050505015801561115b573d6000803e3d6000fd5b5050565b60008054906101000a900473ffffffffffffffffffffffffffffffffffffffff1673ffffffffffffffffffffffffffffffffffffffff163373ffffffffffffffffffffffffffffffffffffffff16146111b757600080fd5b600560009054906101000a900460ff16611206576040517f08c379a00000000000000000000000000000000000000000000000000000000081526004016111fd90612e1e565b60405180910390fd5b600460000160009054906101000a900460ff1615611259576040517f08c379a0000000000000000000000000000000000000000000000000000000008152600401611250906131d8565b60405180910390fd5b600460000160019054906101000a900460ff16156112ac576040517f08c379a00000000000000000000000000000000000000000000000000000000081526004016112a390612ef6565b60405180910390fd5b60005b60068163ffffffff1610156113cc575b60058163ffffffff1614611312576112ee60456003805490508363ffffffff166112e991906131f8565b61255e565b60068263ffffffff166006811061130857611307612f16565b5b0181905550611353565b611333601a6003805490508363ffffffff1661132e91906131f8565b61255e565b60068263ffffffff166006811061134d5761134c612f16565b5b01819055505b6113b560068263ffffffff16600681106113705761136f612f16565b5b0154600680806020026040519081016040528092919082600680156113aa576020028201915b815481526020019060010190808311611396575b5050505050836125ab565b6112bf5780806113c490613062565b9150506112af565b507fde80e6f538e8ecef9774f4c85ea23e72fd023194ba8ae3eb01be7b84c869f7ef60066040516113fd9190613312565b60405180910390a1565b60008054906101000a900473ffffffffffffffffffffffffffffffffffffffff1673ffffffffffffffffffffffffffffffffffffffff163373ffffffffffffffffffffffffffffffffffffffff161461145f57600080fd5b600560009054906101000a900460ff166114ae576040517f08c379a00000000000000000000000000000000000000000000000000000000081526004016114a590613379565b60405180910390fd5b600460000160019054906101000a900460ff166115895760005b6003805490508163ffffffff1610156115875760038163ffffffff16815481106114f5576114f4612f16565b5b906000526020600020906007020160000160009054906101000a900473ffffffffffffffffffffffffffffffffffffffff1673ffffffffffffffffffffffffffffffffffffffff166108fc66022acab15020009081150290604051600060405180830381858888f19350505050158015611573573d6000803e3d6000fd5b50808061157f90613062565b9150506114c8565b505b6000600460000160006101000a81548160ff0219169083151502179055506001600460000160016101000a81548160ff021916908315150217905550600060038054905011156115e257600360006115e19190612615565b5b6000600560006101000a81548160ff0219169083151502179055507ffc2b180437972a94a98d643b705025c6263c595cce057cc3d910384b8d1d210c60405160405180910390a1565b611633612639565b61163b612639565b6000805b6003805490508163ffffffff161015611773573373ffffffffffffffffffffffffffffffffffffffff1660038263ffffffff168154811061168357611682612f16565b5b906000526020600020906007020160000160009054906101000a900473ffffffffffffffffffffffffffffffffffffffff1673ffffffffffffffffffffffffffffffffffffffff1603611760578463ffffffff168263ffffffff16036117515760038163ffffffff16815481106116fd576116fc612f16565b5b9060005260206000209060070201600101600680602002604051908101604052809291908260068015611745576020028201915b815481526020019060010190808311611731575b50505050509250611773565b818061175c90613062565b9250505b808061176b90613062565b91505061163f565b508192505050919050565b611786612639565b600680806020026040519081016040528092919082600680156117be576020028201915b8154815260200190600101908083116117aa575b5050505050905090565b600560009054906101000a900460ff16611817576040517f08c379a000000000000000000000000000000000000000000000000000000000815260040161180e90612e1e565b60405180910390fd5b6006801461185a576040517f08c379a0000000000000000000000000000000000000000000000000000000008152600401611851906133e5565b60405180910390fd5b600460000160009054906101000a900460ff166118ac576040517f08c379a00000000000000000000000000000000000000000000000000000000081526004016118a390613451565b60405180910390fd5b600060019050600260009054906101000a900463ffffffff1663ffffffff16600154436118d99190613471565b10611967576000600460000160006101000a81548160ff0219169083151502179055507fb173eb72fde5d3021f70ce0a9e630f786bcb81b59cde7f9e7f13103eb43cd3ea600060405161192c91906127ad565b60405180910390a1600260009054906101000a900463ffffffff1663ffffffff166001544361195b9190613471565b111561196657600090505b5b60005b600160066119789190613471565b8163ffffffff161015611a21576000838263ffffffff16600681106119a05761199f612f16565b5b60200201511180156119cf57506046838263ffffffff16600681106119c8576119c7612f16565b5b6020020151105b611a0e576040517f08c379a0000000000000000000000000000000000000000000000000000000008152600401611a05906134f1565b60405180910390fd5b8080611a1990613062565b91505061196a565b5060008260016006611a339190613471565b60068110611a4457611a43612f16565b5b6020020151118015611a7a5750601b8260016006611a629190613471565b60068110611a7357611a72612f16565b5b6020020151105b611ab9576040517f08c379a0000000000000000000000000000000000000000000000000000000008152600401611ab090613583565b60405180910390fd5b66022acab15020003414611b02576040517f08c379a0000000000000000000000000000000000000000000000000000000008152600401611af9906135ef565b60405180910390fd5b8015611bc657600060405180604001604052803373ffffffffffffffffffffffffffffffffffffffff168152602001848152509050600381908060018154018082558091505060019003906000526020600020906007020160009091909190915060008201518160000160006101000a81548173ffffffffffffffffffffffffffffffffffffffff021916908373ffffffffffffffffffffffffffffffffffffffff160217905550602082015181600101906006611bc192919061265b565b505050505b5050565b60068160068110611bda57600080fd5b016000915090505481565b6000600260009054906101000a900463ffffffff16905090565b6000600f60003373ffffffffffffffffffffffffffffffffffffffff1673ffffffffffffffffffffffffffffffffffffffff16815260200190815260200160002080549050905090565b60008054906101000a900473ffffffffffffffffffffffffffffffffffffffff1673ffffffffffffffffffffffffffffffffffffffff163373ffffffffffffffffffffffffffffffffffffffff1614611ca157600080fd5b600560009054906101000a900460ff16611cf0576040517f08c379a0000000000000000000000000000000000000000000000000000000008152600401611ce790612e1e565b60405180910390fd5b600460000160019054906101000a900460ff16611d42576040517f08c379a0000000000000000000000000000000000000000000000000000000008152600401611d399061365b565b60405180910390fd5b6000600460000160016101000a81548160ff0219169083151502179055506001600460000160006101000a81548160ff0219169083151502179055507fb173eb72fde5d3021f70ce0a9e630f786bcb81b59cde7f9e7f13103eb43cd3ea6001604051611dae91906127ad565b60405180910390a1436001819055506040518060c00160405280600060ff168152602001600060ff168152602001600060ff168152602001600060ff168152602001600060ff168152602001600060ff168152506006906006611e1292919061269b565b50565b6060600f60003373ffffffffffffffffffffffffffffffffffffffff1673ffffffffffffffffffffffffffffffffffffffff1681526020019081526020016000208281548110611e6857611e67612f16565b5b90600052602060002090600302016001018054611e8490612f74565b80601f0160208091040260200160405190810160405280929190818152602001828054611eb090612f74565b8015611efd5780601f10611ed257610100808354040283529160200191611efd565b820191906000526020600020905b815481529060010190602001808311611ee057829003601f168201915b50505050509050919050565b60008054906101000a900473ffffffffffffffffffffffffffffffffffffffff1673ffffffffffffffffffffffffffffffffffffffff163373ffffffffffffffffffffffffffffffffffffffff1614611f6157600080fd5b600183611f6e91906131f8565b600c819055506000600d60019054906101000a900473ffffffffffffffffffffffffffffffffffffffff1690508073ffffffffffffffffffffffffffffffffffffffff1663d3fc98648686866040518463ffffffff1660e01b8152600401611fd89392919061367b565b600060405180830381600087803b158015611ff257600080fd5b505af1158015612006573d6000803e3d6000fd5b505050506000604051806060016040528086815260200185815260200160001515815250905080600e60008560ff1660ff1681526020019081526020016000206000820151816000015560208201518160010190816120659190613865565b5060408201518160020160006101000a81548160ff021916908315150217905550905050505050505050565b60008060005b6003805490508163ffffffff16101561214a573373ffffffffffffffffffffffffffffffffffffffff1660038263ffffffff16815481106120db576120da612f16565b5b906000526020600020906007020160000160009054906101000a900473ffffffffffffffffffffffffffffffffffffffff1673ffffffffffffffffffffffffffffffffffffffff160361213757818061213390613062565b9250505b808061214290613062565b915050612097565b508091505090565b6003818154811061216257600080fd5b90600052602060002090600702016000915090508060000160009054906101000a900473ffffffffffffffffffffffffffffffffffffffff16905081565b6000806000905060005b600160066121b89190613471565b8163ffffffff16101561225f5760005b600160066121d69190613471565b8163ffffffff16101561224b57848163ffffffff16600681106121fc576121fb612f16565b5b6020020151868363ffffffff166006811061221a57612219612f16565b5b60200201510361223757828061222f90613062565b935050612238565b5b808061224390613062565b9150506121c8565b50808061225790613062565b9150506121aa565b508091505092915050565b6000600d60019054906101000a900473ffffffffffffffffffffffffffffffffffffffff1690508073ffffffffffffffffffffffffffffffffffffffff1663d3fc98648585856040518463ffffffff1660e01b81526004016122ce9392919061367b565b600060405180830381600087803b1580156122e857600080fd5b505af11580156122fc573d6000803e3d6000fd5b5050505060006040518060600160405280858152602001848152602001600115158152509050600f60008673ffffffffffffffffffffffffffffffffffffffff1673ffffffffffffffffffffffffffffffffffffffff1681526020019081526020016000208190806001815401808255809150506001900390600052602060002090600302016000909190919091506000820151816000015560208201518160010190816123aa9190613865565b5060408201518160020160006101000a81548160ff02191690831515021790555050505050505050565b6000600d60019054906101000a900473ffffffffffffffffffffffffffffffffffffffff1690508073ffffffffffffffffffffffffffffffffffffffff1663beabacc860008054906101000a900473ffffffffffffffffffffffffffffffffffffffff1686866040518463ffffffff1660e01b815260040161245893929190613937565b600060405180830381600087803b15801561247257600080fd5b505af1158015612486573d6000803e3d6000fd5b5050505060006040518060600160405280858152602001848152602001600115158152509050600f60008673ffffffffffffffffffffffffffffffffffffffff1673ffffffffffffffffffffffffffffffffffffffff1681526020019081526020016000208190806001815401808255809150506001900390600052602060002090600302016000909190919091506000820151816000015560208201518160010190816125349190613865565b5060408201518160020160006101000a81548160ff02191690831515021790555050505050505050565b6000600183428460405160200161257692919061396e565b6040516020818303038152906040528051906020012060001c61259991906139c6565b6125a391906131f8565b905092915050565b600080600090505b8263ffffffff168163ffffffff16101561260857838163ffffffff16600681106125e0576125df612f16565b5b602002015185036125f557600191505061260e565b808061260090613062565b9150506125b3565b50600090505b9392505050565b508054600082556007029060005260206000209081019061263691906126e0565b50565b6040518060c00160405280600690602082028036833780820191505090505090565b826006810192821561268a579160200282015b8281111561268957825182559160200191906001019061266e565b5b509050612697919061272e565b5090565b82600681019282156126cf579160200282015b828111156126ce578251829060ff169055916020019190600101906126ae565b5b5090506126dc919061272e565b5090565b5b8082111561272a57600080820160006101000a81549073ffffffffffffffffffffffffffffffffffffffff0219169055600182016000612721919061274b565b506007016126e1565b5090565b5b8082111561274757600081600090555060010161272f565b5090565b50806006019061275b919061272e565b50565b6000819050919050565b6127718161275e565b82525050565b600060208201905061278c6000830184612768565b92915050565b60008115159050919050565b6127a781612792565b82525050565b60006020820190506127c2600083018461279e565b92915050565b600073ffffffffffffffffffffffffffffffffffffffff82169050919050565b60006127f3826127c8565b9050919050565b612803816127e8565b82525050565b600060208201905061281e60008301846127fa565b92915050565b6000604051905090565b600080fd5b600080fd5b600063ffffffff82169050919050565b61285181612838565b811461285c57600080fd5b50565b60008135905061286e81612848565b92915050565b60006020828403121561288a5761288961282e565b5b60006128988482850161285f565b91505092915050565b6128aa816127e8565b81146128b557600080fd5b50565b6000813590506128c7816128a1565b92915050565b6000602082840312156128e3576128e261282e565b5b60006128f1848285016128b8565b91505092915050565b600060069050919050565b600081905092915050565b6000819050919050565b6129238161275e565b82525050565b6000612935838361291a565b60208301905092915050565b6000602082019050919050565b612957816128fa565b6129618184612905565b925061296c82612910565b8060005b8381101561299d5781516129848782612929565b965061298f83612941565b925050600181019050612970565b505050505050565b600060c0820190506129ba600083018461294e565b92915050565b600080fd5b6000601f19601f8301169050919050565b7f4e487b7100000000000000000000000000000000000000000000000000000000600052604160045260246000fd5b612a0e826129c5565b810181811067ffffffffffffffff82111715612a2d57612a2c6129d6565b5b80604052505050565b6000612a40612824565b9050612a4c8282612a05565b919050565b600067ffffffffffffffff821115612a6c57612a6b6129d6565b5b602082029050919050565b600080fd5b612a858161275e565b8114612a9057600080fd5b50565b600081359050612aa281612a7c565b92915050565b6000612abb612ab684612a51565b612a36565b90508060208402830185811115612ad557612ad4612a77565b5b835b81811015612afe5780612aea8882612a93565b845260208401935050602081019050612ad7565b5050509392505050565b600082601f830112612b1d57612b1c6129c0565b5b6006612b2a848285612aa8565b91505092915050565b600060c08284031215612b4957612b4861282e565b5b6000612b5784828501612b08565b91505092915050565b600060208284031215612b7657612b7561282e565b5b6000612b8484828501612a93565b91505092915050565b612b9681612838565b82525050565b6000602082019050612bb16000830184612b8d565b92915050565b600081519050919050565b600082825260208201905092915050565b60005b83811015612bf1578082015181840152602081019050612bd6565b83811115612c00576000848401525b50505050565b6000612c1182612bb7565b612c1b8185612bc2565b9350612c2b818560208601612bd3565b612c34816129c5565b840191505092915050565b60006020820190508181036000830152612c598184612c06565b905092915050565b600080fd5b600067ffffffffffffffff821115612c8157612c806129d6565b5b612c8a826129c5565b9050602081019050919050565b82818337600083830152505050565b6000612cb9612cb484612c66565b612a36565b905082815260208101848484011115612cd557612cd4612c61565b5b612ce0848285612c97565b509392505050565b600082601f830112612cfd57612cfc6129c0565b5b8135612d0d848260208601612ca6565b91505092915050565b600060ff82169050919050565b612d2c81612d16565b8114612d3757600080fd5b50565b600081359050612d4981612d23565b92915050565b60008060008060808587031215612d6957612d6861282e565b5b6000612d77878288016128b8565b9450506020612d8887828801612a93565b935050604085013567ffffffffffffffff811115612da957612da8612833565b5b612db587828801612ce8565b9250506060612dc687828801612d3a565b91505092959194509250565b7f4c6f747465727920636c6f736564210000000000000000000000000000000000600082015250565b6000612e08600f83612bc2565b9150612e1382612dd2565b602082019050919050565b60006020820190508181036000830152612e3781612dfb565b9050919050565b7f726f756e64207374696c6c206163746976650000000000000000000000000000600082015250565b6000612e74601283612bc2565b9150612e7f82612e3e565b602082019050919050565b60006020820190508181036000830152612ea381612e67565b9050919050565b7f726f756e642066696e6973686564000000000000000000000000000000000000600082015250565b6000612ee0600e83612bc2565b9150612eeb82612eaa565b602082019050919050565b60006020820190508181036000830152612f0f81612ed3565b9050919050565b7f4e487b7100000000000000000000000000000000000000000000000000000000600052603260045260246000fd5b7f4e487b7100000000000000000000000000000000000000000000000000000000600052602260045260246000fd5b60006002820490506001821680612f8c57607f821691505b602082108103612f9f57612f9e612f45565b5b50919050565b7f4e487b7100000000000000000000000000000000000000000000000000000000600052601160045260246000fd5b6000612fdf8261275e565b91507fffffffffffffffffffffffffffffffffffffffffffffffffffffffffffffffff820361301157613010612fa5565b5b600182019050919050565b61302581612d16565b82525050565b600060608201905061304060008301866127fa565b61304d6020830185612768565b61305a604083018461301c565b949350505050565b600061306d82612838565b915063ffffffff820361308357613082612fa5565b5b600182019050919050565b7f4c6f747465727920616c72656164792075700000000000000000000000000000600082015250565b60006130c4601283612bc2565b91506130cf8261308e565b602082019050919050565b600060208201905081810360008301526130f3816130b7565b9050919050565b7f63616e277420776974686472617720696620726f756e64206973206e6f74206660008201527f696e697368656400000000000000000000000000000000000000000000000000602082015250565b6000613156602783612bc2565b9150613161826130fa565b604082019050919050565b6000602082019050818103600083015261318581613149565b9050919050565b7f726f756e64206973207374696c6c206163746976652100000000000000000000600082015250565b60006131c2601683612bc2565b91506131cd8261318c565b602082019050919050565b600060208201905081810360008301526131f1816131b5565b9050919050565b60006132038261275e565b915061320e8361275e565b9250827fffffffffffffffffffffffffffffffffffffffffffffffffffffffffffffffff0382111561324357613242612fa5565b5b828201905092915050565b600060069050919050565b6000819050919050565b60008160001c9050919050565b6000819050919050565b600061328d61328883613263565b613270565b9050919050565b60006132a0825461327a565b9050919050565b6000600182019050919050565b6132bd8161324e565b6132c78184612905565b92506132d282613259565b8060005b8381101561330a576132e782613294565b6132f18782612929565b96506132fc836132a7565b9250506001810190506132d6565b505050505050565b600060c08201905061332760008301846132b4565b92915050565b7f4c6f747465727920616c726561647920636c6f73656400000000000000000000600082015250565b6000613363601683612bc2565b915061336e8261332d565b602082019050919050565b6000602082019050818103600083015261339281613356565b9050919050565b7f63686f6f73652036206e756d6265727321000000000000000000000000000000600082015250565b60006133cf601183612bc2565b91506133da82613399565b602082019050919050565b600060208201905081810360008301526133fe816133c2565b9050919050565b7f726f756e64206e6f742061637469766500000000000000000000000000000000600082015250565b600061343b601083612bc2565b915061344682613405565b602082019050919050565b6000602082019050818103600083015261346a8161342e565b9050919050565b600061347c8261275e565b91506134878361275e565b92508282101561349a57613499612fa5565b5b828203905092915050565b7f63686f6f7365206e756d62657273206265747765656e203120616e6420363900600082015250565b60006134db601f83612bc2565b91506134e6826134a5565b602082019050919050565b6000602082019050818103600083015261350a816134ce565b9050919050565b7f63686f6f736520706f77657262616c6c206265747765656e203120616e64203260008201527f3600000000000000000000000000000000000000000000000000000000000000602082015250565b600061356d602183612bc2565b915061357882613511565b604082019050919050565b6000602082019050818103600083015261359c81613560565b9050919050565b7f61207469636b657420636f737473203631302730303020677765690000000000600082015250565b60006135d9601b83612bc2565b91506135e4826135a3565b602082019050919050565b60006020820190508181036000830152613608816135cc565b9050919050565b7f726f756e6420697320616c726561647920737461727465640000000000000000600082015250565b6000613645601883612bc2565b91506136508261360f565b602082019050919050565b6000602082019050818103600083015261367481613638565b9050919050565b600060608201905061369060008301866127fa565b61369d6020830185612768565b81810360408301526136af8184612c06565b9050949350505050565b60008190508160005260206000209050919050565b60006020601f8301049050919050565b600082821b905092915050565b60006008830261371b7fffffffffffffffffffffffffffffffffffffffffffffffffffffffffffffffff826136de565b61372586836136de565b95508019841693508086168417925050509392505050565b6000819050919050565b600061376261375d6137588461275e565b61373d565b61275e565b9050919050565b6000819050919050565b61377c83613747565b61379061378882613769565b8484546136eb565b825550505050565b600090565b6137a5613798565b6137b0818484613773565b505050565b5b818110156137d4576137c960008261379d565b6001810190506137b6565b5050565b601f821115613819576137ea816136b9565b6137f3846136ce565b81016020851015613802578190505b61381661380e856136ce565b8301826137b5565b50505b505050565b600082821c905092915050565b600061383c6000198460080261381e565b1980831691505092915050565b6000613855838361382b565b9150826002028217905092915050565b61386e82612bb7565b67ffffffffffffffff811115613887576138866129d6565b5b6138918254612f74565b61389c8282856137d8565b600060209050601f8311600181146138cf57600084156138bd578287015190505b6138c78582613849565b86555061392f565b601f1984166138dd866136b9565b60005b82811015613905578489015182556001820191506020850194506020810190506138e0565b86831015613922578489015161391e601f89168261382b565b8355505b6001600288020188555050505b505050505050565b600060608201905061394c60008301866127fa565b61395960208301856127fa565b6139666040830184612768565b949350505050565b60006040820190506139836000830185612768565b6139906020830184612768565b9392505050565b7f4e487b7100000000000000000000000000000000000000000000000000000000600052601260045260246000fd5b60006139d18261275e565b91506139dc8361275e565b9250826139ec576139eb613997565b5b82820690509291505056fe68747470733a2f2f692e6962622e636f2f53364e683647732f43727970746f2d4475636b332e706e6768747470733a2f2f692e6962622e636f2f544b42734a504d2f43727970746f2d4475636b372e706e6768747470733a2f2f692e6962622e636f2f714336506639472f43727970746f2d4475636b362e706e6768747470733a2f2f692e6962622e636f2f467366306456702f43727970746f2d4475636b312e706e6768747470733a2f2f692e6962622e636f2f77516d6d4b347a2f43727970746f2d4475636b342e706e6768747470733a2f2f692e6962622e636f2f716d46485162362f43727970746f2d4475636b322e706e6768747470733a2f2f692e6962622e636f2f466856763776762f43727970746f2d4475636b382e706e6768747470733a2f2f692e6962622e636f2f483247725835632f43727970746f2d4475636b352e706e67a2646970667358221220dd6515723523e5c0c98774e451ace89b411dd28ff82d4ef97bd42054692d77b964736f6c634300080f0033",
  "immutableReferences": {},
  "source": "//SPDX-License-Identifier: MIT\npragma solidity ^0.8.0;\n\nimport \"./cryptoducks.sol\";\n\ncontract LotteryTry {\n    address public manager;\n\n    struct Round {\n        bool active;\n        bool finished;\n    }\n\n    struct Player {\n        address addr;\n        uint256[6] ticket;\n    }\n\n    uint256 firstBlock;\n    uint32 M;\n\n    event WinningTicket(uint256[6] _ticket);\n    event LotteryCreated();\n    event RoundState(bool round_state);\n    event Prize(address addr, uint256 token, uint8 class);\n    event Revenues(uint256 balance);\n    event LotteryClosed();\n\n    Player[] public players;\n    Round round;\n\n    bool public lotteryUp;\n    uint256[6] public winnerNumbers; // the winning ticket!\n    uint256 tokenIdCounter; // counter for token ID for NFTs\n    bool minted = false; // if NFT are already been minted\n\n    address DKSAddress;\n\n    // NFT represented with a struct: ID, uri and if it's assigned to a user\n    struct DKStoken {\n        uint256 tokenId;\n        string uri;\n        bool assigned;\n    }\n    mapping(uint8 => DKStoken) DKSuri; // mapping from nft class to uri-id\n    mapping(address => DKStoken[]) playerPrize;\n\n    /*\n    Set the lottery manager at contract creation. Takes the address of NFT contract as arguments\n    */\n    constructor(address addr) {\n        DKSAddress = addr;\n        manager = msg.sender;\n    }\n\n    /*\n    modifier for function that can be called only by the manager\n    */\n    modifier onlyManager() {\n        require(msg.sender == manager);\n        _;\n    }\n\n    function createLottery(uint32 m) public onlyManager {\n        require(!lotteryUp, \"Lottery already up\");\n        round = Round(false, true);\n        M = m;\n        lotteryUp = true;\n        emit LotteryCreated();\n        if (!minted) {\n            mintDKS(manager, 1, \"https://i.ibb.co/Fsf0dVp/Crypto-Duck1.png\", 1);\n            mintDKS(manager, 2, \"https://i.ibb.co/qmFHQb6/Crypto-Duck2.png\", 2);\n            mintDKS(manager, 3, \"https://i.ibb.co/S6Nh6Gs/Crypto-Duck3.png\", 3);\n            mintDKS(manager, 4, \"https://i.ibb.co/wQmmK4z/Crypto-Duck4.png\", 4);\n            mintDKS(manager, 5, \"https://i.ibb.co/H2GrX5c/Crypto-Duck5.png\", 5);\n            mintDKS(manager, 6, \"https://i.ibb.co/qC6Pf9G/Crypto-Duck6.png\", 6);\n            mintDKS(manager, 7, \"https://i.ibb.co/TKBsJPM/Crypto-Duck7.png\", 7);\n            mintDKS(manager, 8, \"https://i.ibb.co/FhVv7vv/Crypto-Duck8.png\", 8);\n            minted = true;\n        }\n    }\n\n    /*\n    checks if the previous round is finished, and, if that's the case, starts a new round.\n    */\n    function startNewRound() public onlyManager {\n        require(lotteryUp, \"Lottery closed!\");\n        require(round.finished, \"round is already started\");\n        round.finished = false;\n        round.active = true;\n        emit RoundState(true);\n        firstBlock = block.number;\n        winnerNumbers = [0, 0, 0, 0, 0, 0];\n    }\n\n    /*\n    Function for buying a ticket, takes a uint[] array with 6 elements as argument. \n    The last one is the powerball.\n        ex buy([63,24,32,12,69,1])\n    Round should be active\n    Lottery ticket numbers required in a range from 1 to 69\n    Lottery ticket price required: 0,00061 ether =  610'000 gwei = around 1 euro\n    */\n    function buy(uint256[6] memory ticket) public payable {\n        require(lotteryUp, \"Lottery closed!\");\n        require(ticket.length == 6, \"choose 6 numbers!\");\n        require(round.active, \"round not active\");\n        bool success = true;\n        // check if M blocks has passed\n        if (block.number - firstBlock >= M) {\n            round.active = false;\n            emit RoundState(false);\n            if (block.number - firstBlock > M) success = false;\n        }\n        for (uint32 i = 0; i < ticket.length - 1; i++) {\n            require(\n                ticket[i] > 0 && ticket[i] < 70,\n                \"choose numbers between 1 and 69\"\n            );\n        }\n        require(\n            ticket[ticket.length - 1] > 0 && ticket[ticket.length - 1] < 27,\n            \"choose powerball between 1 and 26\"\n        );\n        require(msg.value == 610000 gwei, \"a ticket costs 610'000 gwei\");\n\n        if (success) {\n            Player memory player = Player(msg.sender, ticket);\n            players.push(player);\n        }\n    }\n\n    /*\n    Aux function that generate a random uint in a range, hashing difficulty and timestamp of the block.\n        ex. random(99) generate a number from 1 to 99\n    */\n    function random(\n        uint256 range,\n        uint256 seed\n    ) private view returns (uint256) {\n        return\n            (uint256(keccak256(abi.encode(block.timestamp, seed))) % range) + 1;\n    }\n\n    /*\n    draw 6 different winning numbers with random function.\n    */\n    function drawNumbers() public onlyManager {\n        require(lotteryUp, \"Lottery closed!\");\n        require(!round.active, \"round is still active!\");\n        require(!round.finished, \"round finished\");\n        for (uint32 i = 0; i < 6; i++) {\n            do {\n                if (i != 5) winnerNumbers[i] = random(69, i + players.length);\n                else winnerNumbers[i] = random(26, i + players.length);\n            } while (checkDuplicates(winnerNumbers[i], winnerNumbers, i)); // i don't want duplicates\n        }\n        emit WinningTicket(winnerNumbers);\n    }\n\n    /*\n    Check if a number is a duplicate in an array\n    */\n    function checkDuplicates(\n        uint256 check,\n        uint256[6] memory array,\n        uint32 index\n    ) private pure returns (bool) {\n        for (uint32 i = 0; i < index; i++) {\n            if (check == array[i]) return true;\n        }\n        return false;\n    }\n\n    // distribute the prizes\n    function givePrizes() public onlyManager {\n        require(lotteryUp, \"Lottery closed!\");\n        require(!round.active, \"round still active\");\n        require(!round.finished, \"round finished\");\n        bool powerball;\n        uint32 commonElements;\n        uint256 tokenToAssign;\n        for (uint32 i = 0; i < players.length; i++) {\n            powerball = false;\n            uint8 class = 0;\n            if (winnerNumbers[5] == players[i].ticket[5]) powerball = true;\n            commonElements = findCommonElements(\n                winnerNumbers,\n                players[i].ticket\n            );\n\n            if (powerball && commonElements == 0) {\n                // class 8\n                class = 8;\n            } else if (commonElements == 1 && !powerball) {\n                // class 7\n                class = 7;\n            } else if (\n                (commonElements == 1 && powerball) ||\n                (commonElements == 2 && !powerball)\n            ) {\n                // class 6\n                class = 6;\n            } else if (\n                (commonElements == 2 && powerball) ||\n                (commonElements == 3 && !powerball)\n            ) {\n                // class 5\n                class = 5;\n            } else if (\n                (commonElements == 3 && powerball) ||\n                (commonElements == 4 && !powerball)\n            ) {\n                // class 4\n                class = 4;\n            } else if (commonElements == 4 && powerball) {\n                // class 3\n                class = 3;\n            } else if (commonElements == 5 && !powerball) {\n                //class 2\n                class = 2;\n            } else if (commonElements == 5 && powerball) {\n                // class 1\n                class = 1;\n            }\n            if (class != 0) {\n                if (DKSuri[class].assigned) {\n                    tokenToAssign = tokenIdCounter; // the next token id assignable\n                    mintOnDemand(\n                        players[i].addr,\n                        tokenToAssign,\n                        DKSuri[class].uri\n                    ); // mint\n                    tokenIdCounter++;\n                } else {\n                    tokenToAssign = DKSuri[class].tokenId; // one of the first minted nfts\n                    transferDKS(\n                        players[i].addr,\n                        tokenToAssign,\n                        DKSuri[class].uri\n                    );\n                    DKSuri[class].assigned = true;\n                } //transfer and flag assigned\n                emit Prize(players[i].addr, tokenToAssign, class);\n            }\n        }\n        round.finished = true; // end the round\n        delete players; // clear players array\n    }\n\n    /*\n    aux function for finding common elements between two arrays\n    */\n    function findCommonElements(\n        uint256[6] memory array,\n        uint256[6] memory ticket\n    ) private pure returns (uint32) {\n        uint32 commonElements = 0;\n        for (uint32 i = 0; i < array.length - 1; i++) {\n            for (uint32 j = 0; j < ticket.length - 1; j++) {\n                if (array[i] == ticket[j]) {\n                    commonElements++;\n                    continue;\n                }\n            }\n        }\n        return commonElements;\n    }\n\n    /*\n    Function to withdraw the revenue of the tickets\n    */\n    function withdraw(address addr) public onlyManager {\n        require(round.finished, \"can't withdraw if round is not finished\");\n        emit Revenues(address(this).balance);\n        payable(addr).transfer(address(this).balance);\n    }\n\n    /*\n    End the round and reset data structures\n    */\n    /*\n    deactivate the lottery contract\n    */\n    function closeLottery() public onlyManager {\n        require(lotteryUp, \"Lottery already closed\");\n        if (!round.finished) {\n            for (uint32 i = 0; i < players.length; i++) {\n                payable(players[i].addr).transfer(0.00061 ether);\n            }\n        }\n        round.active = false;\n        round.finished = true;\n        if (players.length > 0) delete players;\n        lotteryUp = false;\n        emit LotteryClosed();\n    }\n\n    /*\n    Function to mint an NFT, calling Cryptoducks.sol mint function. Only the creator of \n    cryptoduck can mint an NFT,and only the manager of the lottery can use \n    this function. So they are the same person. When you mint a Cryptoduck, you have to specify;\n\n    -owner of the minted nft\n    -unique token id (START FROM 1)\n    -uri of an img or a description\n    -class (from 1 to 8)\n\n    */\n    function mintDKS(\n        address _to,\n        uint256 _tokenId,\n        string memory _uri,\n        uint8 class\n    ) public onlyManager {\n        tokenIdCounter = _tokenId + 1;\n        Cryptoducks DKS = Cryptoducks(DKSAddress);\n        DKS.mint(_to, _tokenId, _uri);\n        DKStoken memory temp = DKStoken(_tokenId, _uri, false);\n        DKSuri[class] = temp;\n    }\n\n    /*\n    function for minting an NFT during the lottery, if there are more winners than the available prizes\n    */\n    function mintOnDemand(\n        address _to,\n        uint256 _tokenId,\n        string memory _uri\n    ) private {\n        Cryptoducks DKS = Cryptoducks(DKSAddress);\n        DKS.mint(_to, _tokenId, _uri);\n        DKStoken memory temp = DKStoken(_tokenId, _uri, true);\n        playerPrize[_to].push(temp);\n    }\n\n    /*\n    function for transfer NFT\n    */\n    function transferDKS(\n        address _to,\n        uint256 _tokenId,\n        string memory _uri\n    ) private {\n        Cryptoducks DKS = Cryptoducks(DKSAddress);\n        DKS.transfer(manager, _to, _tokenId);\n        DKStoken memory temp = DKStoken(_tokenId, _uri, true);\n        playerPrize[_to].push(temp);\n    }\n\n    function getRoundState() public view returns (bool) {\n        return (round.active);\n    }\n\n    function getRoundStateFinished() public view returns (bool) {\n        return (round.finished);\n    }\n\n    function getM() public view returns (uint32) {\n        return (M);\n    }\n\n    function getNumTickets() public view returns (uint256) {\n        return (players.length);\n    }\n\n    function getTicket(uint32 k) public view returns (uint256[6] memory) {\n        uint256[6] memory result;\n        uint32 i = 0;\n        for (uint32 j = 0; j < players.length; j++) {\n            if (players[j].addr == msg.sender) {\n                if (i == k) {\n                    result = players[j].ticket;\n                    break;\n                } else i++;\n            }\n        }\n        return (result);\n    }\n\n    function getNumTicketsByPlayer() public view returns (uint32) {\n        uint32 result;\n        for (uint32 i = 0; i < players.length; i++) {\n            if (players[i].addr == msg.sender) {\n                result++;\n            }\n        }\n        return result;\n    }\n\n    function getWinningNumbers() public view returns (uint256[6] memory) {\n        return (winnerNumbers);\n    }\n\n    function getPrizes(uint256 k) public view returns (string memory) {\n        return playerPrize[msg.sender][k].uri;\n    }\n\n    function getNumPrizes() public view returns (uint256) {\n        return playerPrize[msg.sender].length;\n    }\n}\n",
  "sourcePath": "/Users/antoniopace/Desktop/Lottery-dAPP/contracts/lottery.sol",
  "compiler": {
    "name": "solc",
    "version": "0.8.15+commit.e14f2714.Emscripten.clang"
  },
  "schemaVersion": "3.4.8",
  "updatedAt": "2023-03-20T14:28:36.946Z",
  "networkType": "ethereum",
  "devdoc": {
    "kind": "dev",
    "methods": {},
    "version": 1
  },
  "userdoc": {
    "kind": "user",
    "methods": {},
    "version": 1
  }
}