{
  "contractName": "LotteryTry",
  "abi": [
    {
      "inputs": [
        {
          "internalType": "address",
          "name": "addr",
          "type": "address"
        }
      ],
      "stateMutability": "nonpayable",
      "type": "constructor"
    },
    {
      "anonymous": false,
      "inputs": [],
      "name": "LotteryClosed",
      "type": "event"
    },
    {
      "anonymous": false,
      "inputs": [],
      "name": "LotteryCreated",
      "type": "event"
    },
    {
      "anonymous": false,
      "inputs": [
        {
          "indexed": false,
          "internalType": "address",
          "name": "addr",
          "type": "address"
        },
        {
          "indexed": false,
          "internalType": "uint256",
          "name": "token",
          "type": "uint256"
        },
        {
          "indexed": false,
          "internalType": "uint8",
          "name": "class",
          "type": "uint8"
        }
      ],
      "name": "Prize",
      "type": "event"
    },
    {
      "anonymous": false,
      "inputs": [
        {
          "indexed": false,
          "internalType": "uint256",
          "name": "balance",
          "type": "uint256"
        }
      ],
      "name": "Revenues",
      "type": "event"
    },
    {
      "anonymous": false,
      "inputs": [
        {
          "indexed": false,
          "internalType": "bool",
          "name": "round_state",
          "type": "bool"
        }
      ],
      "name": "RoundState",
      "type": "event"
    },
    {
      "anonymous": false,
      "inputs": [
        {
          "indexed": false,
          "internalType": "uint256[6]",
          "name": "_ticket",
          "type": "uint256[6]"
        }
      ],
      "name": "WinningTicket",
      "type": "event"
    },
    {
      "inputs": [],
      "name": "lotteryUp",
      "outputs": [
        {
          "internalType": "bool",
          "name": "",
          "type": "bool"
        }
      ],
      "stateMutability": "view",
      "type": "function",
      "constant": true
    },
    {
      "inputs": [],
      "name": "manager",
      "outputs": [
        {
          "internalType": "address",
          "name": "",
          "type": "address"
        }
      ],
      "stateMutability": "view",
      "type": "function",
      "constant": true
    },
    {
      "inputs": [
        {
          "internalType": "uint256",
          "name": "",
          "type": "uint256"
        }
      ],
      "name": "players",
      "outputs": [
        {
          "internalType": "address",
          "name": "addr",
          "type": "address"
        }
      ],
      "stateMutability": "view",
      "type": "function",
      "constant": true
    },
    {
      "inputs": [
        {
          "internalType": "uint256",
          "name": "",
          "type": "uint256"
        }
      ],
      "name": "winnerNumbers",
      "outputs": [
        {
          "internalType": "uint256",
          "name": "",
          "type": "uint256"
        }
      ],
      "stateMutability": "view",
      "type": "function",
      "constant": true
    },
    {
      "inputs": [
        {
          "internalType": "uint32",
          "name": "m",
          "type": "uint32"
        }
      ],
      "name": "createLottery",
      "outputs": [],
      "stateMutability": "nonpayable",
      "type": "function"
    },
    {
      "inputs": [],
      "name": "startNewRound",
      "outputs": [],
      "stateMutability": "nonpayable",
      "type": "function"
    },
    {
      "inputs": [
        {
          "internalType": "uint256[6]",
          "name": "ticket",
          "type": "uint256[6]"
        }
      ],
      "name": "buy",
      "outputs": [],
      "stateMutability": "payable",
      "type": "function",
      "payable": true
    },
    {
      "inputs": [],
      "name": "drawNumbers",
      "outputs": [],
      "stateMutability": "nonpayable",
      "type": "function"
    },
    {
      "inputs": [],
      "name": "givePrizes",
      "outputs": [],
      "stateMutability": "nonpayable",
      "type": "function"
    },
    {
      "inputs": [
        {
          "internalType": "address",
          "name": "addr",
          "type": "address"
        }
      ],
      "name": "withdraw",
      "outputs": [],
      "stateMutability": "nonpayable",
      "type": "function"
    },
    {
      "inputs": [],
      "name": "closeLottery",
      "outputs": [],
      "stateMutability": "nonpayable",
      "type": "function"
    },
    {
      "inputs": [
        {
          "internalType": "address",
          "name": "_to",
          "type": "address"
        },
        {
          "internalType": "uint256",
          "name": "_tokenId",
          "type": "uint256"
        },
        {
          "internalType": "string",
          "name": "_uri",
          "type": "string"
        },
        {
          "internalType": "uint8",
          "name": "class",
          "type": "uint8"
        }
      ],
      "name": "mintDKS",
      "outputs": [],
      "stateMutability": "nonpayable",
      "type": "function"
    },
    {
      "inputs": [],
      "name": "getRoundState",
      "outputs": [
        {
          "internalType": "uint8",
          "name": "",
          "type": "uint8"
        }
      ],
      "stateMutability": "view",
      "type": "function",
      "constant": true
    },
    {
      "inputs": [],
      "name": "getM",
      "outputs": [
        {
          "internalType": "uint32",
          "name": "",
          "type": "uint32"
        }
      ],
      "stateMutability": "view",
      "type": "function",
      "constant": true
    },
    {
      "inputs": [],
      "name": "getNumTickets",
      "outputs": [
        {
          "internalType": "uint256",
          "name": "",
          "type": "uint256"
        }
      ],
      "stateMutability": "view",
      "type": "function",
      "constant": true
    },
    {
      "inputs": [
        {
          "internalType": "uint32",
          "name": "k",
          "type": "uint32"
        }
      ],
      "name": "getTicket",
      "outputs": [
        {
          "internalType": "uint256[6]",
          "name": "",
          "type": "uint256[6]"
        }
      ],
      "stateMutability": "view",
      "type": "function",
      "constant": true
    },
    {
      "inputs": [],
      "name": "getNumTicketsByPlayer",
      "outputs": [
        {
          "internalType": "uint32",
          "name": "",
          "type": "uint32"
        }
      ],
      "stateMutability": "view",
      "type": "function",
      "constant": true
    },
    {
      "inputs": [],
      "name": "getWinningNumbers",
      "outputs": [
        {
          "internalType": "uint256[6]",
          "name": "",
          "type": "uint256[6]"
        }
      ],
      "stateMutability": "view",
      "type": "function",
      "constant": true
    },
    {
      "inputs": [
        {
          "internalType": "uint256",
          "name": "k",
          "type": "uint256"
        }
      ],
      "name": "getPrizes",
      "outputs": [
        {
          "internalType": "string",
          "name": "",
          "type": "string"
        }
      ],
      "stateMutability": "view",
      "type": "function",
      "constant": true
    },
    {
      "inputs": [],
      "name": "getNumPrizes",
      "outputs": [
        {
          "internalType": "uint256",
          "name": "",
          "type": "uint256"
        }
      ],
      "stateMutability": "view",
      "type": "function",
      "constant": true
    }
  ],
  "bytecode": "0x60806040526000600460006101000a81548160ff021916908360ff1602179055506000600c60006101000a81548160ff0219169083151502179055503480156200004857600080fd5b5060405162003d8538038062003d8583398181016040528101906200006e919062000160565b80600c60016101000a81548173ffffffffffffffffffffffffffffffffffffffff021916908373ffffffffffffffffffffffffffffffffffffffff160217905550336000806101000a81548173ffffffffffffffffffffffffffffffffffffffff021916908373ffffffffffffffffffffffffffffffffffffffff1602179055505062000192565b600080fd5b600073ffffffffffffffffffffffffffffffffffffffff82169050919050565b60006200012882620000fb565b9050919050565b6200013a816200011b565b81146200014657600080fd5b50565b6000815190506200015a816200012f565b92915050565b600060208284031215620001795762000178620000f6565b5b6000620001898482850162000149565b91505092915050565b613be380620001a26000396000f3fe60806040526004361061011f5760003560e01c806384350e1d116100a0578063bd85948c11610064578063bd85948c1461037e578063cc30779514610395578063d4b20011146103d2578063d8187692146103fb578063f71d96cb146104265761011f565b806384350e1d146102a4578063a8bd5634146102cf578063a8d88202146102eb578063afb4d2ee14610328578063b857fc65146103535761011f565b80634a7864dd116100e75780634a7864dd146101e757806351cff8d914610210578063676c902f146102395780636fd0981614610250578063816258f1146102675761011f565b806306d5ee54146101245780630b5adfff1461013b578063293c29581461016657806343a2828a14610191578063481c6a75146101bc575b600080fd5b34801561013057600080fd5b50610139610463565b005b34801561014757600080fd5b50610150610bb5565b60405161015d919061275e565b60405180910390f35b34801561017257600080fd5b5061017b610bc2565b6040516101889190612795565b60405180910390f35b34801561019d57600080fd5b506101a6610bd9565b6040516101b391906127cb565b60405180910390f35b3480156101c857600080fd5b506101d1610bec565b6040516101de9190612827565b60405180910390f35b3480156101f357600080fd5b5061020e60048036038101906102099190612892565b610c10565b005b34801561021c57600080fd5b50610237600480360381019061023291906128eb565b610f9f565b005b34801561024557600080fd5b5061024e6110cd565b005b34801561025c57600080fd5b50610265611350565b005b34801561027357600080fd5b5061028e60048036038101906102899190612892565b611557565b60405161029b91906129c3565b60405180910390f35b3480156102b057600080fd5b506102b96116aa565b6040516102c691906129c3565b60405180910390f35b6102e960048036038101906102e49190612b51565b6116f5565b005b3480156102f757600080fd5b50610312600480360381019061030d9190612b7e565b611b47565b60405161031f919061275e565b60405180910390f35b34801561033457600080fd5b5061033d611b62565b60405161034a9190612bba565b60405180910390f35b34801561035f57600080fd5b50610368611b7c565b604051610375919061275e565b60405180910390f35b34801561038a57600080fd5b50610393611bc6565b005b3480156103a157600080fd5b506103bc60048036038101906103b79190612b7e565b611d75565b6040516103c99190612c5d565b60405180910390f35b3480156103de57600080fd5b506103f960048036038101906103f49190612d60565b611e69565b005b34801561040757600080fd5b50610410611ff1565b60405161041d9190612bba565b60405180910390f35b34801561043257600080fd5b5061044d60048036038101906104489190612b7e565b6120b2565b60405161045a9190612827565b60405180910390f35b60008054906101000a900473ffffffffffffffffffffffffffffffffffffffff1673ffffffffffffffffffffffffffffffffffffffff163373ffffffffffffffffffffffffffffffffffffffff16146104bb57600080fd5b600460019054906101000a900460ff1661050a576040517f08c379a000000000000000000000000000000000000000000000000000000000815260040161050190612e2f565b60405180910390fd5b6001600460009054906101000a900460ff1660ff160361055f576040517f08c379a000000000000000000000000000000000000000000000000000000000815260040161055690612e9b565b60405180910390fd5b6000600460009054906101000a900460ff1660ff16036105b4576040517f08c379a00000000000000000000000000000000000000000000000000000000081526004016105ab90612f07565b60405180910390fd5b600080600080600090505b6003805490508163ffffffff161015610b855760009350600060038263ffffffff16815481106105f2576105f1612f27565b5b906000526020600020906007020160010160056006811061061657610615612f27565b5b01546005806006811061062c5761062b612f27565b5b01540361063857600194505b6106e56005600680602002604051908101604052809291908260068015610674576020028201915b815481526020019060010190808311610660575b505050505060038463ffffffff168154811061069357610692612f27565b5b90600052602060002090600702016001016006806020026040519081016040528092919082600680156106db576020028201915b8154815260200190600101908083116106c7575b5050505050612100565b93508480156106fa575060008463ffffffff16145b156107085760089050610845565b60018463ffffffff1614801561071c575084155b1561072a5760079050610844565b60018463ffffffff1614801561073d5750845b80610758575060028463ffffffff16148015610757575084155b5b156107665760069050610843565b60028463ffffffff161480156107795750845b80610794575060038463ffffffff16148015610793575084155b5b156107a25760059050610842565b60038463ffffffff161480156107b55750845b806107d0575060048463ffffffff161480156107cf575084155b5b156107de5760049050610841565b60048463ffffffff161480156107f15750845b156107ff5760039050610840565b60058463ffffffff16148015610813575084155b15610821576002905061083f565b60058463ffffffff161480156108345750845b1561083e57600190505b5b5b5b5b5b5b5b60008160ff1614610b7157600d60008260ff1660ff16815260200190815260200160002060020160009054906101000a900460ff161561099b57600b54925061097e60038363ffffffff16815481106108a1576108a0612f27565b5b906000526020600020906007020160000160009054906101000a900473ffffffffffffffffffffffffffffffffffffffff1684600d60008560ff1660ff16815260200190815260200160002060010180546108fb90612f85565b80601f016020809104026020016040519081016040528092919081815260200182805461092790612f85565b80156109745780601f1061094957610100808354040283529160200191610974565b820191906000526020600020905b81548152906001019060200180831161095757829003601f168201915b50505050506121ca565b600b600081548092919061099190612fe5565b9190505550610aea565b600d60008260ff1660ff168152602001908152602001600020600001549250610ab460038363ffffffff16815481106109d7576109d6612f27565b5b906000526020600020906007020160000160009054906101000a900473ffffffffffffffffffffffffffffffffffffffff1684600d60008560ff1660ff1681526020019081526020016000206001018054610a3190612f85565b80601f0160208091040260200160405190810160405280929190818152602001828054610a5d90612f85565b8015610aaa5780601f10610a7f57610100808354040283529160200191610aaa565b820191906000526020600020905b815481529060010190602001808311610a8d57829003601f168201915b5050505050612334565b6001600d60008360ff1660ff16815260200190815260200160002060020160006101000a81548160ff0219169083151502179055505b7fc4b230d1688f7a2ef3409b6e06003d342c64f708cc597533ddc50042911e6a0660038363ffffffff1681548110610b2557610b24612f27565b5b906000526020600020906007020160000160009054906101000a900473ffffffffffffffffffffffffffffffffffffffff168483604051610b689392919061302d565b60405180910390a15b508080610b7d90613064565b9150506105bf565b506000600460006101000a81548160ff021916908360ff16021790555060036000610bb091906125fc565b505050565b6000600380549050905090565b6000600460009054906101000a900460ff16905090565b600460019054906101000a900460ff1681565b60008054906101000a900473ffffffffffffffffffffffffffffffffffffffff1681565b60008054906101000a900473ffffffffffffffffffffffffffffffffffffffff1673ffffffffffffffffffffffffffffffffffffffff163373ffffffffffffffffffffffffffffffffffffffff1614610c6857600080fd5b600460019054906101000a900460ff1615610cb8576040517f08c379a0000000000000000000000000000000000000000000000000000000008152600401610caf906130dc565b60405180910390fd5b6000600460006101000a81548160ff021916908360ff16021790555080600260006101000a81548163ffffffff021916908363ffffffff1602179055506001600460016101000a81548160ff0219169083151502179055507fc2310e2df88b40eaa2a81016e4d09ada8ec903f1c189f4d80f0be760413e240d60405160405180910390a1600c60009054906101000a900460ff16610f9c57610d9660008054906101000a900473ffffffffffffffffffffffffffffffffffffffff166001604051806060016040528060298152602001613ae1602991396001611e69565b610ddc60008054906101000a900473ffffffffffffffffffffffffffffffffffffffff166002604051806060016040528060298152602001613b33602991396002611e69565b610e2260008054906101000a900473ffffffffffffffffffffffffffffffffffffffff166003604051806060016040528060298152602001613a66602991396003611e69565b610e6860008054906101000a900473ffffffffffffffffffffffffffffffffffffffff166004604051806060016040528060298152602001613b0a602991396004611e69565b610eae60008054906101000a900473ffffffffffffffffffffffffffffffffffffffff166005604051806060016040528060298152602001613b85602991396005611e69565b610ef460008054906101000a900473ffffffffffffffffffffffffffffffffffffffff166006604051806060016040528060298152602001613ab8602991396006611e69565b610f3a60008054906101000a900473ffffffffffffffffffffffffffffffffffffffff166007604051806060016040528060298152602001613a8f602991396007611e69565b610f8060008054906101000a900473ffffffffffffffffffffffffffffffffffffffff166008604051806060016040528060298152602001613b5c602991396008611e69565b6001600c60006101000a81548160ff0219169083151502179055505b50565b60008054906101000a900473ffffffffffffffffffffffffffffffffffffffff1673ffffffffffffffffffffffffffffffffffffffff163373ffffffffffffffffffffffffffffffffffffffff1614610ff757600080fd5b6000600460009054906101000a900460ff1660ff161461104c576040517f08c379a00000000000000000000000000000000000000000000000000000000081526004016110439061316e565b60405180910390fd5b7fadbc0483f31820e26475072543edda9bb5b02e2de813035d760e99a3f76a42694760405161107b919061275e565b60405180910390a18073ffffffffffffffffffffffffffffffffffffffff166108fc479081150290604051600060405180830381858888f193505050501580156110c9573d6000803e3d6000fd5b5050565b60008054906101000a900473ffffffffffffffffffffffffffffffffffffffff1673ffffffffffffffffffffffffffffffffffffffff163373ffffffffffffffffffffffffffffffffffffffff161461112557600080fd5b600460019054906101000a900460ff16611174576040517f08c379a000000000000000000000000000000000000000000000000000000000815260040161116b90612e2f565b60405180910390fd5b6001600460009054906101000a900460ff1660ff16036111c9576040517f08c379a00000000000000000000000000000000000000000000000000000000081526004016111c0906131da565b60405180910390fd5b6000600460009054906101000a900460ff1660ff160361121e576040517f08c379a000000000000000000000000000000000000000000000000000000000815260040161121590612f07565b60405180910390fd5b60005b6006811015611315575b6005811461126c5761124e60456003805490508361124991906131fa565b6124be565b6005826006811061126257611261612f27565b5b01819055506112a1565b611287601a6003805490508361128291906131fa565b6124be565b6005826006811061129b5761129a612f27565b5b01819055505b6112fe600582600681106112b8576112b7612f27565b5b015460056006806020026040519081016040528092919082600680156112f3576020028201915b8154815260200190600101908083116112df575b50505050508361250b565b61122b57808061130d90612fe5565b915050611221565b507fde80e6f538e8ecef9774f4c85ea23e72fd023194ba8ae3eb01be7b84c869f7ef60056040516113469190613314565b60405180910390a1565b60008054906101000a900473ffffffffffffffffffffffffffffffffffffffff1673ffffffffffffffffffffffffffffffffffffffff163373ffffffffffffffffffffffffffffffffffffffff16146113a857600080fd5b600460019054906101000a900460ff166113f7576040517f08c379a00000000000000000000000000000000000000000000000000000000081526004016113ee9061337b565b60405180910390fd5b6000600460009054906101000a900460ff1660ff16146114d55760005b6003805490508163ffffffff1610156114d35760038163ffffffff168154811061144157611440612f27565b5b906000526020600020906007020160000160009054906101000a900473ffffffffffffffffffffffffffffffffffffffff1673ffffffffffffffffffffffffffffffffffffffff166108fc66022acab15020009081150290604051600060405180830381858888f193505050501580156114bf573d6000803e3d6000fd5b5080806114cb90613064565b915050611414565b505b6000600460006101000a81548160ff021916908360ff1602179055506000600380549050111561150e576003600061150d91906125fc565b5b6000600460016101000a81548160ff0219169083151502179055507ffc2b180437972a94a98d643b705025c6263c595cce057cc3d910384b8d1d210c60405160405180910390a1565b61155f612620565b611567612620565b6000805b6003805490508163ffffffff16101561169f573373ffffffffffffffffffffffffffffffffffffffff1660038263ffffffff16815481106115af576115ae612f27565b5b906000526020600020906007020160000160009054906101000a900473ffffffffffffffffffffffffffffffffffffffff1673ffffffffffffffffffffffffffffffffffffffff160361168c578463ffffffff168263ffffffff160361167d5760038163ffffffff168154811061162957611628612f27565b5b9060005260206000209060070201600101600680602002604051908101604052809291908260068015611671576020028201915b81548152602001906001019080831161165d575b5050505050925061169f565b818061168890613064565b9250505b808061169790613064565b91505061156b565b508192505050919050565b6116b2612620565b60056006806020026040519081016040528092919082600680156116eb576020028201915b8154815260200190600101908083116116d7575b5050505050905090565b600460019054906101000a900460ff16611744576040517f08c379a000000000000000000000000000000000000000000000000000000000815260040161173b90612e2f565b60405180910390fd5b60068014611787576040517f08c379a000000000000000000000000000000000000000000000000000000000815260040161177e906133e7565b60405180910390fd5b6001600460009054906101000a900460ff1660ff16146117dc576040517f08c379a00000000000000000000000000000000000000000000000000000000081526004016117d390613453565b60405180910390fd5b600060019050600260009054906101000a900463ffffffff1663ffffffff16600154436118099190613473565b10611895576002600460006101000a81548160ff021916908360ff1602179055507fb173eb72fde5d3021f70ce0a9e630f786bcb81b59cde7f9e7f13103eb43cd3ea600060405161185a91906127cb565b60405180910390a1600260009054906101000a900463ffffffff1663ffffffff16600154436118899190613473565b111561189457600090505b5b60005b600160066118a69190613473565b8163ffffffff16101561199e576000838263ffffffff16600681106118ce576118cd612f27565b5b60200201511180156118fd57506046838263ffffffff16600681106118f6576118f5612f27565b5b6020020151105b61193c576040517f08c379a0000000000000000000000000000000000000000000000000000000008152600401611933906134f3565b60405180910390fd5b61194c8163ffffffff168461256f565b61198b576040517f08c379a00000000000000000000000000000000000000000000000000000000081526004016119829061355f565b60405180910390fd5b808061199690613064565b915050611898565b50600082600160066119b09190613473565b600681106119c1576119c0612f27565b5b60200201511180156119f75750601b82600160066119df9190613473565b600681106119f0576119ef612f27565b5b6020020151105b611a36576040517f08c379a0000000000000000000000000000000000000000000000000000000008152600401611a2d906135f1565b60405180910390fd5b66022acab15020003414611a7f576040517f08c379a0000000000000000000000000000000000000000000000000000000008152600401611a769061365d565b60405180910390fd5b8015611b4357600060405180604001604052803373ffffffffffffffffffffffffffffffffffffffff168152602001848152509050600381908060018154018082558091505060019003906000526020600020906007020160009091909190915060008201518160000160006101000a81548173ffffffffffffffffffffffffffffffffffffffff021916908373ffffffffffffffffffffffffffffffffffffffff160217905550602082015181600101906006611b3e929190612642565b505050505b5050565b60058160068110611b5757600080fd5b016000915090505481565b6000600260009054906101000a900463ffffffff16905090565b6000600e60003373ffffffffffffffffffffffffffffffffffffffff1673ffffffffffffffffffffffffffffffffffffffff16815260200190815260200160002080549050905090565b60008054906101000a900473ffffffffffffffffffffffffffffffffffffffff1673ffffffffffffffffffffffffffffffffffffffff163373ffffffffffffffffffffffffffffffffffffffff1614611c1e57600080fd5b600460019054906101000a900460ff16611c6d576040517f08c379a0000000000000000000000000000000000000000000000000000000008152600401611c6490612e2f565b60405180910390fd5b6000600460009054906101000a900460ff1660ff1614611cc2576040517f08c379a0000000000000000000000000000000000000000000000000000000008152600401611cb9906136c9565b60405180910390fd5b6001600460006101000a81548160ff021916908360ff1602179055507fb173eb72fde5d3021f70ce0a9e630f786bcb81b59cde7f9e7f13103eb43cd3ea6001604051611d0e91906127cb565b60405180910390a1436001819055506040518060c00160405280600060ff168152602001600060ff168152602001600060ff168152602001600060ff168152602001600060ff168152602001600060ff168152506005906006611d72929190612682565b50565b6060600e60003373ffffffffffffffffffffffffffffffffffffffff1673ffffffffffffffffffffffffffffffffffffffff1681526020019081526020016000208281548110611dc857611dc7612f27565b5b90600052602060002090600302016001018054611de490612f85565b80601f0160208091040260200160405190810160405280929190818152602001828054611e1090612f85565b8015611e5d5780601f10611e3257610100808354040283529160200191611e5d565b820191906000526020600020905b815481529060010190602001808311611e4057829003601f168201915b50505050509050919050565b60008054906101000a900473ffffffffffffffffffffffffffffffffffffffff1673ffffffffffffffffffffffffffffffffffffffff163373ffffffffffffffffffffffffffffffffffffffff1614611ec157600080fd5b600183611ece91906131fa565b600b819055506000600c60019054906101000a900473ffffffffffffffffffffffffffffffffffffffff1690508073ffffffffffffffffffffffffffffffffffffffff1663d3fc98648686866040518463ffffffff1660e01b8152600401611f38939291906136e9565b600060405180830381600087803b158015611f5257600080fd5b505af1158015611f66573d6000803e3d6000fd5b505050506000604051806060016040528086815260200185815260200160001515815250905080600d60008560ff1660ff168152602001908152602001600020600082015181600001556020820151816001019081611fc591906138d3565b5060408201518160020160006101000a81548160ff021916908315150217905550905050505050505050565b60008060005b6003805490508163ffffffff1610156120aa573373ffffffffffffffffffffffffffffffffffffffff1660038263ffffffff168154811061203b5761203a612f27565b5b906000526020600020906007020160000160009054906101000a900473ffffffffffffffffffffffffffffffffffffffff1673ffffffffffffffffffffffffffffffffffffffff160361209757818061209390613064565b9250505b80806120a290613064565b915050611ff7565b508091505090565b600381815481106120c257600080fd5b90600052602060002090600702016000915090508060000160009054906101000a900473ffffffffffffffffffffffffffffffffffffffff16905081565b6000806000905060005b600160066121189190613473565b8163ffffffff1610156121bf5760005b600160066121369190613473565b8163ffffffff1610156121ab57848163ffffffff166006811061215c5761215b612f27565b5b6020020151868363ffffffff166006811061217a57612179612f27565b5b60200201510361219757828061218f90613064565b935050612198565b5b80806121a390613064565b915050612128565b5080806121b790613064565b91505061210a565b508091505092915050565b6000600c60019054906101000a900473ffffffffffffffffffffffffffffffffffffffff1690508073ffffffffffffffffffffffffffffffffffffffff1663d3fc98648585856040518463ffffffff1660e01b815260040161222e939291906136e9565b600060405180830381600087803b15801561224857600080fd5b505af115801561225c573d6000803e3d6000fd5b5050505060006040518060600160405280858152602001848152602001600115158152509050600e60008673ffffffffffffffffffffffffffffffffffffffff1673ffffffffffffffffffffffffffffffffffffffff16815260200190815260200160002081908060018154018082558091505060019003906000526020600020906003020160009091909190915060008201518160000155602082015181600101908161230a91906138d3565b5060408201518160020160006101000a81548160ff02191690831515021790555050505050505050565b6000600c60019054906101000a900473ffffffffffffffffffffffffffffffffffffffff1690508073ffffffffffffffffffffffffffffffffffffffff1663beabacc860008054906101000a900473ffffffffffffffffffffffffffffffffffffffff1686866040518463ffffffff1660e01b81526004016123b8939291906139a5565b600060405180830381600087803b1580156123d257600080fd5b505af11580156123e6573d6000803e3d6000fd5b5050505060006040518060600160405280858152602001848152602001600115158152509050600e60008673ffffffffffffffffffffffffffffffffffffffff1673ffffffffffffffffffffffffffffffffffffffff16815260200190815260200160002081908060018154018082558091505060019003906000526020600020906003020160009091909190915060008201518160000155602082015181600101908161249491906138d3565b5060408201518160020160006101000a81548160ff02191690831515021790555050505050505050565b600060018342846040516020016124d69291906139dc565b6040516020818303038152906040528051906020012060001c6124f99190613a34565b61250391906131fa565b905092915050565b600080600090505b828163ffffffff16101561256257838163ffffffff166006811061253a57612539612f27565b5b6020020151850361254f576001915050612568565b808061255a90613064565b915050612513565b50600090505b9392505050565b600080600090505b60068163ffffffff161080156125935750838163ffffffff1614155b156125f057828163ffffffff16600681106125b1576125b0612f27565b5b60200201518385600681106125c9576125c8612f27565b5b6020020151036125dd5760009150506125f6565b80806125e890613064565b915050612577565b50600190505b92915050565b508054600082556007029060005260206000209081019061261d91906126c7565b50565b6040518060c00160405280600690602082028036833780820191505090505090565b8260068101928215612671579160200282015b82811115612670578251825591602001919060010190612655565b5b50905061267e9190612715565b5090565b82600681019282156126b6579160200282015b828111156126b5578251829060ff16905591602001919060010190612695565b5b5090506126c39190612715565b5090565b5b8082111561271157600080820160006101000a81549073ffffffffffffffffffffffffffffffffffffffff02191690556001820160006127089190612732565b506007016126c8565b5090565b5b8082111561272e576000816000905550600101612716565b5090565b5080600601906127429190612715565b50565b6000819050919050565b61275881612745565b82525050565b6000602082019050612773600083018461274f565b92915050565b600060ff82169050919050565b61278f81612779565b82525050565b60006020820190506127aa6000830184612786565b92915050565b60008115159050919050565b6127c5816127b0565b82525050565b60006020820190506127e060008301846127bc565b92915050565b600073ffffffffffffffffffffffffffffffffffffffff82169050919050565b6000612811826127e6565b9050919050565b61282181612806565b82525050565b600060208201905061283c6000830184612818565b92915050565b6000604051905090565b600080fd5b600080fd5b600063ffffffff82169050919050565b61286f81612856565b811461287a57600080fd5b50565b60008135905061288c81612866565b92915050565b6000602082840312156128a8576128a761284c565b5b60006128b68482850161287d565b91505092915050565b6128c881612806565b81146128d357600080fd5b50565b6000813590506128e5816128bf565b92915050565b6000602082840312156129015761290061284c565b5b600061290f848285016128d6565b91505092915050565b600060069050919050565b600081905092915050565b6000819050919050565b61294181612745565b82525050565b60006129538383612938565b60208301905092915050565b6000602082019050919050565b61297581612918565b61297f8184612923565b925061298a8261292e565b8060005b838110156129bb5781516129a28782612947565b96506129ad8361295f565b92505060018101905061298e565b505050505050565b600060c0820190506129d8600083018461296c565b92915050565b600080fd5b6000601f19601f8301169050919050565b7f4e487b7100000000000000000000000000000000000000000000000000000000600052604160045260246000fd5b612a2c826129e3565b810181811067ffffffffffffffff82111715612a4b57612a4a6129f4565b5b80604052505050565b6000612a5e612842565b9050612a6a8282612a23565b919050565b600067ffffffffffffffff821115612a8a57612a896129f4565b5b602082029050919050565b600080fd5b612aa381612745565b8114612aae57600080fd5b50565b600081359050612ac081612a9a565b92915050565b6000612ad9612ad484612a6f565b612a54565b90508060208402830185811115612af357612af2612a95565b5b835b81811015612b1c5780612b088882612ab1565b845260208401935050602081019050612af5565b5050509392505050565b600082601f830112612b3b57612b3a6129de565b5b6006612b48848285612ac6565b91505092915050565b600060c08284031215612b6757612b6661284c565b5b6000612b7584828501612b26565b91505092915050565b600060208284031215612b9457612b9361284c565b5b6000612ba284828501612ab1565b91505092915050565b612bb481612856565b82525050565b6000602082019050612bcf6000830184612bab565b92915050565b600081519050919050565b600082825260208201905092915050565b60005b83811015612c0f578082015181840152602081019050612bf4565b83811115612c1e576000848401525b50505050565b6000612c2f82612bd5565b612c398185612be0565b9350612c49818560208601612bf1565b612c52816129e3565b840191505092915050565b60006020820190508181036000830152612c778184612c24565b905092915050565b600080fd5b600067ffffffffffffffff821115612c9f57612c9e6129f4565b5b612ca8826129e3565b9050602081019050919050565b82818337600083830152505050565b6000612cd7612cd284612c84565b612a54565b905082815260208101848484011115612cf357612cf2612c7f565b5b612cfe848285612cb5565b509392505050565b600082601f830112612d1b57612d1a6129de565b5b8135612d2b848260208601612cc4565b91505092915050565b612d3d81612779565b8114612d4857600080fd5b50565b600081359050612d5a81612d34565b92915050565b60008060008060808587031215612d7a57612d7961284c565b5b6000612d88878288016128d6565b9450506020612d9987828801612ab1565b935050604085013567ffffffffffffffff811115612dba57612db9612851565b5b612dc687828801612d06565b9250506060612dd787828801612d4b565b91505092959194509250565b7f4c6f747465727920636c6f736564210000000000000000000000000000000000600082015250565b6000612e19600f83612be0565b9150612e2482612de3565b602082019050919050565b60006020820190508181036000830152612e4881612e0c565b9050919050565b7f726f756e64207374696c6c206163746976650000000000000000000000000000600082015250565b6000612e85601283612be0565b9150612e9082612e4f565b602082019050919050565b60006020820190508181036000830152612eb481612e78565b9050919050565b7f726f756e642066696e6973686564000000000000000000000000000000000000600082015250565b6000612ef1600e83612be0565b9150612efc82612ebb565b602082019050919050565b60006020820190508181036000830152612f2081612ee4565b9050919050565b7f4e487b7100000000000000000000000000000000000000000000000000000000600052603260045260246000fd5b7f4e487b7100000000000000000000000000000000000000000000000000000000600052602260045260246000fd5b60006002820490506001821680612f9d57607f821691505b602082108103612fb057612faf612f56565b5b50919050565b7f4e487b7100000000000000000000000000000000000000000000000000000000600052601160045260246000fd5b6000612ff082612745565b91507fffffffffffffffffffffffffffffffffffffffffffffffffffffffffffffffff820361302257613021612fb6565b5b600182019050919050565b60006060820190506130426000830186612818565b61304f602083018561274f565b61305c6040830184612786565b949350505050565b600061306f82612856565b915063ffffffff820361308557613084612fb6565b5b600182019050919050565b7f4c6f747465727920616c72656164792075700000000000000000000000000000600082015250565b60006130c6601283612be0565b91506130d182613090565b602082019050919050565b600060208201905081810360008301526130f5816130b9565b9050919050565b7f63616e277420776974686472617720696620726f756e64206973206e6f74206660008201527f696e697368656400000000000000000000000000000000000000000000000000602082015250565b6000613158602783612be0565b9150613163826130fc565b604082019050919050565b600060208201905081810360008301526131878161314b565b9050919050565b7f726f756e64206973207374696c6c206163746976652100000000000000000000600082015250565b60006131c4601683612be0565b91506131cf8261318e565b602082019050919050565b600060208201905081810360008301526131f3816131b7565b9050919050565b600061320582612745565b915061321083612745565b9250827fffffffffffffffffffffffffffffffffffffffffffffffffffffffffffffffff0382111561324557613244612fb6565b5b828201905092915050565b600060069050919050565b6000819050919050565b60008160001c9050919050565b6000819050919050565b600061328f61328a83613265565b613272565b9050919050565b60006132a2825461327c565b9050919050565b6000600182019050919050565b6132bf81613250565b6132c98184612923565b92506132d48261325b565b8060005b8381101561330c576132e982613296565b6132f38782612947565b96506132fe836132a9565b9250506001810190506132d8565b505050505050565b600060c08201905061332960008301846132b6565b92915050565b7f4c6f747465727920616c726561647920636c6f73656400000000000000000000600082015250565b6000613365601683612be0565b91506133708261332f565b602082019050919050565b6000602082019050818103600083015261339481613358565b9050919050565b7f63686f6f73652036206e756d6265727321000000000000000000000000000000600082015250565b60006133d1601183612be0565b91506133dc8261339b565b602082019050919050565b60006020820190508181036000830152613400816133c4565b9050919050565b7f726f756e64206e6f742061637469766500000000000000000000000000000000600082015250565b600061343d601083612be0565b915061344882613407565b602082019050919050565b6000602082019050818103600083015261346c81613430565b9050919050565b600061347e82612745565b915061348983612745565b92508282101561349c5761349b612fb6565b5b828203905092915050565b7f63686f6f7365206e756d62657273206265747765656e203120616e6420363900600082015250565b60006134dd601f83612be0565b91506134e8826134a7565b602082019050919050565b6000602082019050818103600083015261350c816134d0565b9050919050565b7f6475706c696361746573206e756d62657220696e20746865207469636b657400600082015250565b6000613549601f83612be0565b915061355482613513565b602082019050919050565b600060208201905081810360008301526135788161353c565b9050919050565b7f63686f6f736520706f77657262616c6c206265747765656e203120616e64203260008201527f3600000000000000000000000000000000000000000000000000000000000000602082015250565b60006135db602183612be0565b91506135e68261357f565b604082019050919050565b6000602082019050818103600083015261360a816135ce565b9050919050565b7f61207469636b657420636f737473203631302730303020677765690000000000600082015250565b6000613647601b83612be0565b915061365282613611565b602082019050919050565b600060208201905081810360008301526136768161363a565b9050919050565b7f726f756e6420697320616c726561647920737461727465640000000000000000600082015250565b60006136b3601883612be0565b91506136be8261367d565b602082019050919050565b600060208201905081810360008301526136e2816136a6565b9050919050565b60006060820190506136fe6000830186612818565b61370b602083018561274f565b818103604083015261371d8184612c24565b9050949350505050565b60008190508160005260206000209050919050565b60006020601f8301049050919050565b600082821b905092915050565b6000600883026137897fffffffffffffffffffffffffffffffffffffffffffffffffffffffffffffffff8261374c565b613793868361374c565b95508019841693508086168417925050509392505050565b6000819050919050565b60006137d06137cb6137c684612745565b6137ab565b612745565b9050919050565b6000819050919050565b6137ea836137b5565b6137fe6137f6826137d7565b848454613759565b825550505050565b600090565b613813613806565b61381e8184846137e1565b505050565b5b818110156138425761383760008261380b565b600181019050613824565b5050565b601f8211156138875761385881613727565b6138618461373c565b81016020851015613870578190505b61388461387c8561373c565b830182613823565b50505b505050565b600082821c905092915050565b60006138aa6000198460080261388c565b1980831691505092915050565b60006138c38383613899565b9150826002028217905092915050565b6138dc82612bd5565b67ffffffffffffffff8111156138f5576138f46129f4565b5b6138ff8254612f85565b61390a828285613846565b600060209050601f83116001811461393d576000841561392b578287015190505b61393585826138b7565b86555061399d565b601f19841661394b86613727565b60005b828110156139735784890151825560018201915060208501945060208101905061394e565b86831015613990578489015161398c601f891682613899565b8355505b6001600288020188555050505b505050505050565b60006060820190506139ba6000830186612818565b6139c76020830185612818565b6139d4604083018461274f565b949350505050565b60006040820190506139f1600083018561274f565b6139fe602083018461274f565b9392505050565b7f4e487b7100000000000000000000000000000000000000000000000000000000600052601260045260246000fd5b6000613a3f82612745565b9150613a4a83612745565b925082613a5a57613a59613a05565b5b82820690509291505056fe68747470733a2f2f692e6962622e636f2f53364e683647732f43727970746f2d4475636b332e706e6768747470733a2f2f692e6962622e636f2f544b42734a504d2f43727970746f2d4475636b372e706e6768747470733a2f2f692e6962622e636f2f714336506639472f43727970746f2d4475636b362e706e6768747470733a2f2f692e6962622e636f2f467366306456702f43727970746f2d4475636b312e706e6768747470733a2f2f692e6962622e636f2f77516d6d4b347a2f43727970746f2d4475636b342e706e6768747470733a2f2f692e6962622e636f2f716d46485162362f43727970746f2d4475636b322e706e6768747470733a2f2f692e6962622e636f2f466856763776762f43727970746f2d4475636b382e706e6768747470733a2f2f692e6962622e636f2f483247725835632f43727970746f2d4475636b352e706e67a264697066735822122045f30f665387193d4299a931bee9a6e03d442201f68e839760b9cb24910d917364736f6c634300080f0033",
  "immutableReferences": {},
  "source": "//SPDX-License-Identifier: MIT\npragma solidity ^0.8.0;\n\nimport \"./cryptoducks.sol\";\n\ncontract LotteryTry {\n    address public manager;\n\n    struct Player {\n        address addr;\n        uint256[6] ticket;\n    }\n\n    uint256 firstBlock;\n    uint32 M;\n\n    event WinningTicket(uint256[6] _ticket);\n    event LotteryCreated();\n    event RoundState(bool round_state);\n    event Prize(address addr, uint256 token, uint8 class);\n    event Revenues(uint256 balance);\n    event LotteryClosed();\n\n    Player[] public players;\n\n    uint8 round = 0; // 0: finished, 1: active, 2: unactive\n    bool public lotteryUp;\n    uint256[6] public winnerNumbers; // the winning ticket!\n    uint256 tokenIdCounter; // counter for token ID for NFTs\n    bool minted = false; // if NFT are already been minted\n\n    address DKSAddress;\n\n    // NFT represented with a struct: ID, uri and if it's assigned to a user\n    struct DKStoken {\n        uint256 tokenId;\n        string uri;\n        bool assigned;\n    }\n    mapping(uint8 => DKStoken) DKSuri; // mapping from nft class to uri-id\n    mapping(address => DKStoken[]) playerPrize;\n\n    /*\n    Set the lottery manager at contract creation. Takes the address of NFT contract as arguments\n    */\n    constructor(address addr) {\n        DKSAddress = addr;\n        manager = msg.sender;\n    }\n\n    /*\n    modifier for function that can be called only by the manager\n    */\n    modifier onlyManager() {\n        require(msg.sender == manager);\n        _;\n    }\n\n    function createLottery(uint32 m) public onlyManager {\n        require(!lotteryUp, \"Lottery already up\");\n        round = 0;\n        M = m;\n        lotteryUp = true;\n        emit LotteryCreated();\n        if (!minted) {\n            mintDKS(manager, 1, \"https://i.ibb.co/Fsf0dVp/Crypto-Duck1.png\", 1);\n            mintDKS(manager, 2, \"https://i.ibb.co/qmFHQb6/Crypto-Duck2.png\", 2);\n            mintDKS(manager, 3, \"https://i.ibb.co/S6Nh6Gs/Crypto-Duck3.png\", 3);\n            mintDKS(manager, 4, \"https://i.ibb.co/wQmmK4z/Crypto-Duck4.png\", 4);\n            mintDKS(manager, 5, \"https://i.ibb.co/H2GrX5c/Crypto-Duck5.png\", 5);\n            mintDKS(manager, 6, \"https://i.ibb.co/qC6Pf9G/Crypto-Duck6.png\", 6);\n            mintDKS(manager, 7, \"https://i.ibb.co/TKBsJPM/Crypto-Duck7.png\", 7);\n            mintDKS(manager, 8, \"https://i.ibb.co/FhVv7vv/Crypto-Duck8.png\", 8);\n            minted = true;\n        }\n    }\n\n    /*\n    checks if the previous round is finished, and, if that's the case, starts a new round.\n    */\n    function startNewRound() public onlyManager {\n        require(lotteryUp, \"Lottery closed!\");\n        require(round == 0, \"round is already started\");\n        round = 1;\n        emit RoundState(true);\n        firstBlock = block.number;\n        winnerNumbers = [0, 0, 0, 0, 0, 0];\n    }\n\n    /*\n    Function for buying a ticket, takes a uint[] array with 6 elements as argument. \n    The last one is the powerball.\n        ex buy([63,24,32,12,69,1])\n    Round should be active\n    Lottery ticket numbers required in a range from 1 to 69\n    Lottery ticket price required: 0,00061 ether =  610'000 gwei = around 1 euro\n\n    you should choose 6 different numbers!\n    */\n    function buy(uint256[6] memory ticket) public payable {\n        require(lotteryUp, \"Lottery closed!\");\n        require(ticket.length == 6, \"choose 6 numbers!\");\n        require(round == 1, \"round not active\");\n        bool success = true;\n        // check if M blocks has passed\n        if (block.number - firstBlock >= M) {\n            round = 2;\n            emit RoundState(false);\n            if (block.number - firstBlock > M) success = false;\n        }\n        for (uint32 i = 0; i < ticket.length - 1; i++) {\n            require(\n                ticket[i] > 0 && ticket[i] < 70,\n                \"choose numbers between 1 and 69\"\n            );\n            require(\n                checkPlayerTicket(i, ticket),\n                \"duplicates number in the ticket\"\n            );\n        }\n        require(\n            ticket[ticket.length - 1] > 0 && ticket[ticket.length - 1] < 27,\n            \"choose powerball between 1 and 26\"\n        );\n        require(msg.value == 610000 gwei, \"a ticket costs 610'000 gwei\");\n\n        if (success) {\n            Player memory player = Player(msg.sender, ticket);\n            players.push(player);\n        }\n    }\n\n    /*\n    Aux function that generate a random uint in a range, hashing difficulty and timestamp of the block.\n        ex. random(99) generate a number from 1 to 99\n    */\n    function random(\n        uint256 range,\n        uint256 seed\n    ) private view returns (uint256) {\n        return\n            (uint256(keccak256(abi.encode(block.timestamp, seed))) % range) + 1;\n    }\n\n    /*\n    draw 6 different winning numbers with random function.\n    */\n    function drawNumbers() public onlyManager {\n        require(lotteryUp, \"Lottery closed!\");\n        require(round != 1, \"round is still active!\");\n        require(round != 0, \"round finished\");\n        for (uint256 i = 0; i < 6; i++) {\n            do {\n                if (i != 5) winnerNumbers[i] = random(69, i + players.length);\n                else winnerNumbers[i] = random(26, i + players.length);\n            } while (checkDuplicates(winnerNumbers[i], winnerNumbers, i)); // i don't want duplicates\n        }\n        emit WinningTicket(winnerNumbers);\n    }\n\n    /*\n    Check if a number is a duplicate in an array\n    */\n    function checkDuplicates(\n        uint256 check,\n        uint256[6] memory array,\n        uint256 index\n    ) private pure returns (bool) {\n        for (uint32 i = 0; i < index; i++) {\n            if (check == array[i]) return true;\n        }\n        return false;\n    }\n\n    /*\n    Check that the player don't choose equal numbers in a ticket, for every item passed\n    */\n    function checkPlayerTicket(\n        uint256 index,\n        uint256[6] memory ticket\n    ) private pure returns (bool) {\n        for (uint32 i = 0; (i < ticket.length) && (i != index); i++) {\n            if (ticket[index] == ticket[i]) return false;\n        }\n        return true;\n    }\n\n    // distribute the prizes\n    function givePrizes() public onlyManager {\n        require(lotteryUp, \"Lottery closed!\");\n        require(round != 1, \"round still active\");\n        require(round != 0, \"round finished\");\n        bool powerball;\n        uint32 commonElements;\n        uint256 tokenToAssign;\n        for (uint32 i = 0; i < players.length; i++) {\n            powerball = false;\n            uint8 class = 0;\n            if (winnerNumbers[5] == players[i].ticket[5]) powerball = true;\n            commonElements = findCommonElements(\n                winnerNumbers,\n                players[i].ticket\n            );\n\n            if (powerball && commonElements == 0) {\n                // class 8\n                class = 8;\n            } else if (commonElements == 1 && !powerball) {\n                // class 7\n                class = 7;\n            } else if (\n                (commonElements == 1 && powerball) ||\n                (commonElements == 2 && !powerball)\n            ) {\n                // class 6\n                class = 6;\n            } else if (\n                (commonElements == 2 && powerball) ||\n                (commonElements == 3 && !powerball)\n            ) {\n                // class 5\n                class = 5;\n            } else if (\n                (commonElements == 3 && powerball) ||\n                (commonElements == 4 && !powerball)\n            ) {\n                // class 4\n                class = 4;\n            } else if (commonElements == 4 && powerball) {\n                // class 3\n                class = 3;\n            } else if (commonElements == 5 && !powerball) {\n                //class 2\n                class = 2;\n            } else if (commonElements == 5 && powerball) {\n                // class 1\n                class = 1;\n            }\n            if (class != 0) {\n                if (DKSuri[class].assigned) {\n                    tokenToAssign = tokenIdCounter; // the next token id assignable\n                    mintOnDemand(\n                        players[i].addr,\n                        tokenToAssign,\n                        DKSuri[class].uri\n                    ); // mint\n                    tokenIdCounter++;\n                } else {\n                    tokenToAssign = DKSuri[class].tokenId; // one of the first minted nfts\n                    transferDKS(\n                        players[i].addr,\n                        tokenToAssign,\n                        DKSuri[class].uri\n                    );\n                    DKSuri[class].assigned = true;\n                } //transfer and flag assigned\n                emit Prize(players[i].addr, tokenToAssign, class);\n            }\n        }\n        round = 0; // end the round\n        delete players; // clear players array\n    }\n\n    /*\n    aux function for finding common elements between two arrays\n    */\n    function findCommonElements(\n        uint256[6] memory array,\n        uint256[6] memory ticket\n    ) private pure returns (uint32) {\n        uint32 commonElements = 0;\n        for (uint32 i = 0; i < array.length - 1; i++) {\n            for (uint32 j = 0; j < ticket.length - 1; j++) {\n                if (array[i] == ticket[j]) {\n                    commonElements++;\n                    continue;\n                }\n            }\n        }\n        return commonElements;\n    }\n\n    /*\n    Function to withdraw the revenue of the tickets\n    */\n    function withdraw(address addr) public onlyManager {\n        require(round == 0, \"can't withdraw if round is not finished\");\n        emit Revenues(address(this).balance);\n        payable(addr).transfer(address(this).balance);\n    }\n\n    /*\n    End the round and reset data structures\n    */\n    /*\n    deactivate the lottery contract\n    */\n    function closeLottery() public onlyManager {\n        require(lotteryUp, \"Lottery already closed\");\n        if (round != 0) {\n            for (uint32 i = 0; i < players.length; i++) {\n                payable(players[i].addr).transfer(0.00061 ether);\n            }\n        }\n        round = 0;\n        if (players.length > 0) delete players;\n        lotteryUp = false;\n        emit LotteryClosed();\n    }\n\n    /*\n    Function to mint an NFT, calling Cryptoducks.sol mint function. Only the creator of \n    cryptoduck can mint an NFT,and only the manager of the lottery can use \n    this function. So they are the same person. When you mint a Cryptoduck, you have to specify;\n\n    -owner of the minted nft\n    -unique token id (START FROM 1)\n    -uri of an img or a description\n    -class (from 1 to 8)\n\n    */\n    function mintDKS(\n        address _to,\n        uint256 _tokenId,\n        string memory _uri,\n        uint8 class\n    ) public onlyManager {\n        tokenIdCounter = _tokenId + 1;\n        Cryptoducks DKS = Cryptoducks(DKSAddress);\n        DKS.mint(_to, _tokenId, _uri);\n        DKStoken memory temp = DKStoken(_tokenId, _uri, false);\n        DKSuri[class] = temp;\n    }\n\n    /*\n    function for minting an NFT during the lottery, if there are more winners than the available prizes\n    */\n    function mintOnDemand(\n        address _to,\n        uint256 _tokenId,\n        string memory _uri\n    ) private {\n        Cryptoducks DKS = Cryptoducks(DKSAddress);\n        DKS.mint(_to, _tokenId, _uri);\n        DKStoken memory temp = DKStoken(_tokenId, _uri, true);\n        playerPrize[_to].push(temp);\n    }\n\n    /*\n    function for transfer NFT\n    */\n    function transferDKS(\n        address _to,\n        uint256 _tokenId,\n        string memory _uri\n    ) private {\n        Cryptoducks DKS = Cryptoducks(DKSAddress);\n        DKS.transfer(manager, _to, _tokenId);\n        DKStoken memory temp = DKStoken(_tokenId, _uri, true);\n        playerPrize[_to].push(temp);\n    }\n\n    function getRoundState() public view returns (uint8) {\n        return (round);\n    }\n\n    function getM() public view returns (uint32) {\n        return (M);\n    }\n\n    function getNumTickets() public view returns (uint256) {\n        return (players.length);\n    }\n\n    function getTicket(uint32 k) public view returns (uint256[6] memory) {\n        uint256[6] memory result;\n        uint32 i = 0;\n        for (uint32 j = 0; j < players.length; j++) {\n            if (players[j].addr == msg.sender) {\n                if (i == k) {\n                    result = players[j].ticket;\n                    break;\n                } else i++;\n            }\n        }\n        return (result);\n    }\n\n    // returns the number of tickets of the player\n    function getNumTicketsByPlayer() public view returns (uint32) {\n        uint32 result;\n        for (uint32 i = 0; i < players.length; i++) {\n            if (players[i].addr == msg.sender) {\n                result++;\n            }\n        }\n        return result;\n    }\n\n    function getWinningNumbers() public view returns (uint256[6] memory) {\n        return (winnerNumbers);\n    }\n\n    function getPrizes(uint256 k) public view returns (string memory) {\n        return playerPrize[msg.sender][k].uri;\n    }\n\n    function getNumPrizes() public view returns (uint256) {\n        return playerPrize[msg.sender].length;\n    }\n}\n",
  "sourcePath": "/Users/antoniopace/Desktop/Lottery-dAPP/contracts/lottery.sol",
  "compiler": {
    "name": "solc",
    "version": "0.8.15+commit.e14f2714.Emscripten.clang"
  },
  "schemaVersion": "3.4.8",
  "updatedAt": "2023-04-24T13:57:55.777Z",
  "networkType": "ethereum",
  "devdoc": {
    "kind": "dev",
    "methods": {},
    "version": 1
  },
  "userdoc": {
    "kind": "user",
    "methods": {},
    "version": 1
  }
}