{
  "contractName": "LotteryTry",
  "abi": [
    {
      "inputs": [
        {
          "internalType": "uint256",
          "name": "m",
          "type": "uint256"
        },
        {
          "internalType": "address",
          "name": "addr",
          "type": "address"
        }
      ],
      "stateMutability": "nonpayable",
      "type": "constructor"
    },
    {
      "anonymous": false,
      "inputs": [
        {
          "components": [
            {
              "internalType": "address",
              "name": "addr",
              "type": "address"
            },
            {
              "internalType": "uint256[6]",
              "name": "ticket",
              "type": "uint256[6]"
            }
          ],
          "indexed": false,
          "internalType": "struct LotteryTry.Player[]",
          "name": "players",
          "type": "tuple[]"
        }
      ],
      "name": "Players",
      "type": "event"
    },
    {
      "anonymous": false,
      "inputs": [
        {
          "indexed": false,
          "internalType": "address",
          "name": "addr",
          "type": "address"
        },
        {
          "indexed": false,
          "internalType": "string",
          "name": "uri",
          "type": "string"
        },
        {
          "indexed": false,
          "internalType": "uint256",
          "name": "class",
          "type": "uint256"
        }
      ],
      "name": "Prize",
      "type": "event"
    },
    {
      "anonymous": false,
      "inputs": [
        {
          "indexed": false,
          "internalType": "uint256",
          "name": "balance",
          "type": "uint256"
        }
      ],
      "name": "Revenues",
      "type": "event"
    },
    {
      "anonymous": false,
      "inputs": [
        {
          "indexed": false,
          "internalType": "uint256[6]",
          "name": "_ticket",
          "type": "uint256[6]"
        }
      ],
      "name": "Ticket",
      "type": "event"
    },
    {
      "inputs": [],
      "name": "startNewRound",
      "outputs": [],
      "stateMutability": "nonpayable",
      "type": "function"
    },
    {
      "inputs": [
        {
          "internalType": "uint256[6]",
          "name": "ticket",
          "type": "uint256[6]"
        }
      ],
      "name": "buy",
      "outputs": [],
      "stateMutability": "payable",
      "type": "function",
      "payable": true
    },
    {
      "inputs": [],
      "name": "drawNumbers",
      "outputs": [],
      "stateMutability": "nonpayable",
      "type": "function"
    },
    {
      "inputs": [],
      "name": "givePrizes",
      "outputs": [],
      "stateMutability": "nonpayable",
      "type": "function"
    },
    {
      "inputs": [
        {
          "internalType": "address",
          "name": "addr",
          "type": "address"
        }
      ],
      "name": "withdraw",
      "outputs": [],
      "stateMutability": "nonpayable",
      "type": "function"
    },
    {
      "inputs": [],
      "name": "closeLottery",
      "outputs": [],
      "stateMutability": "nonpayable",
      "type": "function"
    },
    {
      "inputs": [
        {
          "internalType": "address",
          "name": "_to",
          "type": "address"
        },
        {
          "internalType": "uint256",
          "name": "_tokenId",
          "type": "uint256"
        },
        {
          "internalType": "string",
          "name": "_uri",
          "type": "string"
        },
        {
          "internalType": "uint256",
          "name": "class",
          "type": "uint256"
        }
      ],
      "name": "mintDKS",
      "outputs": [],
      "stateMutability": "nonpayable",
      "type": "function"
    }
  ],
  "bytecode": "0x60806040523480156200001157600080fd5b5060405162002a9938038062002a998339818101604052810190620000379190620001e7565b336000806101000a81548173ffffffffffffffffffffffffffffffffffffffff021916908373ffffffffffffffffffffffffffffffffffffffff160217905550604051806040016040528060001515815260200160011515815250600460008201518160000160006101000a81548160ff02191690831515021790555060208201518160000160016101000a81548160ff0219169083151502179055509050508160028190555080600d60006101000a81548173ffffffffffffffffffffffffffffffffffffffff021916908373ffffffffffffffffffffffffffffffffffffffff1602179055506001600560006101000a81548160ff02191690831515021790555050506200022e565b600080fd5b6000819050919050565b6200015c8162000147565b81146200016857600080fd5b50565b6000815190506200017c8162000151565b92915050565b600073ffffffffffffffffffffffffffffffffffffffff82169050919050565b6000620001af8262000182565b9050919050565b620001c181620001a2565b8114620001cd57600080fd5b50565b600081519050620001e181620001b6565b92915050565b6000806040838503121562000201576200020062000142565b5b600062000211858286016200016b565b92505060206200022485828601620001d0565b9150509250929050565b61285b806200023e6000396000f3fe6080604052600436106100705760003560e01c80636fd098161161004e5780636fd09816146100cc578063a8bd5634146100e3578063bd85948c146100ff578063f2d447091461011657610070565b806306d5ee541461007557806351cff8d91461008c578063676c902f146100b5575b600080fd5b34801561008157600080fd5b5061008a61013f565b005b34801561009857600080fd5b506100b360048036038101906100ae91906116c2565b610772565b005b3480156100c157600080fd5b506100ca61084b565b005b3480156100d857600080fd5b506100e1610ac9565b005b6100fd60048036038101906100f8919061186c565b610c0d565b005b34801561010b57600080fd5b50610114611008565b005b34801561012257600080fd5b5061013d6004803603810190610138919061194e565b611146565b005b60008054906101000a900473ffffffffffffffffffffffffffffffffffffffff1673ffffffffffffffffffffffffffffffffffffffff163373ffffffffffffffffffffffffffffffffffffffff161461019757600080fd5b600560009054906101000a900460ff166101e6576040517f08c379a00000000000000000000000000000000000000000000000000000000081526004016101dd90611a2e565b60405180910390fd5b600460000160009054906101000a900460ff1615610239576040517f08c379a000000000000000000000000000000000000000000000000000000000815260040161023090611a9a565b60405180910390fd5b600460000160019054906101000a900460ff161561028c576040517f08c379a000000000000000000000000000000000000000000000000000000000815260040161028390611b06565b60405180910390fd5b60008060005b60038054905081101561074157600092506000600382815481106102b9576102b8611b26565b5b90600052602060002090600702016001016005600681106102dd576102dc611b26565b5b015460066005600681106102f4576102f3611b26565b5b01540361030057600193505b6103a66006808060200260405190810160405280929190826006801561033b576020028201915b815481526020019060010190808311610327575b50505050506003848154811061035457610353611b26565b5b906000526020600020906007020160010160068060200260405190810160405280929190826006801561039c576020028201915b815481526020019060010190808311610388575b50505050506112c8565b92508380156103b55750600083145b156103c357600890506104c4565b6001831480156103d1575083155b156103df57600790506104c3565b6001831480156103ec5750835b806104015750600283148015610400575083155b5b1561040f57600690506104c2565b60028314801561041c5750835b806104315750600383148015610430575083155b5b1561043f57600590506104c1565b60038314801561044c5750835b806104615750600483148015610460575083155b5b1561046f57600490506104c0565b60048314801561047c5750835b1561048a57600390506104bf565b600583148015610498575083155b156104a657600290506104be565b6005831480156104b35750835b156104bd57600190505b5b5b5b5b5b5b5b6000811461072d57600e600082815260200190815260200160002060020160009054906101000a900460ff1615610602576105e56003838154811061050c5761050b611b26565b5b906000526020600020906007020160000160009054906101000a900473ffffffffffffffffffffffffffffffffffffffff16600c54600e6000858152602001908152602001600020600101805461056290611b84565b80601f016020809104026020016040519081016040528092919081815260200182805461058e90611b84565b80156105db5780601f106105b0576101008083540402835291602001916105db565b820191906000526020600020905b8154815290600101906020018083116105be57829003601f168201915b5050505050611372565b600c60008154809291906105f890611be4565b9190505550610697565b6106676003838154811061061957610618611b26565b5b906000526020600020906007020160000160009054906101000a900473ffffffffffffffffffffffffffffffffffffffff16600e60008481526020019081526020016000206000015461140e565b6001600e600083815260200190815260200160002060020160006101000a81548160ff0219169083151502179055505b7fbbdd7e195d091898a397fe9b8a038999adde10d5209fd6151736d09543e14718600383815481106106cc576106cb611b26565b5b906000526020600020906007020160000160009054906101000a900473ffffffffffffffffffffffffffffffffffffffff16600e60008481526020019081526020016000206001018360405161072493929190611ce3565b60405180910390a15b50808061073990611be4565b915050610292565b506001600460000160016101000a81548160ff0219169083151502179055506003600061076e919061156e565b5050565b60008054906101000a900473ffffffffffffffffffffffffffffffffffffffff1673ffffffffffffffffffffffffffffffffffffffff163373ffffffffffffffffffffffffffffffffffffffff16146107ca57600080fd5b7fadbc0483f31820e26475072543edda9bb5b02e2de813035d760e99a3f76a4269476040516107f99190611d21565b60405180910390a18073ffffffffffffffffffffffffffffffffffffffff166108fc479081150290604051600060405180830381858888f19350505050158015610847573d6000803e3d6000fd5b5050565b60008054906101000a900473ffffffffffffffffffffffffffffffffffffffff1673ffffffffffffffffffffffffffffffffffffffff163373ffffffffffffffffffffffffffffffffffffffff16146108a357600080fd5b600560009054906101000a900460ff166108f2576040517f08c379a00000000000000000000000000000000000000000000000000000000081526004016108e990611a2e565b60405180910390fd5b600460000160009054906101000a900460ff1615610945576040517f08c379a000000000000000000000000000000000000000000000000000000000815260040161093c90611d88565b60405180910390fd5b600460000160019054906101000a900460ff1615610998576040517f08c379a000000000000000000000000000000000000000000000000000000000815260040161098f90611b06565b60405180910390fd5b60005b6006811015610a8e575b600581146109e6576109c86045600380549050836109c39190611da8565b6114c9565b600682600681106109dc576109db611b26565b5b0181905550610a1b565b610a01601a600380549050836109fc9190611da8565b6114c9565b60068260068110610a1557610a14611b26565b5b01819055505b610a7760068260068110610a3257610a31611b26565b5b015460068080602002604051908101604052809291908260068015610a6c576020028201915b815481526020019060010190808311610a58575b505050505083611516565b6109a5578080610a8690611be4565b91505061099b565b507fe78527df7ce3ef6a49de098be8b8d96677739d000d7f7d17318cfb5495269fd36006604051610abf9190611ef4565b60405180910390a1565b60008054906101000a900473ffffffffffffffffffffffffffffffffffffffff1673ffffffffffffffffffffffffffffffffffffffff163373ffffffffffffffffffffffffffffffffffffffff1614610b2157600080fd5b600460000160019054906101000a900460ff16610bf05760005b600380549050811015610bee5760038181548110610b5c57610b5b611b26565b5b906000526020600020906007020160000160009054906101000a900473ffffffffffffffffffffffffffffffffffffffff1673ffffffffffffffffffffffffffffffffffffffff166108fc6613e52b9abe00009081150290604051600060405180830381858888f19350505050158015610bda573d6000803e3d6000fd5b508080610be690611be4565b915050610b3b565b505b6000600560006101000a81548160ff021916908315150217905550565b600560009054906101000a900460ff16610c5c576040517f08c379a0000000000000000000000000000000000000000000000000000000008152600401610c5390611a2e565b60405180910390fd5b60068014610c9f576040517f08c379a0000000000000000000000000000000000000000000000000000000008152600401610c9690611f5b565b60405180910390fd5b600460000160009054906101000a900460ff16610cf1576040517f08c379a0000000000000000000000000000000000000000000000000000000008152600401610ce890611fc7565b60405180910390fd5b60006001905060025460015443610d089190611fe7565b10610d48576000600460000160006101000a81548160ff02191690831515021790555060025460015443610d3c9190611fe7565b1115610d4757600090505b5b60005b60016006610d599190611fe7565b811015610df0576000838260068110610d7557610d74611b26565b5b6020020151118015610d9e57506046838260068110610d9757610d96611b26565b5b6020020151105b610ddd576040517f08c379a0000000000000000000000000000000000000000000000000000000008152600401610dd490612067565b60405180910390fd5b8080610de890611be4565b915050610d4b565b5060008260016006610e029190611fe7565b60068110610e1357610e12611b26565b5b6020020151118015610e495750601b8260016006610e319190611fe7565b60068110610e4257610e41611b26565b5b6020020151105b610e88576040517f08c379a0000000000000000000000000000000000000000000000000000000008152600401610e7f906120f9565b60405180910390fd5b66022acab15020003414610ed1576040517f08c379a0000000000000000000000000000000000000000000000000000000008152600401610ec890612165565b60405180910390fd5b801561100457600060405180604001604052803373ffffffffffffffffffffffffffffffffffffffff168152602001848152509050600381908060018154018082558091505060019003906000526020600020906007020160009091909190915060008201518160000160006101000a81548173ffffffffffffffffffffffffffffffffffffffff021916908373ffffffffffffffffffffffffffffffffffffffff160217905550602082015181600101906006610f90929190611592565b5050507fe78527df7ce3ef6a49de098be8b8d96677739d000d7f7d17318cfb5495269fd383604051610fc291906121fe565b60405180910390a17fa4321f7b46892437380e011fb39f4fff7c1d4193f90aa0d103703ef8e98dea676003604051610ffa91906123b9565b60405180910390a1505b5050565b60008054906101000a900473ffffffffffffffffffffffffffffffffffffffff1673ffffffffffffffffffffffffffffffffffffffff163373ffffffffffffffffffffffffffffffffffffffff161461106057600080fd5b600560009054906101000a900460ff166110af576040517f08c379a00000000000000000000000000000000000000000000000000000000081526004016110a690611a2e565b60405180910390fd5b600460000160019054906101000a900460ff16611101576040517f08c379a00000000000000000000000000000000000000000000000000000000081526004016110f890612427565b60405180910390fd5b6000600460000160016101000a81548160ff0219169083151502179055506001600460000160006101000a81548160ff02191690831515021790555043600181905550565b60008054906101000a900473ffffffffffffffffffffffffffffffffffffffff1673ffffffffffffffffffffffffffffffffffffffff163373ffffffffffffffffffffffffffffffffffffffff161461119e57600080fd5b6001836111ab9190611da8565b600c819055506000600d60009054906101000a900473ffffffffffffffffffffffffffffffffffffffff1690508073ffffffffffffffffffffffffffffffffffffffff1663d3fc98648686866040518463ffffffff1660e01b8152600401611215939291906124be565b600060405180830381600087803b15801561122f57600080fd5b505af1158015611243573d6000803e3d6000fd5b505050506000604051806060016040528086815260200185815260200160001515815250905080600e600085815260200190815260200160002060008201518160000155602082015181600101908161129c9190612693565b5060408201518160020160006101000a81548160ff021916908315150217905550905050505050505050565b6000806000905060005b600160066112e09190611fe7565b811015611367576000600190505b60068110156113535784816006811061130a57611309611b26565b5b602002015186836006811061132257611321611b26565b5b60200201510361133f57828061133790611be4565b935050611340565b5b808061134b90611be4565b9150506112ee565b50808061135f90611be4565b9150506112d2565b508091505092915050565b6000600d60009054906101000a900473ffffffffffffffffffffffffffffffffffffffff1690508073ffffffffffffffffffffffffffffffffffffffff1663d3fc98648585856040518463ffffffff1660e01b81526004016113d6939291906124be565b600060405180830381600087803b1580156113f057600080fd5b505af1158015611404573d6000803e3d6000fd5b5050505050505050565b6000600d60009054906101000a900473ffffffffffffffffffffffffffffffffffffffff1690508073ffffffffffffffffffffffffffffffffffffffff1663beabacc860008054906101000a900473ffffffffffffffffffffffffffffffffffffffff1685856040518463ffffffff1660e01b815260040161149293929190612765565b600060405180830381600087803b1580156114ac57600080fd5b505af11580156114c0573d6000803e3d6000fd5b50505050505050565b600060018342846040516020016114e192919061279c565b6040516020818303038152906040528051906020012060001c61150491906127f4565b61150e9190611da8565b905092915050565b600080600090505b828110156115615783816006811061153957611538611b26565b5b6020020151850361154e576001915050611567565b808061155990611be4565b91505061151e565b50600090505b9392505050565b508054600082556007029060005260206000209081019061158f91906115d2565b50565b82600681019282156115c1579160200282015b828111156115c05782518255916020019190600101906115a5565b5b5090506115ce9190611620565b5090565b5b8082111561161c57600080820160006101000a81549073ffffffffffffffffffffffffffffffffffffffff0219169055600182016000611613919061163d565b506007016115d3565b5090565b5b80821115611639576000816000905550600101611621565b5090565b50806006019061164d9190611620565b50565b6000604051905090565b600080fd5b600080fd5b600073ffffffffffffffffffffffffffffffffffffffff82169050919050565b600061168f82611664565b9050919050565b61169f81611684565b81146116aa57600080fd5b50565b6000813590506116bc81611696565b92915050565b6000602082840312156116d8576116d761165a565b5b60006116e6848285016116ad565b91505092915050565b600080fd5b6000601f19601f8301169050919050565b7f4e487b7100000000000000000000000000000000000000000000000000000000600052604160045260246000fd5b61173d826116f4565b810181811067ffffffffffffffff8211171561175c5761175b611705565b5b80604052505050565b600061176f611650565b905061177b8282611734565b919050565b600067ffffffffffffffff82111561179b5761179a611705565b5b602082029050919050565b600080fd5b6000819050919050565b6117be816117ab565b81146117c957600080fd5b50565b6000813590506117db816117b5565b92915050565b60006117f46117ef84611780565b611765565b9050806020840283018581111561180e5761180d6117a6565b5b835b81811015611837578061182388826117cc565b845260208401935050602081019050611810565b5050509392505050565b600082601f830112611856576118556116ef565b5b60066118638482856117e1565b91505092915050565b600060c082840312156118825761188161165a565b5b600061189084828501611841565b91505092915050565b600080fd5b600067ffffffffffffffff8211156118b9576118b8611705565b5b6118c2826116f4565b9050602081019050919050565b82818337600083830152505050565b60006118f16118ec8461189e565b611765565b90508281526020810184848401111561190d5761190c611899565b5b6119188482856118cf565b509392505050565b600082601f830112611935576119346116ef565b5b81356119458482602086016118de565b91505092915050565b600080600080608085870312156119685761196761165a565b5b6000611976878288016116ad565b9450506020611987878288016117cc565b935050604085013567ffffffffffffffff8111156119a8576119a761165f565b5b6119b487828801611920565b92505060606119c5878288016117cc565b91505092959194509250565b600082825260208201905092915050565b7f4c6f747465727920636c6f736564210000000000000000000000000000000000600082015250565b6000611a18600f836119d1565b9150611a23826119e2565b602082019050919050565b60006020820190508181036000830152611a4781611a0b565b9050919050565b7f726f756e64207374696c6c206163746976650000000000000000000000000000600082015250565b6000611a846012836119d1565b9150611a8f82611a4e565b602082019050919050565b60006020820190508181036000830152611ab381611a77565b9050919050565b7f726f756e642066696e6973686564000000000000000000000000000000000000600082015250565b6000611af0600e836119d1565b9150611afb82611aba565b602082019050919050565b60006020820190508181036000830152611b1f81611ae3565b9050919050565b7f4e487b7100000000000000000000000000000000000000000000000000000000600052603260045260246000fd5b7f4e487b7100000000000000000000000000000000000000000000000000000000600052602260045260246000fd5b60006002820490506001821680611b9c57607f821691505b602082108103611baf57611bae611b55565b5b50919050565b7f4e487b7100000000000000000000000000000000000000000000000000000000600052601160045260246000fd5b6000611bef826117ab565b91507fffffffffffffffffffffffffffffffffffffffffffffffffffffffffffffffff8203611c2157611c20611bb5565b5b600182019050919050565b611c3581611684565b82525050565b60008190508160005260206000209050919050565b60008154611c5d81611b84565b611c6781866119d1565b94506001821660008114611c825760018114611c9857611ccb565b60ff198316865281151560200286019350611ccb565b611ca185611c3b565b60005b83811015611cc357815481890152600182019150602081019050611ca4565b808801955050505b50505092915050565b611cdd816117ab565b82525050565b6000606082019050611cf86000830186611c2c565b8181036020830152611d0a8185611c50565b9050611d196040830184611cd4565b949350505050565b6000602082019050611d366000830184611cd4565b92915050565b7f726f756e64206973207374696c6c206163746976652100000000000000000000600082015250565b6000611d726016836119d1565b9150611d7d82611d3c565b602082019050919050565b60006020820190508181036000830152611da181611d65565b9050919050565b6000611db3826117ab565b9150611dbe836117ab565b9250827fffffffffffffffffffffffffffffffffffffffffffffffffffffffffffffffff03821115611df357611df2611bb5565b5b828201905092915050565b600060069050919050565b600081905092915050565b6000819050919050565b611e27816117ab565b82525050565b6000611e398383611e1e565b60208301905092915050565b60008160001c9050919050565b6000819050919050565b6000611e6f611e6a83611e45565b611e52565b9050919050565b6000611e828254611e5c565b9050919050565b6000600182019050919050565b611e9f81611dfe565b611ea98184611e09565b9250611eb482611e14565b8060005b83811015611eec57611ec982611e76565b611ed38782611e2d565b9650611ede83611e89565b925050600181019050611eb8565b505050505050565b600060c082019050611f096000830184611e96565b92915050565b7f63686f6f73652036206e756d6265727321000000000000000000000000000000600082015250565b6000611f456011836119d1565b9150611f5082611f0f565b602082019050919050565b60006020820190508181036000830152611f7481611f38565b9050919050565b7f726f756e64206e6f742061637469766500000000000000000000000000000000600082015250565b6000611fb16010836119d1565b9150611fbc82611f7b565b602082019050919050565b60006020820190508181036000830152611fe081611fa4565b9050919050565b6000611ff2826117ab565b9150611ffd836117ab565b9250828210156120105761200f611bb5565b5b828203905092915050565b7f63686f6f7365206e756d62657273206265747765656e203120616e6420363900600082015250565b6000612051601f836119d1565b915061205c8261201b565b602082019050919050565b6000602082019050818103600083015261208081612044565b9050919050565b7f63686f6f736520706f77657262616c6c206265747765656e203120616e64203260008201527f3600000000000000000000000000000000000000000000000000000000000000602082015250565b60006120e36021836119d1565b91506120ee82612087565b604082019050919050565b60006020820190508181036000830152612112816120d6565b9050919050565b7f61207469636b657420636f737473203631302730303020677765690000000000600082015250565b600061214f601b836119d1565b915061215a82612119565b602082019050919050565b6000602082019050818103600083015261217e81612142565b9050919050565b600060069050919050565b6000819050919050565b6000602082019050919050565b6121b081612185565b6121ba8184611e09565b92506121c582612190565b8060005b838110156121f65781516121dd8782611e2d565b96506121e88361219a565b9250506001810190506121c9565b505050505050565b600060c08201905061221360008301846121a7565b92915050565b600081549050919050565b600082825260208201905092915050565b60008190508160005260206000209050919050565b600073ffffffffffffffffffffffffffffffffffffffff82169050919050565b600061227d61227883611e45565b61224a565b9050919050565b61228d81611684565b82525050565b600081905092915050565b6122a781611dfe565b6122b18184612293565b92506122bc82611e14565b8060005b838110156122f4576122d182611e76565b6122db8782611e2d565b96506122e683611e89565b9250506001810190506122c0565b505050505050565b60e0820160008083015490506123118161226a565b61231e6000860182612284565b5060018301612330602086018261229e565b5050505050565b600061234383836122fc565b60e08301905092915050565b6000600782019050919050565b600061236782612219565b6123718185612224565b935061237c83612235565b8060005b838110156123ac57816123938882612337565b975061239e8361234f565b925050600181019050612380565b5085935050505092915050565b600060208201905081810360008301526123d3818461235c565b905092915050565b7f726f756e6420697320616c726561647920737461727465640000000000000000600082015250565b60006124116018836119d1565b915061241c826123db565b602082019050919050565b6000602082019050818103600083015261244081612404565b9050919050565b600081519050919050565b60005b83811015612470578082015181840152602081019050612455565b8381111561247f576000848401525b50505050565b600061249082612447565b61249a81856119d1565b93506124aa818560208601612452565b6124b3816116f4565b840191505092915050565b60006060820190506124d36000830186611c2c565b6124e06020830185611cd4565b81810360408301526124f28184612485565b9050949350505050565b60006020601f8301049050919050565b600082821b905092915050565b6000600883026125497fffffffffffffffffffffffffffffffffffffffffffffffffffffffffffffffff8261250c565b612553868361250c565b95508019841693508086168417925050509392505050565b6000819050919050565b600061259061258b612586846117ab565b61256b565b6117ab565b9050919050565b6000819050919050565b6125aa83612575565b6125be6125b682612597565b848454612519565b825550505050565b600090565b6125d36125c6565b6125de8184846125a1565b505050565b5b81811015612602576125f76000826125cb565b6001810190506125e4565b5050565b601f8211156126475761261881611c3b565b612621846124fc565b81016020851015612630578190505b61264461263c856124fc565b8301826125e3565b50505b505050565b600082821c905092915050565b600061266a6000198460080261264c565b1980831691505092915050565b60006126838383612659565b9150826002028217905092915050565b61269c82612447565b67ffffffffffffffff8111156126b5576126b4611705565b5b6126bf8254611b84565b6126ca828285612606565b600060209050601f8311600181146126fd57600084156126eb578287015190505b6126f58582612677565b86555061275d565b601f19841661270b86611c3b565b60005b828110156127335784890151825560018201915060208501945060208101905061270e565b86831015612750578489015161274c601f891682612659565b8355505b6001600288020188555050505b505050505050565b600060608201905061277a6000830186611c2c565b6127876020830185611c2c565b6127946040830184611cd4565b949350505050565b60006040820190506127b16000830185611cd4565b6127be6020830184611cd4565b9392505050565b7f4e487b7100000000000000000000000000000000000000000000000000000000600052601260045260246000fd5b60006127ff826117ab565b915061280a836117ab565b92508261281a576128196127c5565b5b82820690509291505056fea26469706673582212205eaa0b60c3f6d160ecd7521018a863b811cae6d02d08e0b3ea5609b64380f85164736f6c634300080f0033",
  "immutableReferences": {},
  "source": "//SPDX-License-Identifier: MIT\npragma solidity ^0.8.0;\n\nimport \"./cryptoducks.sol\";\n\ncontract LotteryTry {\n    address manager;\n\n    struct Round {\n        bool active;\n        bool finished;\n    }\n\n    struct Player {\n        address addr;\n        uint256[6] ticket;\n    }\n\n    uint256 firstBlock;\n    uint256 M;\n\n    event Ticket(uint256[6] _ticket);\n    event Prize(address addr, string uri, uint256 class);\n    event Revenues(uint256 balance);\n    event Players(Player[] players);\n\n    Player[] players;\n    Round round;\n\n    bool lotteryUp;\n    uint256[6] winnerNumbers;\n    uint256 tokenIdCounter;\n\n    address DKSAddress;\n\n    struct DKStoken {\n        uint256 tokenId;\n        string uri;\n        bool assigned;\n    }\n    mapping(uint256 => DKStoken) DKSuri; // mapping from nft class to uri-id\n\n    /*\n    Set the lottery manager at contract creation. Takes M and the address of NFT contract as arguments\n    */\n    constructor(uint256 m, address addr) {\n        manager = msg.sender;\n        round = Round(false, true);\n        M = m;\n        DKSAddress = addr;\n        lotteryUp = true;\n    }\n\n    /*\n    modifier for function that can be called only by the manager\n    */\n    modifier onlyManager() {\n        require(msg.sender == manager);\n        _;\n    }\n\n    /*\n    checks if the previous round is finished, and, if that's the case, starts a new round.\n    takes M as argument.\n    */\n    function startNewRound() public onlyManager {\n        require(lotteryUp, \"Lottery closed!\");\n        require(round.finished, \"round is already started\");\n        round.finished = false;\n        round.active = true;\n        firstBlock = block.number;\n    }\n\n    /*\n    Function for buying a ticket, takes a uint[] array with 6 elements as argument. \n    The flast one is the powerball.\n        ex buy([63,24,32,12,69,1])\n    Round should be active\n    Lottery ticket numbers required in a range from 1 to 69\n    Lottery ticket price required: 0,00061 ether =  610'000 gwei = around 1 euro\n    */\n    function buy(uint256[6] memory ticket) public payable {\n        require(lotteryUp, \"Lottery closed!\");\n        require(ticket.length == 6, \"choose 6 numbers!\");\n        require(round.active, \"round not active\");\n        bool success = true;\n        // check if M blocks has passed\n        if (block.number - firstBlock >= M) {\n            round.active = false;\n            if (block.number - firstBlock > M) success = false;\n        }\n        for (uint256 i = 0; i < ticket.length - 1; i++) {\n            require(\n                ticket[i] > 0 && ticket[i] < 70,\n                \"choose numbers between 1 and 69\"\n            );\n        }\n        require(\n            ticket[ticket.length - 1] > 0 && ticket[ticket.length - 1] < 27,\n            \"choose powerball between 1 and 26\"\n        );\n        require(msg.value == 610000 gwei, \"a ticket costs 610'000 gwei\");\n\n        if (success) {\n            Player memory player = Player(msg.sender, ticket);\n            players.push(player);\n            emit Ticket(ticket);\n            emit Players(players);\n        }\n    }\n\n    /*\n    Aux function that generate a random uint in a range, hashing difficulty and timestamp of the block.\n        ex. random(99) generate a number from 1 to 99\n    */\n    function random(uint256 range, uint256 seed)\n        private\n        view\n        returns (uint256)\n    {\n        return\n            (uint256(keccak256(abi.encode(block.timestamp, seed))) % range) + 1;\n    }\n\n    /*\n    draw 6 different winning numbers with random function.\n    */\n    function drawNumbers() public onlyManager {\n        require(lotteryUp, \"Lottery closed!\");\n        require(!round.active, \"round is still active!\");\n        require(!round.finished, \"round finished\");\n        for (uint256 i = 0; i < 6; i++) {\n            do {\n                if (i != 5) winnerNumbers[i] = random(69, i + players.length);\n                else winnerNumbers[i] = random(26, i + players.length);\n            } while (checkDuplicates(winnerNumbers[i], winnerNumbers, i)); // i don't want duplicates\n        }\n        emit Ticket(winnerNumbers);\n    }\n\n    /*\n    Check if a number is a duplicate in an array\n    */\n    function checkDuplicates(\n        uint256 check,\n        uint256[6] memory array,\n        uint256 index\n    ) private pure returns (bool) {\n        for (uint256 i = 0; i < index; i++) {\n            if (check == array[i]) return true;\n        }\n        return false;\n    }\n\n    // distribute the prizes\n    function givePrizes() public onlyManager {\n        require(lotteryUp, \"Lottery closed!\");\n        require(!round.active, \"round still active\");\n        require(!round.finished, \"round finished\");\n        bool powerball;\n        uint256 commonElements;\n        for (uint256 i = 0; i < players.length; i++) {\n            powerball = false;\n            uint256 class = 0;\n            if (winnerNumbers[5] == players[i].ticket[5]) powerball = true;\n            commonElements = findCommonElements(\n                winnerNumbers,\n                players[i].ticket\n            );\n\n            if (powerball && commonElements == 0) {\n                // class 8\n                class = 8;\n            } else if (commonElements == 1 && !powerball) {\n                // class 7\n                class = 7;\n            } else if (\n                (commonElements == 1 && powerball) ||\n                (commonElements == 2 && !powerball)\n            ) {\n                // class 6\n                class = 6;\n            } else if (\n                (commonElements == 2 && powerball) ||\n                (commonElements == 3 && !powerball)\n            ) {\n                // class 5\n                class = 5;\n            } else if (\n                (commonElements == 3 && powerball) ||\n                (commonElements == 4 && !powerball)\n            ) {\n                // class 4\n                class = 4;\n            } else if (commonElements == 4 && powerball) {\n                // class 3\n                class = 3;\n            } else if (commonElements == 5 && !powerball) {\n                //class 2\n                class = 2;\n            } else if (commonElements == 5 && powerball) {\n                // class 1\n                class = 1;\n            }\n            if (class != 0) {\n                if (DKSuri[class].assigned) {\n                    mintOnDemand(\n                        players[i].addr,\n                        tokenIdCounter,\n                        DKSuri[class].uri\n                    ); // mint\n                    tokenIdCounter++;\n                } else {\n                    transferDKS(players[i].addr, DKSuri[class].tokenId);\n                    DKSuri[class].assigned = true;\n                } //transfer and flag assigned\n                emit Prize(players[i].addr, DKSuri[class].uri, class);\n            }\n        }\n        round.finished = true; // end the round\n        delete players; // clear players array\n    }\n\n    /*\n    aux function for finding common elements between two arrays\n    */\n    function findCommonElements(\n        uint256[6] memory array,\n        uint256[6] memory ticket\n    ) private pure returns (uint256) {\n        uint256 commonElements = 0;\n        for (uint256 i = 0; i < array.length - 1; i++) {\n            for (uint256 j = 1; j < ticket.length; j++) {\n                if (array[i] == ticket[j]) {\n                    commonElements++;\n                    continue;\n                }\n            }\n        }\n        return commonElements;\n    }\n\n    /*\n    Function to withdraw the revenue of the tickets\n    */\n    function withdraw(address addr) public onlyManager {\n        emit Revenues(address(this).balance);\n        payable(addr).transfer(address(this).balance);\n    }\n\n    /*\n    End the round and reset data structures\n    */\n    /*\n    deactivate the lottery contract\n    */\n    function closeLottery() public onlyManager {\n        if (!round.finished) {\n            for (uint256 i = 0; i < players.length; i++) {\n                payable(players[i].addr).transfer(0.0056 ether);\n            }\n        }\n        lotteryUp = false;\n    }\n\n    /*\n    Function to mint an NFT, calling Cryptoducks.sol mint function. Only the creator of \n    cryptoduck can mint an NFT,and only the manager of the lottery can use \n    this function. So they are the same person. When you mint a Cryptoduck, you have to specify;\n\n    -address of the nft contract\n    -owner of the minted nft\n    -unique token id (START FROM 1)\n    -uri of an img or a description\n    -class (from 1 to 8)\n\n    */\n    function mintDKS(\n        address _to,\n        uint256 _tokenId,\n        string memory _uri,\n        uint256 class\n    ) public onlyManager {\n        tokenIdCounter = _tokenId + 1;\n        Cryptoducks DKS = Cryptoducks(DKSAddress);\n        DKS.mint(_to, _tokenId, _uri);\n        DKStoken memory temp = DKStoken(_tokenId, _uri, false);\n        DKSuri[class] = temp;\n    }\n\n    /*\n    function for minting an NFT during the lottery, if there are more winners than the available prizes\n    */\n    function mintOnDemand(\n        address _to,\n        uint256 _tokenId,\n        string memory _uri\n    ) private {\n        Cryptoducks DKS = Cryptoducks(DKSAddress);\n        DKS.mint(_to, _tokenId, _uri);\n    }\n\n    /*\n    function for transfer NFT\n    */\n    function transferDKS(address _to, uint256 _tokenId) private {\n        Cryptoducks DKS = Cryptoducks(DKSAddress);\n        DKS.transfer(manager, _to, _tokenId);\n    }\n    /*\n\n\n    */\n}\n",
  "sourcePath": "/Users/antoniopace/Desktop/Lottery-dAPP/contracts/lottery.sol",
  "compiler": {
    "name": "solc",
    "version": "0.8.15+commit.e14f2714.Emscripten.clang"
  },
  "schemaVersion": "3.4.8",
  "updatedAt": "2022-07-04T09:45:52.074Z",
  "networkType": "ethereum",
  "devdoc": {
    "kind": "dev",
    "methods": {},
    "version": 1
  },
  "userdoc": {
    "kind": "user",
    "methods": {},
    "version": 1
  }
}