{
  "contractName": "LotteryTry",
  "abi": [
    {
      "inputs": [
        {
          "internalType": "address",
          "name": "addr",
          "type": "address"
        }
      ],
      "stateMutability": "nonpayable",
      "type": "constructor"
    },
    {
      "anonymous": false,
      "inputs": [
        {
          "indexed": false,
          "internalType": "bool",
          "name": "created",
          "type": "bool"
        }
      ],
      "name": "LotteryCreated",
      "type": "event"
    },
    {
      "anonymous": false,
      "inputs": [
        {
          "components": [
            {
              "internalType": "address",
              "name": "addr",
              "type": "address"
            },
            {
              "internalType": "uint256[6]",
              "name": "ticket",
              "type": "uint256[6]"
            }
          ],
          "indexed": false,
          "internalType": "struct LotteryTry.Player[]",
          "name": "players",
          "type": "tuple[]"
        }
      ],
      "name": "Players",
      "type": "event"
    },
    {
      "anonymous": false,
      "inputs": [
        {
          "indexed": false,
          "internalType": "address",
          "name": "addr",
          "type": "address"
        },
        {
          "indexed": false,
          "internalType": "string",
          "name": "uri",
          "type": "string"
        },
        {
          "indexed": false,
          "internalType": "uint256",
          "name": "class",
          "type": "uint256"
        }
      ],
      "name": "Prize",
      "type": "event"
    },
    {
      "anonymous": false,
      "inputs": [
        {
          "indexed": false,
          "internalType": "uint256",
          "name": "balance",
          "type": "uint256"
        }
      ],
      "name": "Revenues",
      "type": "event"
    },
    {
      "anonymous": false,
      "inputs": [
        {
          "indexed": false,
          "internalType": "bool",
          "name": "round_state",
          "type": "bool"
        }
      ],
      "name": "RoundState",
      "type": "event"
    },
    {
      "anonymous": false,
      "inputs": [
        {
          "indexed": false,
          "internalType": "uint256[6]",
          "name": "_ticket",
          "type": "uint256[6]"
        }
      ],
      "name": "Ticket",
      "type": "event"
    },
    {
      "anonymous": false,
      "inputs": [
        {
          "indexed": false,
          "internalType": "uint256[6]",
          "name": "_ticket",
          "type": "uint256[6]"
        }
      ],
      "name": "WinningTicket",
      "type": "event"
    },
    {
      "inputs": [],
      "name": "lotteryUp",
      "outputs": [
        {
          "internalType": "bool",
          "name": "",
          "type": "bool"
        }
      ],
      "stateMutability": "view",
      "type": "function",
      "constant": true
    },
    {
      "inputs": [],
      "name": "manager",
      "outputs": [
        {
          "internalType": "address",
          "name": "",
          "type": "address"
        }
      ],
      "stateMutability": "view",
      "type": "function",
      "constant": true
    },
    {
      "inputs": [
        {
          "internalType": "uint256",
          "name": "",
          "type": "uint256"
        }
      ],
      "name": "players",
      "outputs": [
        {
          "internalType": "address",
          "name": "addr",
          "type": "address"
        }
      ],
      "stateMutability": "view",
      "type": "function",
      "constant": true
    },
    {
      "inputs": [
        {
          "internalType": "uint256",
          "name": "",
          "type": "uint256"
        }
      ],
      "name": "winnerNumbers",
      "outputs": [
        {
          "internalType": "uint256",
          "name": "",
          "type": "uint256"
        }
      ],
      "stateMutability": "view",
      "type": "function",
      "constant": true
    },
    {
      "inputs": [
        {
          "internalType": "uint256",
          "name": "m",
          "type": "uint256"
        }
      ],
      "name": "createLottery",
      "outputs": [],
      "stateMutability": "nonpayable",
      "type": "function"
    },
    {
      "inputs": [],
      "name": "startNewRound",
      "outputs": [],
      "stateMutability": "nonpayable",
      "type": "function"
    },
    {
      "inputs": [
        {
          "internalType": "uint256[6]",
          "name": "ticket",
          "type": "uint256[6]"
        }
      ],
      "name": "buy",
      "outputs": [],
      "stateMutability": "payable",
      "type": "function",
      "payable": true
    },
    {
      "inputs": [],
      "name": "drawNumbers",
      "outputs": [],
      "stateMutability": "nonpayable",
      "type": "function"
    },
    {
      "inputs": [],
      "name": "givePrizes",
      "outputs": [],
      "stateMutability": "nonpayable",
      "type": "function"
    },
    {
      "inputs": [
        {
          "internalType": "address",
          "name": "addr",
          "type": "address"
        }
      ],
      "name": "withdraw",
      "outputs": [],
      "stateMutability": "nonpayable",
      "type": "function"
    },
    {
      "inputs": [],
      "name": "closeLottery",
      "outputs": [],
      "stateMutability": "nonpayable",
      "type": "function"
    },
    {
      "inputs": [
        {
          "internalType": "address",
          "name": "_to",
          "type": "address"
        },
        {
          "internalType": "uint256",
          "name": "_tokenId",
          "type": "uint256"
        },
        {
          "internalType": "string",
          "name": "_uri",
          "type": "string"
        },
        {
          "internalType": "uint256",
          "name": "class",
          "type": "uint256"
        }
      ],
      "name": "mintDKS",
      "outputs": [],
      "stateMutability": "nonpayable",
      "type": "function"
    },
    {
      "inputs": [],
      "name": "getRoundState",
      "outputs": [
        {
          "internalType": "bool",
          "name": "",
          "type": "bool"
        }
      ],
      "stateMutability": "view",
      "type": "function",
      "constant": true
    },
    {
      "inputs": [],
      "name": "getNumTickets",
      "outputs": [
        {
          "internalType": "uint256",
          "name": "",
          "type": "uint256"
        }
      ],
      "stateMutability": "view",
      "type": "function",
      "constant": true
    },
    {
      "inputs": [
        {
          "internalType": "uint256",
          "name": "k",
          "type": "uint256"
        }
      ],
      "name": "getTicket",
      "outputs": [
        {
          "internalType": "uint256[6]",
          "name": "",
          "type": "uint256[6]"
        }
      ],
      "stateMutability": "view",
      "type": "function",
      "constant": true
    },
    {
      "inputs": [],
      "name": "getNumTicketsByPlayer",
      "outputs": [
        {
          "internalType": "uint256",
          "name": "",
          "type": "uint256"
        }
      ],
      "stateMutability": "view",
      "type": "function",
      "constant": true
    },
    {
      "inputs": [],
      "name": "getWinningNumbers",
      "outputs": [
        {
          "internalType": "uint256[6]",
          "name": "",
          "type": "uint256[6]"
        }
      ],
      "stateMutability": "view",
      "type": "function",
      "constant": true
    }
  ],
  "bytecode": "0x60806040523480156200001157600080fd5b506040516200321238038062003212833981810160405281019062000037919062000129565b80600d60006101000a81548173ffffffffffffffffffffffffffffffffffffffff021916908373ffffffffffffffffffffffffffffffffffffffff160217905550336000806101000a81548173ffffffffffffffffffffffffffffffffffffffff021916908373ffffffffffffffffffffffffffffffffffffffff160217905550506200015b565b600080fd5b600073ffffffffffffffffffffffffffffffffffffffff82169050919050565b6000620000f182620000c4565b9050919050565b6200010381620000e4565b81146200010f57600080fd5b50565b6000815190506200012381620000f8565b92915050565b600060208284031215620001425762000141620000bf565b5b6000620001528482850162000112565b91505092915050565b6130a7806200016b6000396000f3fe6080604052600436106100fe5760003560e01c80637dc379fa11610095578063a8d8820211610064578063a8d88202146102ca578063bd85948c14610307578063d81876921461031e578063f2d4470914610349578063f71d96cb14610372576100fe565b80637dc379fa1461021d57806384350e1d1461025a5780638dd8c56d14610285578063a8bd5634146102ae576100fe565b8063481c6a75116100d1578063481c6a751461019b57806351cff8d9146101c6578063676c902f146101ef5780636fd0981614610206576100fe565b806306d5ee54146101035780630b5adfff1461011a578063293c29581461014557806343a2828a14610170575b600080fd5b34801561010f57600080fd5b506101186103af565b005b34801561012657600080fd5b5061012f6109e2565b60405161013c9190611dcb565b60405180910390f35b34801561015157600080fd5b5061015a6109ef565b6040516101679190611e01565b60405180910390f35b34801561017c57600080fd5b50610185610a09565b6040516101929190611e01565b60405180910390f35b3480156101a757600080fd5b506101b0610a1c565b6040516101bd9190611e5d565b60405180910390f35b3480156101d257600080fd5b506101ed60048036038101906101e89190611eb8565b610a40565b005b3480156101fb57600080fd5b50610204610b19565b005b34801561021257600080fd5b5061021b610d97565b005b34801561022957600080fd5b50610244600480360381019061023f9190611f11565b610edb565b6040516102519190611fe9565b60405180910390f35b34801561026657600080fd5b5061026f611010565b60405161027c9190611fe9565b60405180910390f35b34801561029157600080fd5b506102ac60048036038101906102a79190611f11565b61105a565b005b6102c860048036038101906102c3919061214b565b6111bf565b005b3480156102d657600080fd5b506102f160048036038101906102ec9190611f11565b6115f2565b6040516102fe9190611dcb565b60405180910390f35b34801561031357600080fd5b5061031c61160d565b005b34801561032a57600080fd5b50610333611783565b6040516103409190611dcb565b60405180910390f35b34801561035557600080fd5b50610370600480360381019061036b919061222d565b611838565b005b34801561037e57600080fd5b5061039960048036038101906103949190611f11565b6119ba565b6040516103a69190611e5d565b60405180910390f35b60008054906101000a900473ffffffffffffffffffffffffffffffffffffffff1673ffffffffffffffffffffffffffffffffffffffff163373ffffffffffffffffffffffffffffffffffffffff161461040757600080fd5b600560009054906101000a900460ff16610456576040517f08c379a000000000000000000000000000000000000000000000000000000000815260040161044d9061230d565b60405180910390fd5b600460000160009054906101000a900460ff16156104a9576040517f08c379a00000000000000000000000000000000000000000000000000000000081526004016104a090612379565b60405180910390fd5b600460000160019054906101000a900460ff16156104fc576040517f08c379a00000000000000000000000000000000000000000000000000000000081526004016104f3906123e5565b60405180910390fd5b60008060005b6003805490508110156109b1576000925060006003828154811061052957610528612405565b5b906000526020600020906007020160010160056006811061054d5761054c612405565b5b0154600660056006811061056457610563612405565b5b01540361057057600193505b610616600680806020026040519081016040528092919082600680156105ab576020028201915b815481526020019060010190808311610597575b5050505050600384815481106105c4576105c3612405565b5b906000526020600020906007020160010160068060200260405190810160405280929190826006801561060c576020028201915b8154815260200190600101908083116105f8575b5050505050611a08565b92508380156106255750600083145b156106335760089050610734565b600183148015610641575083155b1561064f5760079050610733565b60018314801561065c5750835b806106715750600283148015610670575083155b5b1561067f5760069050610732565b60028314801561068c5750835b806106a157506003831480156106a0575083155b5b156106af5760059050610731565b6003831480156106bc5750835b806106d157506004831480156106d0575083155b5b156106df5760049050610730565b6004831480156106ec5750835b156106fa576003905061072f565b600583148015610708575083155b15610716576002905061072e565b6005831480156107235750835b1561072d57600190505b5b5b5b5b5b5b5b6000811461099d57600e600082815260200190815260200160002060020160009054906101000a900460ff1615610872576108556003838154811061077c5761077b612405565b5b906000526020600020906007020160000160009054906101000a900473ffffffffffffffffffffffffffffffffffffffff16600c54600e600085815260200190815260200160002060010180546107d290612463565b80601f01602080910402602001604051908101604052809291908181526020018280546107fe90612463565b801561084b5780601f106108205761010080835404028352916020019161084b565b820191906000526020600020905b81548152906001019060200180831161082e57829003601f168201915b5050505050611ab2565b600c6000815480929190610868906124c3565b9190505550610907565b6108d76003838154811061088957610888612405565b5b906000526020600020906007020160000160009054906101000a900473ffffffffffffffffffffffffffffffffffffffff16600e600084815260200190815260200160002060000154611b4e565b6001600e600083815260200190815260200160002060020160006101000a81548160ff0219169083151502179055505b7fbbdd7e195d091898a397fe9b8a038999adde10d5209fd6151736d09543e147186003838154811061093c5761093b612405565b5b906000526020600020906007020160000160009054906101000a900473ffffffffffffffffffffffffffffffffffffffff16600e600084815260200190815260200160002060010183604051610994939291906125a4565b60405180910390a15b5080806109a9906124c3565b915050610502565b506001600460000160016101000a81548160ff021916908315150217905550600360006109de9190611cae565b5050565b6000600380549050905090565b6000600460000160009054906101000a900460ff16905090565b600560009054906101000a900460ff1681565b60008054906101000a900473ffffffffffffffffffffffffffffffffffffffff1681565b60008054906101000a900473ffffffffffffffffffffffffffffffffffffffff1673ffffffffffffffffffffffffffffffffffffffff163373ffffffffffffffffffffffffffffffffffffffff1614610a9857600080fd5b7fadbc0483f31820e26475072543edda9bb5b02e2de813035d760e99a3f76a426947604051610ac79190611dcb565b60405180910390a18073ffffffffffffffffffffffffffffffffffffffff166108fc479081150290604051600060405180830381858888f19350505050158015610b15573d6000803e3d6000fd5b5050565b60008054906101000a900473ffffffffffffffffffffffffffffffffffffffff1673ffffffffffffffffffffffffffffffffffffffff163373ffffffffffffffffffffffffffffffffffffffff1614610b7157600080fd5b600560009054906101000a900460ff16610bc0576040517f08c379a0000000000000000000000000000000000000000000000000000000008152600401610bb79061230d565b60405180910390fd5b600460000160009054906101000a900460ff1615610c13576040517f08c379a0000000000000000000000000000000000000000000000000000000008152600401610c0a9061262e565b60405180910390fd5b600460000160019054906101000a900460ff1615610c66576040517f08c379a0000000000000000000000000000000000000000000000000000000008152600401610c5d906123e5565b60405180910390fd5b60005b6006811015610d5c575b60058114610cb457610c96604560038054905083610c91919061264e565b611c09565b60068260068110610caa57610ca9612405565b5b0181905550610ce9565b610ccf601a60038054905083610cca919061264e565b611c09565b60068260068110610ce357610ce2612405565b5b01819055505b610d4560068260068110610d0057610cff612405565b5b015460068080602002604051908101604052809291908260068015610d3a576020028201915b815481526020019060010190808311610d26575b505050505083611c56565b610c73578080610d54906124c3565b915050610c69565b507fde80e6f538e8ecef9774f4c85ea23e72fd023194ba8ae3eb01be7b84c869f7ef6006604051610d8d9190612768565b60405180910390a1565b60008054906101000a900473ffffffffffffffffffffffffffffffffffffffff1673ffffffffffffffffffffffffffffffffffffffff163373ffffffffffffffffffffffffffffffffffffffff1614610def57600080fd5b600460000160019054906101000a900460ff16610ebe5760005b600380549050811015610ebc5760038181548110610e2a57610e29612405565b5b906000526020600020906007020160000160009054906101000a900473ffffffffffffffffffffffffffffffffffffffff1673ffffffffffffffffffffffffffffffffffffffff166108fc6613e52b9abe00009081150290604051600060405180830381858888f19350505050158015610ea8573d6000803e3d6000fd5b508080610eb4906124c3565b915050610e09565b505b6000600560006101000a81548160ff021916908315150217905550565b610ee3611cd2565b610eeb611cd2565b6000805b600380549050811015611005573373ffffffffffffffffffffffffffffffffffffffff1660038281548110610f2757610f26612405565b5b906000526020600020906007020160000160009054906101000a900473ffffffffffffffffffffffffffffffffffffffff1673ffffffffffffffffffffffffffffffffffffffff1603610ff257848203610fe35760038181548110610f8f57610f8e612405565b5b9060005260206000209060070201600101600680602002604051908101604052809291908260068015610fd7576020028201915b815481526020019060010190808311610fc3575b50505050509250611005565b8180610fee906124c3565b9250505b8080610ffd906124c3565b915050610eef565b508192505050919050565b611018611cd2565b60068080602002604051908101604052809291908260068015611050576020028201915b81548152602001906001019080831161103c575b5050505050905090565b60008054906101000a900473ffffffffffffffffffffffffffffffffffffffff1673ffffffffffffffffffffffffffffffffffffffff163373ffffffffffffffffffffffffffffffffffffffff16146110b257600080fd5b600560009054906101000a900460ff1615611102576040517f08c379a00000000000000000000000000000000000000000000000000000000081526004016110f9906127cf565b60405180910390fd5b604051806040016040528060001515815260200160011515815250600460008201518160000160006101000a81548160ff02191690831515021790555060208201518160000160016101000a81548160ff021916908315150217905550905050806002819055506001600560006101000a81548160ff0219169083151502179055507f63190a0e978e64b953db73cc13abea1a2fcd8d4e62cd38f40e742bc84ddaa2b160016040516111b49190611e01565b60405180910390a150565b600560009054906101000a900460ff1661120e576040517f08c379a00000000000000000000000000000000000000000000000000000000081526004016112059061230d565b60405180910390fd5b60068014611251576040517f08c379a00000000000000000000000000000000000000000000000000000000081526004016112489061283b565b60405180910390fd5b600460000160009054906101000a900460ff166112a3576040517f08c379a000000000000000000000000000000000000000000000000000000000815260040161129a906128a7565b60405180910390fd5b600060019050600254600154436112ba91906128c7565b10611332576000600460000160006101000a81548160ff0219169083151502179055507fb173eb72fde5d3021f70ce0a9e630f786bcb81b59cde7f9e7f13103eb43cd3ea600060405161130d9190611e01565b60405180910390a16002546001544361132691906128c7565b111561133157600090505b5b60005b6001600661134391906128c7565b8110156113da57600083826006811061135f5761135e612405565b5b60200201511180156113885750604683826006811061138157611380612405565b5b6020020151105b6113c7576040517f08c379a00000000000000000000000000000000000000000000000000000000081526004016113be90612947565b60405180910390fd5b80806113d2906124c3565b915050611335565b50600082600160066113ec91906128c7565b600681106113fd576113fc612405565b5b60200201511180156114335750601b826001600661141b91906128c7565b6006811061142c5761142b612405565b5b6020020151105b611472576040517f08c379a0000000000000000000000000000000000000000000000000000000008152600401611469906129d9565b60405180910390fd5b66022acab150200034146114bb576040517f08c379a00000000000000000000000000000000000000000000000000000000081526004016114b290612a45565b60405180910390fd5b80156115ee57600060405180604001604052803373ffffffffffffffffffffffffffffffffffffffff168152602001848152509050600381908060018154018082558091505060019003906000526020600020906007020160009091909190915060008201518160000160006101000a81548173ffffffffffffffffffffffffffffffffffffffff021916908373ffffffffffffffffffffffffffffffffffffffff16021790555060208201518160010190600661157a929190611cf4565b5050507fe78527df7ce3ef6a49de098be8b8d96677739d000d7f7d17318cfb5495269fd3836040516115ac9190611fe9565b60405180910390a17fa4321f7b46892437380e011fb39f4fff7c1d4193f90aa0d103703ef8e98dea6760036040516115e49190612c05565b60405180910390a1505b5050565b6006816006811061160257600080fd5b016000915090505481565b60008054906101000a900473ffffffffffffffffffffffffffffffffffffffff1673ffffffffffffffffffffffffffffffffffffffff163373ffffffffffffffffffffffffffffffffffffffff161461166557600080fd5b600560009054906101000a900460ff166116b4576040517f08c379a00000000000000000000000000000000000000000000000000000000081526004016116ab9061230d565b60405180910390fd5b600460000160019054906101000a900460ff16611706576040517f08c379a00000000000000000000000000000000000000000000000000000000081526004016116fd90612c73565b60405180910390fd5b6000600460000160016101000a81548160ff0219169083151502179055506001600460000160006101000a81548160ff0219169083151502179055507fb173eb72fde5d3021f70ce0a9e630f786bcb81b59cde7f9e7f13103eb43cd3ea60016040516117729190611e01565b60405180910390a143600181905550565b60008060005b600380549050811015611830573373ffffffffffffffffffffffffffffffffffffffff16600382815481106117c1576117c0612405565b5b906000526020600020906007020160000160009054906101000a900473ffffffffffffffffffffffffffffffffffffffff1673ffffffffffffffffffffffffffffffffffffffff160361181d578180611819906124c3565b9250505b8080611828906124c3565b915050611789565b508091505090565b60008054906101000a900473ffffffffffffffffffffffffffffffffffffffff1673ffffffffffffffffffffffffffffffffffffffff163373ffffffffffffffffffffffffffffffffffffffff161461189057600080fd5b60018361189d919061264e565b600c819055506000600d60009054906101000a900473ffffffffffffffffffffffffffffffffffffffff1690508073ffffffffffffffffffffffffffffffffffffffff1663d3fc98648686866040518463ffffffff1660e01b815260040161190793929190612d0a565b600060405180830381600087803b15801561192157600080fd5b505af1158015611935573d6000803e3d6000fd5b505050506000604051806060016040528086815260200185815260200160001515815250905080600e600085815260200190815260200160002060008201518160000155602082015181600101908161198e9190612edf565b5060408201518160020160006101000a81548160ff021916908315150217905550905050505050505050565b600381815481106119ca57600080fd5b90600052602060002090600702016000915090508060000160009054906101000a900473ffffffffffffffffffffffffffffffffffffffff16905081565b6000806000905060005b60016006611a2091906128c7565b811015611aa7576000600190505b6006811015611a9357848160068110611a4a57611a49612405565b5b6020020151868360068110611a6257611a61612405565b5b602002015103611a7f578280611a77906124c3565b935050611a80565b5b8080611a8b906124c3565b915050611a2e565b508080611a9f906124c3565b915050611a12565b508091505092915050565b6000600d60009054906101000a900473ffffffffffffffffffffffffffffffffffffffff1690508073ffffffffffffffffffffffffffffffffffffffff1663d3fc98648585856040518463ffffffff1660e01b8152600401611b1693929190612d0a565b600060405180830381600087803b158015611b3057600080fd5b505af1158015611b44573d6000803e3d6000fd5b5050505050505050565b6000600d60009054906101000a900473ffffffffffffffffffffffffffffffffffffffff1690508073ffffffffffffffffffffffffffffffffffffffff1663beabacc860008054906101000a900473ffffffffffffffffffffffffffffffffffffffff1685856040518463ffffffff1660e01b8152600401611bd293929190612fb1565b600060405180830381600087803b158015611bec57600080fd5b505af1158015611c00573d6000803e3d6000fd5b50505050505050565b60006001834284604051602001611c21929190612fe8565b6040516020818303038152906040528051906020012060001c611c449190613040565b611c4e919061264e565b905092915050565b600080600090505b82811015611ca157838160068110611c7957611c78612405565b5b60200201518503611c8e576001915050611ca7565b8080611c99906124c3565b915050611c5e565b50600090505b9392505050565b5080546000825560070290600052602060002090810190611ccf9190611d34565b50565b6040518060c00160405280600690602082028036833780820191505090505090565b8260068101928215611d23579160200282015b82811115611d22578251825591602001919060010190611d07565b5b509050611d309190611d82565b5090565b5b80821115611d7e57600080820160006101000a81549073ffffffffffffffffffffffffffffffffffffffff0219169055600182016000611d759190611d9f565b50600701611d35565b5090565b5b80821115611d9b576000816000905550600101611d83565b5090565b508060060190611daf9190611d82565b50565b6000819050919050565b611dc581611db2565b82525050565b6000602082019050611de06000830184611dbc565b92915050565b60008115159050919050565b611dfb81611de6565b82525050565b6000602082019050611e166000830184611df2565b92915050565b600073ffffffffffffffffffffffffffffffffffffffff82169050919050565b6000611e4782611e1c565b9050919050565b611e5781611e3c565b82525050565b6000602082019050611e726000830184611e4e565b92915050565b6000604051905090565b600080fd5b600080fd5b611e9581611e3c565b8114611ea057600080fd5b50565b600081359050611eb281611e8c565b92915050565b600060208284031215611ece57611ecd611e82565b5b6000611edc84828501611ea3565b91505092915050565b611eee81611db2565b8114611ef957600080fd5b50565b600081359050611f0b81611ee5565b92915050565b600060208284031215611f2757611f26611e82565b5b6000611f3584828501611efc565b91505092915050565b600060069050919050565b600081905092915050565b6000819050919050565b611f6781611db2565b82525050565b6000611f798383611f5e565b60208301905092915050565b6000602082019050919050565b611f9b81611f3e565b611fa58184611f49565b9250611fb082611f54565b8060005b83811015611fe1578151611fc88782611f6d565b9650611fd383611f85565b925050600181019050611fb4565b505050505050565b600060c082019050611ffe6000830184611f92565b92915050565b600080fd5b6000601f19601f8301169050919050565b7f4e487b7100000000000000000000000000000000000000000000000000000000600052604160045260246000fd5b61205282612009565b810181811067ffffffffffffffff821117156120715761207061201a565b5b80604052505050565b6000612084611e78565b90506120908282612049565b919050565b600067ffffffffffffffff8211156120b0576120af61201a565b5b602082029050919050565b600080fd5b60006120d36120ce84612095565b61207a565b905080602084028301858111156120ed576120ec6120bb565b5b835b8181101561211657806121028882611efc565b8452602084019350506020810190506120ef565b5050509392505050565b600082601f83011261213557612134612004565b5b60066121428482856120c0565b91505092915050565b600060c0828403121561216157612160611e82565b5b600061216f84828501612120565b91505092915050565b600080fd5b600067ffffffffffffffff8211156121985761219761201a565b5b6121a182612009565b9050602081019050919050565b82818337600083830152505050565b60006121d06121cb8461217d565b61207a565b9050828152602081018484840111156121ec576121eb612178565b5b6121f78482856121ae565b509392505050565b600082601f83011261221457612213612004565b5b81356122248482602086016121bd565b91505092915050565b6000806000806080858703121561224757612246611e82565b5b600061225587828801611ea3565b945050602061226687828801611efc565b935050604085013567ffffffffffffffff81111561228757612286611e87565b5b612293878288016121ff565b92505060606122a487828801611efc565b91505092959194509250565b600082825260208201905092915050565b7f4c6f747465727920636c6f736564210000000000000000000000000000000000600082015250565b60006122f7600f836122b0565b9150612302826122c1565b602082019050919050565b60006020820190508181036000830152612326816122ea565b9050919050565b7f726f756e64207374696c6c206163746976650000000000000000000000000000600082015250565b60006123636012836122b0565b915061236e8261232d565b602082019050919050565b6000602082019050818103600083015261239281612356565b9050919050565b7f726f756e642066696e6973686564000000000000000000000000000000000000600082015250565b60006123cf600e836122b0565b91506123da82612399565b602082019050919050565b600060208201905081810360008301526123fe816123c2565b9050919050565b7f4e487b7100000000000000000000000000000000000000000000000000000000600052603260045260246000fd5b7f4e487b7100000000000000000000000000000000000000000000000000000000600052602260045260246000fd5b6000600282049050600182168061247b57607f821691505b60208210810361248e5761248d612434565b5b50919050565b7f4e487b7100000000000000000000000000000000000000000000000000000000600052601160045260246000fd5b60006124ce82611db2565b91507fffffffffffffffffffffffffffffffffffffffffffffffffffffffffffffffff8203612500576124ff612494565b5b600182019050919050565b60008190508160005260206000209050919050565b6000815461252d81612463565b61253781866122b0565b9450600182166000811461255257600181146125685761259b565b60ff19831686528115156020028601935061259b565b6125718561250b565b60005b8381101561259357815481890152600182019150602081019050612574565b808801955050505b50505092915050565b60006060820190506125b96000830186611e4e565b81810360208301526125cb8185612520565b90506125da6040830184611dbc565b949350505050565b7f726f756e64206973207374696c6c206163746976652100000000000000000000600082015250565b60006126186016836122b0565b9150612623826125e2565b602082019050919050565b600060208201905081810360008301526126478161260b565b9050919050565b600061265982611db2565b915061266483611db2565b9250827fffffffffffffffffffffffffffffffffffffffffffffffffffffffffffffffff0382111561269957612698612494565b5b828201905092915050565b600060069050919050565b6000819050919050565b60008160001c9050919050565b6000819050919050565b60006126e36126de836126b9565b6126c6565b9050919050565b60006126f682546126d0565b9050919050565b6000600182019050919050565b612713816126a4565b61271d8184611f49565b9250612728826126af565b8060005b838110156127605761273d826126ea565b6127478782611f6d565b9650612752836126fd565b92505060018101905061272c565b505050505050565b600060c08201905061277d600083018461270a565b92915050565b7f4c6f747465727920616c72656164792075700000000000000000000000000000600082015250565b60006127b96012836122b0565b91506127c482612783565b602082019050919050565b600060208201905081810360008301526127e8816127ac565b9050919050565b7f63686f6f73652036206e756d6265727321000000000000000000000000000000600082015250565b60006128256011836122b0565b9150612830826127ef565b602082019050919050565b6000602082019050818103600083015261285481612818565b9050919050565b7f726f756e64206e6f742061637469766500000000000000000000000000000000600082015250565b60006128916010836122b0565b915061289c8261285b565b602082019050919050565b600060208201905081810360008301526128c081612884565b9050919050565b60006128d282611db2565b91506128dd83611db2565b9250828210156128f0576128ef612494565b5b828203905092915050565b7f63686f6f7365206e756d62657273206265747765656e203120616e6420363900600082015250565b6000612931601f836122b0565b915061293c826128fb565b602082019050919050565b6000602082019050818103600083015261296081612924565b9050919050565b7f63686f6f736520706f77657262616c6c206265747765656e203120616e64203260008201527f3600000000000000000000000000000000000000000000000000000000000000602082015250565b60006129c36021836122b0565b91506129ce82612967565b604082019050919050565b600060208201905081810360008301526129f2816129b6565b9050919050565b7f61207469636b657420636f737473203631302730303020677765690000000000600082015250565b6000612a2f601b836122b0565b9150612a3a826129f9565b602082019050919050565b60006020820190508181036000830152612a5e81612a22565b9050919050565b600081549050919050565b600082825260208201905092915050565b60008190508160005260206000209050919050565b600073ffffffffffffffffffffffffffffffffffffffff82169050919050565b6000612ac9612ac4836126b9565b612a96565b9050919050565b612ad981611e3c565b82525050565b600081905092915050565b612af3816126a4565b612afd8184612adf565b9250612b08826126af565b8060005b83811015612b4057612b1d826126ea565b612b278782611f6d565b9650612b32836126fd565b925050600181019050612b0c565b505050505050565b60e082016000808301549050612b5d81612ab6565b612b6a6000860182612ad0565b5060018301612b7c6020860182612aea565b5050505050565b6000612b8f8383612b48565b60e08301905092915050565b6000600782019050919050565b6000612bb382612a65565b612bbd8185612a70565b9350612bc883612a81565b8060005b83811015612bf85781612bdf8882612b83565b9750612bea83612b9b565b925050600181019050612bcc565b5085935050505092915050565b60006020820190508181036000830152612c1f8184612ba8565b905092915050565b7f726f756e6420697320616c726561647920737461727465640000000000000000600082015250565b6000612c5d6018836122b0565b9150612c6882612c27565b602082019050919050565b60006020820190508181036000830152612c8c81612c50565b9050919050565b600081519050919050565b60005b83811015612cbc578082015181840152602081019050612ca1565b83811115612ccb576000848401525b50505050565b6000612cdc82612c93565b612ce681856122b0565b9350612cf6818560208601612c9e565b612cff81612009565b840191505092915050565b6000606082019050612d1f6000830186611e4e565b612d2c6020830185611dbc565b8181036040830152612d3e8184612cd1565b9050949350505050565b60006020601f8301049050919050565b600082821b905092915050565b600060088302612d957fffffffffffffffffffffffffffffffffffffffffffffffffffffffffffffffff82612d58565b612d9f8683612d58565b95508019841693508086168417925050509392505050565b6000819050919050565b6000612ddc612dd7612dd284611db2565b612db7565b611db2565b9050919050565b6000819050919050565b612df683612dc1565b612e0a612e0282612de3565b848454612d65565b825550505050565b600090565b612e1f612e12565b612e2a818484612ded565b505050565b5b81811015612e4e57612e43600082612e17565b600181019050612e30565b5050565b601f821115612e9357612e648161250b565b612e6d84612d48565b81016020851015612e7c578190505b612e90612e8885612d48565b830182612e2f565b50505b505050565b600082821c905092915050565b6000612eb660001984600802612e98565b1980831691505092915050565b6000612ecf8383612ea5565b9150826002028217905092915050565b612ee882612c93565b67ffffffffffffffff811115612f0157612f0061201a565b5b612f0b8254612463565b612f16828285612e52565b600060209050601f831160018114612f495760008415612f37578287015190505b612f418582612ec3565b865550612fa9565b601f198416612f578661250b565b60005b82811015612f7f57848901518255600182019150602085019450602081019050612f5a565b86831015612f9c5784890151612f98601f891682612ea5565b8355505b6001600288020188555050505b505050505050565b6000606082019050612fc66000830186611e4e565b612fd36020830185611e4e565b612fe06040830184611dbc565b949350505050565b6000604082019050612ffd6000830185611dbc565b61300a6020830184611dbc565b9392505050565b7f4e487b7100000000000000000000000000000000000000000000000000000000600052601260045260246000fd5b600061304b82611db2565b915061305683611db2565b92508261306657613065613011565b5b82820690509291505056fea2646970667358221220bd27ec08863af16d5778959916c442fba0153a8d9e09b0b54918438eb49e07fa64736f6c634300080f0033",
  "immutableReferences": {},
  "source": "//SPDX-License-Identifier: MIT\npragma solidity ^0.8.0;\n\nimport \"./cryptoducks.sol\";\n\ncontract LotteryTry {\n    address public manager;\n\n    struct Round {\n        bool active;\n        bool finished;\n    }\n\n    struct Player {\n        address addr;\n        uint256[6] ticket;\n    }\n\n    uint256 firstBlock;\n    uint256 M;\n\n    event Ticket(uint256[6] _ticket);\n    event WinningTicket(uint256[6] _ticket);\n    event LotteryCreated(bool created);\n    event RoundState(bool round_state);\n    event Prize(address addr, string uri, uint256 class);\n    event Revenues(uint256 balance);\n    event Players(Player[] players);\n\n    Player[] public players;\n    Round round;\n\n    bool public lotteryUp;\n    uint256[6] public winnerNumbers;\n    uint256 tokenIdCounter;\n\n    address DKSAddress;\n\n    struct DKStoken {\n        uint256 tokenId;\n        string uri;\n        bool assigned;\n    }\n    mapping(uint256 => DKStoken) DKSuri; // mapping from nft class to uri-id\n\n    /*\n    Set the lottery manager at contract creation. Takes the address of NFT contract as arguments\n    */\n    constructor(address addr) {\n        DKSAddress = addr;\n        manager = msg.sender;\n    }\n\n    /*\n    modifier for function that can be called only by the manager\n    */\n    modifier onlyManager() {\n        require(msg.sender == manager);\n        _;\n    }\n\n    function createLottery(uint256 m) public onlyManager {\n        require(!lotteryUp, \"Lottery already up\");\n        round = Round(false, true);\n        M = m;\n        lotteryUp = true;\n        emit LotteryCreated(true);\n    }\n\n    /*\n    checks if the previous round is finished, and, if that's the case, starts a new round.\n    takes M as argument.\n    */\n    function startNewRound() public onlyManager {\n        require(lotteryUp, \"Lottery closed!\");\n        require(round.finished, \"round is already started\");\n        round.finished = false;\n        round.active = true;\n        emit RoundState(true);\n        firstBlock = block.number;\n    }\n\n    /*\n    Function for buying a ticket, takes a uint[] array with 6 elements as argument. \n    The last one is the powerball.\n        ex buy([63,24,32,12,69,1])\n    Round should be active\n    Lottery ticket numbers required in a range from 1 to 69\n    Lottery ticket price required: 0,00061 ether =  610'000 gwei = around 1 euro\n    */\n    function buy(uint256[6] memory ticket) public payable {\n        require(lotteryUp, \"Lottery closed!\");\n        require(ticket.length == 6, \"choose 6 numbers!\");\n        require(round.active, \"round not active\");\n        bool success = true;\n        // check if M blocks has passed\n        if (block.number - firstBlock >= M) {\n            round.active = false;\n            emit RoundState(false);\n            if (block.number - firstBlock > M) success = false;\n        }\n        for (uint256 i = 0; i < ticket.length - 1; i++) {\n            require(\n                ticket[i] > 0 && ticket[i] < 70,\n                \"choose numbers between 1 and 69\"\n            );\n        }\n        require(\n            ticket[ticket.length - 1] > 0 && ticket[ticket.length - 1] < 27,\n            \"choose powerball between 1 and 26\"\n        );\n        require(msg.value == 610000 gwei, \"a ticket costs 610'000 gwei\");\n\n        if (success) {\n            Player memory player = Player(msg.sender, ticket);\n            players.push(player);\n            emit Ticket(ticket);\n            emit Players(players);\n        }\n    }\n\n    /*\n    Aux function that generate a random uint in a range, hashing difficulty and timestamp of the block.\n        ex. random(99) generate a number from 1 to 99\n    */\n    function random(\n        uint256 range,\n        uint256 seed\n    ) private view returns (uint256) {\n        return\n            (uint256(keccak256(abi.encode(block.timestamp, seed))) % range) + 1;\n    }\n\n    /*\n    draw 6 different winning numbers with random function.\n    */\n    function drawNumbers() public onlyManager {\n        require(lotteryUp, \"Lottery closed!\");\n        require(!round.active, \"round is still active!\");\n        require(!round.finished, \"round finished\");\n        for (uint256 i = 0; i < 6; i++) {\n            do {\n                if (i != 5) winnerNumbers[i] = random(69, i + players.length);\n                else winnerNumbers[i] = random(26, i + players.length);\n            } while (checkDuplicates(winnerNumbers[i], winnerNumbers, i)); // i don't want duplicates\n        }\n        emit WinningTicket(winnerNumbers);\n    }\n\n    /*\n    Check if a number is a duplicate in an array\n    */\n    function checkDuplicates(\n        uint256 check,\n        uint256[6] memory array,\n        uint256 index\n    ) private pure returns (bool) {\n        for (uint256 i = 0; i < index; i++) {\n            if (check == array[i]) return true;\n        }\n        return false;\n    }\n\n    // distribute the prizes\n    function givePrizes() public onlyManager {\n        require(lotteryUp, \"Lottery closed!\");\n        require(!round.active, \"round still active\");\n        require(!round.finished, \"round finished\");\n        bool powerball;\n        uint256 commonElements;\n        for (uint256 i = 0; i < players.length; i++) {\n            powerball = false;\n            uint256 class = 0;\n            if (winnerNumbers[5] == players[i].ticket[5]) powerball = true;\n            commonElements = findCommonElements(\n                winnerNumbers,\n                players[i].ticket\n            );\n\n            if (powerball && commonElements == 0) {\n                // class 8\n                class = 8;\n            } else if (commonElements == 1 && !powerball) {\n                // class 7\n                class = 7;\n            } else if (\n                (commonElements == 1 && powerball) ||\n                (commonElements == 2 && !powerball)\n            ) {\n                // class 6\n                class = 6;\n            } else if (\n                (commonElements == 2 && powerball) ||\n                (commonElements == 3 && !powerball)\n            ) {\n                // class 5\n                class = 5;\n            } else if (\n                (commonElements == 3 && powerball) ||\n                (commonElements == 4 && !powerball)\n            ) {\n                // class 4\n                class = 4;\n            } else if (commonElements == 4 && powerball) {\n                // class 3\n                class = 3;\n            } else if (commonElements == 5 && !powerball) {\n                //class 2\n                class = 2;\n            } else if (commonElements == 5 && powerball) {\n                // class 1\n                class = 1;\n            }\n            if (class != 0) {\n                if (DKSuri[class].assigned) {\n                    mintOnDemand(\n                        players[i].addr,\n                        tokenIdCounter,\n                        DKSuri[class].uri\n                    ); // mint\n                    tokenIdCounter++;\n                } else {\n                    transferDKS(players[i].addr, DKSuri[class].tokenId);\n                    DKSuri[class].assigned = true;\n                } //transfer and flag assigned\n                emit Prize(players[i].addr, DKSuri[class].uri, class);\n            }\n        }\n        round.finished = true; // end the round\n        delete players; // clear players array\n    }\n\n    /*\n    aux function for finding common elements between two arrays\n    */\n    function findCommonElements(\n        uint256[6] memory array,\n        uint256[6] memory ticket\n    ) private pure returns (uint256) {\n        uint256 commonElements = 0;\n        for (uint256 i = 0; i < array.length - 1; i++) {\n            for (uint256 j = 1; j < ticket.length; j++) {\n                if (array[i] == ticket[j]) {\n                    commonElements++;\n                    continue;\n                }\n            }\n        }\n        return commonElements;\n    }\n\n    /*\n    Function to withdraw the revenue of the tickets\n    */\n    function withdraw(address addr) public onlyManager {\n        emit Revenues(address(this).balance);\n        payable(addr).transfer(address(this).balance);\n    }\n\n    /*\n    End the round and reset data structures\n    */\n    /*\n    deactivate the lottery contract\n    */\n    function closeLottery() public onlyManager {\n        if (!round.finished) {\n            for (uint256 i = 0; i < players.length; i++) {\n                payable(players[i].addr).transfer(0.0056 ether);\n            }\n        }\n        lotteryUp = false;\n    }\n\n    /*\n    Function to mint an NFT, calling Cryptoducks.sol mint function. Only the creator of \n    cryptoduck can mint an NFT,and only the manager of the lottery can use \n    this function. So they are the same person. When you mint a Cryptoduck, you have to specify;\n\n    -owner of the minted nft\n    -unique token id (START FROM 1)\n    -uri of an img or a description\n    -class (from 1 to 8)\n\n    */\n    function mintDKS(\n        address _to,\n        uint256 _tokenId,\n        string memory _uri,\n        uint256 class\n    ) public onlyManager {\n        tokenIdCounter = _tokenId + 1;\n        Cryptoducks DKS = Cryptoducks(DKSAddress);\n        DKS.mint(_to, _tokenId, _uri);\n        DKStoken memory temp = DKStoken(_tokenId, _uri, false);\n        DKSuri[class] = temp;\n    }\n\n    /*\n    function for minting an NFT during the lottery, if there are more winners than the available prizes\n    */\n    function mintOnDemand(\n        address _to,\n        uint256 _tokenId,\n        string memory _uri\n    ) private {\n        Cryptoducks DKS = Cryptoducks(DKSAddress);\n        DKS.mint(_to, _tokenId, _uri);\n    }\n\n    /*\n    function for transfer NFT\n    */\n    function transferDKS(address _to, uint256 _tokenId) private {\n        Cryptoducks DKS = Cryptoducks(DKSAddress);\n        DKS.transfer(manager, _to, _tokenId);\n    }\n\n    function getRoundState() public view returns (bool) {\n        return (round.active);\n    }\n\n    function getNumTickets() public view returns (uint256) {\n        return (players.length);\n    }\n\n    function getTicket(uint256 k) public view returns (uint256[6] memory) {\n        uint256[6] memory result;\n        uint256 i = 0;\n        for (uint256 j = 0; j < players.length; j++) {\n            if (players[j].addr == msg.sender) {\n                if (i == k) {\n                    result = players[j].ticket;\n                    break;\n                } else i++;\n            }\n        }\n        return (result);\n    }\n\n    function getNumTicketsByPlayer() public view returns (uint256) {\n        uint256 result;\n        for (uint256 i = 0; i < players.length; i++) {\n            if (players[i].addr == msg.sender) {\n                result++;\n            }\n        }\n        return result;\n    }\n\n    function getWinningNumbers() public view returns (uint256[6] memory) {\n        return (winnerNumbers);\n    }\n    /*\n\n\n    */\n}\n",
  "sourcePath": "/Users/antoniopace/Desktop/Lottery-dAPP/contracts/lottery.sol",
  "compiler": {
    "name": "solc",
    "version": "0.8.15+commit.e14f2714.Emscripten.clang"
  },
  "schemaVersion": "3.4.8",
  "updatedAt": "2023-03-11T13:41:50.777Z",
  "networkType": "ethereum",
  "devdoc": {
    "kind": "dev",
    "methods": {},
    "version": 1
  },
  "userdoc": {
    "kind": "user",
    "methods": {},
    "version": 1
  }
}